:020000041008E2
:4000000000780408F90208100D0000006103081061030810610308106103081000000000000000000000000000000000B13B08105D03081000000000E13B0810453C0810E3
:400040005D0308105D0308105D0308105D0308105D0308105D0308105D0308105D0308105D0308105D0308105D0308105D0308105D0308105D0308105D0308105D03081000
:400080005D0308105D0308105D0308105D0308105D0308105D0308105D0308105D0308105D0308105D0308105D0308105D0308105D0308105D0308105D0308105D030810C0
:4000C0005D0308105D0308105D0308105D0308105D0308105D0308105D0308105D0308105D0308105D0308105D0308105D0308105D0308105D0308105D0308105D03081080
:400100005D0308105D0308105D0308105D0308105D0308105D0308105D0308105D0308105D0308105D0308105D0308105D0308105D0308105D0308105D0308105D0308103F
:400140005D0308105D0308105D0308105D0308105D0308105D0308105D0308105D0308105D0308105D0308105D0308105D0308105D0308105D0308105D0308105D030810FF
:400180005D0308105D0308105D0308105D0308105D0308105D0308105D0308105D0308105D0308105D0308105D0308105D0308105D0308105D0308105D0308105D030810BF
:4001C0005D0308105D0308105D0308105D0308105D0308105D0308105D0308105D0308105D0308105D0308105D0308105D0308105D0308105D0308105D0308105D0308107F
:400200005D0308105D0308105D0308105D0308105D0308105D0308105D0308105D0308105D0308105D0308105D0308105D0308105D0308105D0308105D0308105D0308103E
:400240005D0308105D0308105D0308105D0308105D0308105D0308105D0308105D0308105D0308105D0308105D0308105D0308105D0308105D0308105D0308105D030810FE
:400280005D0308105D0308105D03081010B5054C237833B9044B13B10448AFF300800123237010BDA074020800000000D8D30810084B10B51BB108490848AFF3008008485C
:4002C000036803B910BD074B002BFBD0BDE81040184700BF00000000A4740208D8D3081018460208000000007047EFF3108072B6704780F310887047FFF7F6FF72B6114C28
:40030000114DAC4209DA21686268A368043BA2BFC858D050FAE70C34F3E70C490C4A00209142BCBF41F8040BFAE70A480A490860BFF34F8F00F09CF900F076F900F098F812
:40034000FEE7000020B4091038B40910A0740208B49303080040020808ED00E0FEE7FEE700B504207146084202D0EFF3098001E0EFF30880043002F0F7F9FEE7F8B50646F7
:400380000F46094D41F2B061284601F01BF9074C3B4632462946204600F0BAFF41F2B061204601F00FF9F8BDBC7402086C8B020800B583B0284804F003FA002004F0FCF92C
:4003C0006FF07F4004F0F4F904F07EFA32223721084604F01BF90A2004F0BCF90A222D21232004F013F90A222D214B2004F00EF90523009337231A464221084604F058FCB2
:40040000022004F001FA0A22BE21144804F046FC022004F0F9F91E22BE21114804F03EFC022004F0F1F93222BE210E4804F036FC022004F0E9F94622BE210B4804F02EFC01
:400440005A226421094804F029FC01210846FFF795FF03B05DF804FB64A3081048980810549808105C980810649808107098081008B500F0C7F962B604F056FA142000F0C8
:4004800033FF012000F038FFFFF792FF00F0DCF9FCE700BF704700BF5C4AD2F8803303F00F0303F1D00152F8212002F00702032A04D0042A05D092B9554914E0554A1168F2
:4004C00011E003F1C002514951F8222002F01F02112A06D0132A04D04FF4FA4103E04E4901E04FF400418BBB484BD3F8902502F00100D3F88825C2F30172D3F8883513F027
:40050000405F07D0414BD3F88835C3F30173012B02D102E0012300E0002303B108B9032A46D13A48D0F88025C2F31103D0F88425C2F30C02D0F88005C0F300600130B1FB1D
:40054000F2F202FB03F2B2FBF0F131E0012B2FD12E4BD3F8402602F00100D3F80026C2F30172D3F8003613F0405F07D0274BD3F80036C3F30173012B02D102E0012300E028
:40058000002303B108B9032A12D12048D0F8002602F07F02D0F80036C3F30423D0F80006C0F3044002FB01F2B2FBF3F2B2FBF0F1164BD3F88033C3F3011321FA03F2154903
:4005C0004A601648D0F89030C3F3072301330069000E0130B2FBF0F08860B2FBF3F3CB600B6103F5742202F23F220D48A0FB0202C2F387420A7503F2E7330A4AA2FB032316
:400600009B098B61DB03CB61704700BF0000264000127A008C42020800366E010000214083DE1B43D34D621008B5104BD3F8802122F0404242F08042C3F88021D3F88021B5
:4006400042F00042C3F88021D3F8802122F00102C3F88021FFF71EFFFFF71EFF00F0C4FF00F0CAFF01F014FE08BD00BF0000264008B5FFF73AFE074AD2F8883043F47003E6
:40068000C2F88830BFF34F8FBFF36F8FFFF731FE08BD00BF00ED00E000B583B044F20603984245D010D8B0F5005F34D003D8B0F5805F1CD087E043F20303984231D043F20F
:4006C0001203984231D07EE044F21003984268D004D844F20803984240D074E045F20103984269D045F20203984269D06BE00021084602F005FB10B100F0E0F808E0022218
:40070000324B5A600822803B9A600022304B1A7012F020FB57E000F0D1F854E0013BDBB200E00623002BF9D14DE001F0BDFF4AE0284B1B78022B06D10222244B5A600822EF
:40074000803B9A603FE0002B3DD102221F4B9A600822803B5A6003F0B9FA34E01E4B1B88ADF804309DF8053013B91C4AD35C00E0002343BB0020164B18700222134B9A60F5
:400780000822803B5A60014602F0BAFA10B100F095F818E002220D4B5A600822803B9A6011E00F4B1B78022B0DD10222074B9A600822803B9A6006E00A88074B1A8002E0E4
:4007C0000822084B5A6003B05DF804FB800032401CA2020829920308A045030828920308209203080000324008B5044B984204D1034A0121002003F095F808BDBF00010008
:400800001CA2020800B583B04FF0007001F0AEFD084803F03FFA08B100F050F868460CF011FF08B100F04AF8034803F06DF803B05DF804FB99060810E907081008B5002065
:4008400001F092FE08BD00BF08B5FFF7F7FF0CF009FF164B1B78012B0FD013B1022B18D008BD0222124B5A60802203F580739A602022A3F5C0639A6008BD20220D4B5A6057
:40088000802203F5C0639A600222A3F580739A6008BD8022084B5A602022A3F5C0639A60022203F5A0639A6008BD00BF1CA2020880053240800032408006324008B5022246
:4008C000074B5A60802203F5C0635A600822A3F5D0635A607B21034801F036FF08BD00BF80003240849808102DE9F04180460E4615460F4C08276760702000F079FD404686
:4009000000F076FDA7606760722000F071FD05E0771C307800F06CFD25463E466B1E9CB2002DF5D10822024B9A60BDE8F08100BF0006324000B583B002AB03F8011D0122D5
:400940001946FFF7D1FF03B05DF804FBF8B507460E46094C08256560702000F049FD384600F046FDA5606560732000F041FD304600F06EFDA560F8BD0006324038B504259B
:40098000084B5D60084C402363601023636000F0FFFC0822054B5A6065602023636000F0E1FC38BD00003240800232400006324010B5434C6F220021204608F00CFF631C3F
:4009C000236704F14E03636704F12203A36700F0C9FC03E000F0D0FC032868D800F06CFD0028F7D100F0CEFC00217220FFF7AEFF00F00F0002285CD14021FFF79BFF0021B9
:400A00000F20FFF7A3FF10F0800F54D002210B20FFF790FF08222B490120FFF765FFD1210720FFF787FF02210820FFF783FFC2210920FFF77FFF03210420FFF77BFF01219E
:400A40000320FFF777FF00210320FFF773FF0A2001F060FE002400E01C4601210520FFF769FF642001F056FE03210520FFF762FF322001F04FFE0F210520FFF75BFF3220C7
:400A800001F048FE00210F20FFF760FF10F0400F05D040210220FFF74DFF234603E0631C9BB2042CD8D1032B07D9052010BD012010BD022010BD032010BD002010BD00BF07
:400AC00020A202088C98081010F1090F0EDB10F1040F0EDB05280FDD0A2810DD0F2811DD142811DD282811DC5A2210E04FF496620DE04FF461720AE04FF4167207E04FF4A2
:400B0000A57204E0DC2202E0B42200E03C22034BA3F87C20A3F87E20704700BF20A202082DE9F84F06460D46047828B1CA4B984205D10127002403E00127FF2400E000272F
:400B400000F010FC4FF00008D0E1C8EBC80AC8EB0A1ADFF80C930AEB090B6F220021584608F039FE0BF1010EBC4BC3F870E00AF148004844063058670AF1200AD14409F112
:400B80000209C3F878902022002397E10FB934780136032D00F29081DFE815F004006500C600270100EB030C14F0400F01D0C02100E080218CF8001049B214F0100F02D085
:400BC0004FF0300A01E04FF0200A4AEA01018CF8001014F0040F02D04FF00C0A01E04FF0080A4AEA01018CF8001014F0010F02D04FF0030A01E04FF0020A4AEA01018CF816
:400C000000100EEB020C14F0800F01D0032100E002218CF8001049B214F0200F02D04FF00C0A01E04FF0080A4AEA01018CF8001014F0080F02D04FF0300A01E04FF0200A7D
:400C40004AEA01018CF80010013A92B214F0020F02D06FF03F0A01E06FF07F0A4AEA01018CF8001028E100EB030C14F0400F01D0802100E040218CF8001049B214F0100F4E
:400C800002D04FF0200A01E04FF0100A4AEA01018CF8001014F0040F02D04FF0080A01E04FF0040A4AEA01018CF8001014F0010F02D04FF0020A01E04FF0010A4AEA010131
:400CC0008CF800100EEB020C14F0800F01D0022100E001218CF8001049B214F0200F02D04FF0080A01E04FF0040A4AEA01018CF8001014F0080F02D04FF0200A01E04FF07D
:400D0000100A4AEA01018CF80010013A92B214F0020F02D06FF07F0A01E04FF0400A4AEA01018CF80010C7E000EB030C14F0400F01D0C02100E040218CF8001049B214F0D3
:400D4000100F02D04FF0300A01E04FF0100A4AEA01018CF8001014F0040F02D04FF00C0A01E04FF0040A4AEA01018CF8001014F0010F02D04FF0030A01E04FF0010A4AEA3E
:400D800001018CF800100EEB020C14F0800F01D0032100E001218CF8001049B214F0200F02D04FF00C0A01E04FF0040A4AEA01018CF8001014F0080F02D04FF0300A01E0E4
:400DC0004FF0100A4AEA01018CF80010013A92B214F0020F02D06FF03F0A01E04FF0400A4AEA01018CF8001066E000EB030C14F0400F01D0802100E0C0218CF8001049B239
:400E000014F0100F02D04FF0200A01E04FF0300A4AEA01018CF8001014F0040F02D04FF0080A01E04FF00C0A4AEA01018CF8001014F0010F02D04FF0020A01E04FF0030A98
:400E40004AEA01018CF800100EEB020C14F0800F08D0022107E000BFFFFF0F1020A20208A445030803218CF8001049B214F0200F02D04FF0080A01E04FF00C0A4AEA01011B
:400E80008CF8001014F0080F02D04FF0200A01E04FF0300A4AEA01018CF80010013A92B214F0020F02D06FF07F0A01E06FF03F0A4AEA01018CF8001001339BB2202B7FF642
:400EC00065AEC8F1AF031BB299101A4A134003D5013B63F003030133174A02FA83F31B7A09F8013008F101081FFA88F8B8F1AF0F7FF62BAE00240FE0C4EBC403C4EB03136E
:400F00006F220E4919440A20FFF7EEFC07210220FFF710FD0134A4B2AF2CEDD9084BB3F87C4000F029FA8442E4D800F02BFABDE8F88F00BF030000808C980810A4450308E7
:400F400020A202082DE9F04706460D4600F00AFAD2210920FFF7EEFC0024C6E0C4EBC407C4EB0717DFF8008207EB08096F220021484608F030FC09F1010C784BC3F870C043
:400F800007F1480EC6440EF1060EC3F874E02037B84408F10208C3F87880202000218EE0771C32786E1C95F800900EEB010582EA090212F0400F04D019F0400F03D0802392
:400FC00002E0402300E0C0232B705BB212F0100F05D019F0100F05D04FF0200A04E04FF0100A01E04FF0300A4AEA03032B7012F0040F05D019F0040F05D04FF0080A04E069
:401000004FF0040A01E04FF00C0A4AEA03032B7012F0010F05D019F0010F05D04FF0020A04E04FF0010A01E04FF0030A4AEA03032B700CEB000512F0800F04D019F0800F0F
:4010400003D0022302E0012300E003232B705BB212F0200F05D019F0200F05D04FF0080A04E04FF0040A01E04FF00C0A4AEA03032B7012F0080F05D019F0080F05D04FF002
:40108000200A04E04FF0100A01E04FF0300A4AEA03032B70013880B212F0020F05D019F0020F04D06FF07F0203E0402201E06FF03F0213432B70013189B235463E4620290D
:4010C0007FF66EAFC4F1AF031BB29910244A134003D5013B63F003030133224A02FA83F31B7A08F801300134A4B2AF2C7FF636AF002421E0C4EBC405C4EB05151A4B1D448F
:401100006F2229460A20FFF7EFFB07210220FFF711FCC4F1AF0343F38D032B44002283F822206F2229460A20FFF7DEFB07210220FFF700FC0134A4B2AF2CDBD9074BB3F891
:401140007E4000F019F98442D2D800F01BF9C2210920FFF7EFFBBDE8F08700BF20A20208030000808C980810A4450308002307E01349086F5522C254496FCA5401339BB234
:40118000202BF5D970B5002416E0A6080C4DAA6F04F003030B490B441B7A93556F2229460A20FFF7A1FB07210220FFF7C3FBAB6F00229A550134A4B2AF2CE6D970BD00BFA7
:4011C00020A202088C98081008B5002304E00021094AD1540133DBB2152BF8D900210420FFF7A8FB6F2204490A20FFF77DFB07210220FFF79FFB08BD20A2020838B50E4CB2
:401200001023A360142001F085FA00F0D9F808220A4B9A604023A3600425A5600A2001F079FA65600A2001F075FAA5600A2001F071FAFFF7BDFB38BD80023240000632408F
:4012400038B5FFF793FFFFF7BFFF1E2001F062FA234C40256560322001F05CFAA56000210F20FFF773FB10F0400F36D000210B20FFF760FB01210320FFF75CFB0321052002
:40128000FFF758FB01210520FFF754FB322001F041FA80210420FFF74DFB00210520FFF749FB01210720FFF745FB1E2001F032FA00F094F8102363606560142001F02AFAFE
:4012C0000822084B5A60042363602025A5601E2001F020FA6560002038BD042038BD00BF800232400006324010B50446FFF746FB2046FFF7E9FB10BD08B510B1FFF77EFFD8
:4013000001E0FFF79DFF08B9012008BD002008BDF8B507460E4614461D4613B10120FFF7EBFF24B931463846FFF70CFE15E0631EDBB2012B11D800213846FFF7F1FB012C46
:4013400007D101213846FFF7EBFB02213046FFF7E7FB03213046FFF7E3FB15B10020FFF7CBFFF8BD08B50022024BC3F8082100F055F908BD00003840014BD3F8080170477D
:40138000000038400122014B5A6070470000384010B5074C074A0849204600F0A9FD236843F0004323600822044B9A6010BD00BF00006740F8910308D498081000063240ED
:4013C0000822044B9A60044A136843F000431360704700BF000632400000674008B50249024800F0CBFE08BDF89103080000674008B50146154800F067FD144BD3F8C03F4A
:4014000013F0040FF9D0114BD3F8042242F48032C3F80422D3F8042222F48032C3F80422D3F80422D3F8042342F48032C3F80423D3F8042322F48032C3F80423D3F80423E2
:401440000422C3F8C02FD3F8C03F08BD0000674008B50146174800F037FD164BD3F8C03F13F0040FF9D0134BD3F84003D3F8042242F48032C3F80422D3F8042222F48032F6
:40148000C3F80422D3F80422D3F8042342F48032C3F80423D3F8042322F48032C3F80423D3F804230422C3F8C02FD3F8C03FC0B208BD00BF00006740044B1B6913F0080FEC
:4014C00001D0012070470020704700BF8002324008B54FF40041034802F00AFD024803F0BFF908BDA0A2020820CA0810024A136801331360704700BFF491030810B52021B2
:40150000002001F0CFF9002409E0204601F0FAF920B90849204601F0E7F902E00134042CF3D9042C03D9A421034801F00DF901F095F910BDED1408109898081008B5FFF794
:40154000DDFF08BD10B582B002AC012344F8043D00231A461449154803F002FB214604F0D0FB05F009F860B14FF48472B021002005F0E7F84FF48472B021002005F00DF907
:401580000BE0B0224FF48471002005F0DAF8B0224FF48471002005F000F90549002005F0E7F802B010BD00BF64D1081098D10810AC420208012901D1002070474FF0FF30B0
:4015C000704700BF002303E0034AD25CC25401338B42F9DB704700BFA022030808B5012000F070FB08BD00BF08B500221146042000F0D8F808BD00BF10B5064800F08EF9E1
:4016000001F00FF90446044800F0F4F9204601F00CF910BD50390308A098081008B5084B1B783BB9074A0021074800F0C5FB0122034B1A70044B01229A609A6108BD00BF43
:40164000D03A0308089908100000384038B50C4B9A680C4B9A420ED10D46044619B9FC21094801F071F804F11003064A52F8230042F8235038BD1030044B53F8200038BD3F
:4016800000ED00E000400208549908100000081070B338B504460D464368072B03D93621154801F051F8B4F900306268002B08DB5201D2B203F1604303F5614383F8002345
:4016C00005E003F00F035201D2B20C49CA540C4B9A680C4B9A420DD11DB94521064801F033F82946B4F90000FFF7B0FF002038BD05487047002038BD5499081014ED00E0D1
:4017000000ED00E0004002080100560038B50369002B0DDA0D4604460B0C1B0423B140F2B321044801F010F8A9B26160002038BD014838BD9899081001008A0038B5036843
:40174000002B01DA002300E0094B73B90D460446C2600B0C1B0423B140F29A21054800F0F3FFA9B2A160002038BD014838BD00BF01008A009899081038B504460D4619B95D
:401780009921064800F0E0FF2369002B03DAE3682B60002038BD024838BD00BFD899081001008A000F2840D8F8B515460E46044682B979B90F2804D940F2A911214800F006
:4017C000C3FF600100F1804000F50C101E4B18600020F8BD5DB366B316F01F0F2BD10F2C04D940F2A911174800F0AEFF640104F1804404F50C14144F3C607E60BD60F208CA
:401800000021284607F0E7FF00212046FFF77EFF3A4652F8040B0021FFF790FF68B900213868FFF773FF50B9F8BD084870470748F8BD0648F8BD0548F8BD0548F8BD04485D
:40184000F8BD00BF189A0810D43A030803018A0001018A002DE9F0411B4B1B68DC68236883422CD90D464609A0EB4610012303FA00F819B900F0D5FF074600E00027124B4B
:4018800018680368002B01DA002300E00F4B83B9626852F8263018EA030F05D023EA080342F82630002400E0094C0021FFF72EFF00E0084C25B9384600F0B7FF00E0064C9E
:4018C0002046BDE8F08100BFD43A030801008A00020188000301880004018A000B4B1B68DB681A6882420CD94109A0EB4110012202FA00F05B6853F82130184203D004480F
:401900007047044870470448704700BFD43A03080101880004018A0000018800024B1B680BB9014B18607047E03A03082DE9F8430446884691461E46089F2A4B1B681BB925
:40194000B421294800F000FF072C03D9B521264800F0FAFE234B1B682C2000FB04F01C18F5B21D50C6F307236360360CA6600F2D04D940F2A9111D4800F0E6FE6D0105F1F3
:40198000804505F50C15256165680F2D04D94FF4E271164800F0D8FE154B03EB45156561A668330C1B0423B14FF4F1710F4800F0CBFE330C1B0423B140F2E3110B4800F023
:4019C000C3FEB3B243EA0646AE60C4F81C90C4F820800023A36117B1B7F90030A381BDE8F88300BFE03A0308589A0810189A081000102340F0B58FB0044618B950212C4854
:401A000000F0A2FEA369072B03D95421284800F09BFEE36A1BB95621254800F095FEE368072B03D95721224800F08EFE236A072B03D958211E4800F087FE236B1BB9592184
:401A40001B4800F081FE07AE04F114050FCD0FC62F6802AD26460FCE0FC533682B60079B1933ADF83030089B0D93A26AE16A0CAD00953B460A98FFF759FF00210091069BF8
:401A80000A460598FFF752FF216B2846FFF700FEBDF93030002B08DB590903F01F03012202FA03F3034A42F821300FB0F0BD00BF589A081000E100E0F8B506460F461D46D5
:401AC00014461AB9FD21264800F03EFE254B1B681BB9FE21224800F037FE072E03D9FF211F4800F031FE072F04D94FF480711C4800F02AFE1B4B1B682C2101FB063001FBAE
:401B000007314B68012202FA03F31B04466802FA06F60269EAB18F69EFB91268002A01DA002200E0104AC2B92288134323600369DC6001238B614D620469330C1B0423B15B
:401B400040F29A21094800F0FFFDB2B2A2600020F8BD0748F8BD0748F8BD0648F8BD00BF589A0810E03A030801008A00189A081004028A0007028A00F8B505460F461646E6
:401B8000124B1B6823B940F26111114800F0DCFD072D04D94FF4B1710D4800F0D5FD0B4B1B682C2404FB0534236A23B94FF4B371074800F0C9FDE369B34204D9236A43F8FA
:401BC00026700020F8BD0348F8BD00BFE03A0308589A08100A028A0038B504460D460B4B1B6823B940F29311094800F0ADFD072C04D94FF4CA71064800F0A6FD034B1B68B6
:401C00002C2202FB0434A56238BD00BFE03A0308589A081070B582B000230193044620B94FF4EA71264800F08FFD236923B940F2D511234800F088FD636923B94FF4EB71D7
:401C40001F4800F081FD236A23B940F2D7111C4800F07AFD6369DD682A0C1CD012041A601B6820690369002B15DA01A9FFF784FD60B9019803681E0CDBB2E269934206D2FF
:401C8000226A52F8233013B1984700E0002631462069FFF73BFDADB275B16369ADB21D601B68636A1BB198470023636202E0A36A03B198470023A36163691B6802B070BD3D
:401CC000589A081010B504460B4B1B6823B94FF4DA710A4800F038FD072C04D940F2B511064800F031FD044B1B682C2000FB0430FFF790FF10BD00BFE03A0308589A081010
:401D000010B50446134B1B6823B940F22D21124800F01AFD072C04D940F22E210E4800F013FD0C4B1B682C2202FB0434B4F90C30002B0DDB5A0903F01F03012101FA03F32B
:401D40002032064941F82230BFF34F8FBFF36F8F002010BDE03A0308589A081000E100E010B50446114B1B6823B940F24D21104800F0EAFC072C04D940F24E210C4800F08D
:401D8000E3FC0A4B1B682C2202FB0434B4F90C30002B08DB590903F01F03012202FA03F3044A42F82130002010BD00BFE03A0308589A081000E100E000287DD00346002A09
:401DC0007CD070B45068000280B29568AD0405F480252843D468240404F4403404431069000600F0E0602043147F0CB1012400E0002420430C1DA4011851D06828B903EB8D
:401E000081100024C0F808410CE0012805D1146803EB8110C0F8084104E003EB81100124C0F80841106938B9546903EB8110C0F80C419469C0F81041146803EB8110C0F818
:401E40001441906CB0F1FF3F17D0946A04F00F04166B360206F470663443956B2D0405F470252543146C2403A4B22C430001C0B2204303EB8114C4F82001506A00F00300D0
:401E8000D66A360106F030063043556B2D0205F440752843D46BA401E4B20443506C800000F00C00204303EB8113C3F82401126AC3F83821002003E00248704701487047B2
:401EC00070BC70470100B600036813F4006F01D0802200E04022D0F80832C3F30803934203D0C0F84012012070470020704700BF002800F03081F8B50546002900F02D8147
:401F00000B78012B03D19948854200F02881087F18B19648854240F0248116460C46012B03D94C21924800F00FFC6378012B07D9052B05D0022B03D04D218D4800F004FCFC
:401F4000A378032B03D94E21894800F0FDFB2378012B07D16368023B0E2B03D95021844800F0F2FBA36933F00F0303D05121804800F0EAFBA368043B0C2B03D952217C4887
:401F800000F0E2FBE368043B0C2B03D95321784800F0DAFB6378022B07D0A268E3689A4203D05421724800F0CFFB636A33F06D0303D056216E4800F0C7FBE36A33F07303FA
:401FC00003D057216A4800F0BFFB236B33F4206303D05821664800F0B7FB6378A778052B07D8DFE803F0060305060603022700E00027A368082B04D8E368082B03D90023BF
:4020000002E0002300E0012313B14FF4006200E00022217F11B14FF4807300E000231A436368013B03F00F03134343F080732B60236A2A6812F4006F01D0802200E04022D8
:40204000934203D365214A4800F07EFBA36A2A6812F4006F01D0802200E04022934203D36621434800F070FB237D0BB9012100E000216278052A01D1022300E000230B437B
:40208000E17C09B1102100E000210B43617C09B1202100E000210B432178012902D14FF0004100E000210B43BF0007F00C073B43A169090201F470610B43120602F04072D1
:4020C00013432B62237C13B14FF4807200E00022A17C11B14FF4007300E000231A43A368013B03F00F031343C5F8003394F82030C5F80433237C13B14FF4807200E0002272
:40210000E368013B03F00F031343C5F8003294F82830C5F80432636A03F06D03C5F8C83FE36A03F07303C5F8883F236B03F40073C5F8003F236B03F40063C5F8403F00238E
:40214000C5F8C83E7EB118463360B361F360F361084B3362F8BD084870470748F8BD0648F8BD0548F8BD0020F8BD00BF00006940DC9A0810EFCDAB000140AA00036823F079
:402180000043036019B100220A60CA608A61036A002B04DB0023C0F8C83FC0F8883F70471F4B98422DD00CD840282ED003D8E8B1102828D02FE0802829D0B0F5807F28D004
:4021C00029E0184B984228D006D8B0F1204F0DD0154B984212D01EE0144B98420AD00133984209D0023B984215D101E0002070470F4870470F4870470F4870474FF4A00000
:402200007047074870470D4870470D4870470D487047034870470C4870474FF4A400704706005200010000F0090000A0040000F001005200020052000300520001005000DF
:402240000200500005005200FF00520008B50C4B1B69002B12DB0B4B1868FFF7A1FF0122094BC3F88C24084BD3F80C34002BFAD1054BD3F88C34002BF5D108BD034808BD71
:4022800020002340E43A0308000025400200500000B583B05523ADF80030002301930C496846FFF7F5F9BDF90030002B08DB590903F01F03012202FA03F3064A42F821308D
:4022C000022205490120FFF757FC03B05DF804FB9946020800E100E06D460208104B03F5F2421268026003F5F0421268426047F604029A58826047F608029A58C26047F63C
:402300000C029A58026147F610029A58426147F614029A58826147F618029B58C3617047000034404168104B03F5F0421160816847F604029950C16847F60802995001691E
:4023400047F60C029950416947F610029950816947F614029950C16947F618029950026803F5F2431A6070470000344010B5044620F07F6323F4402323B14FF49961144893
:4023800000F0E2F914F0806F04D0124A536823F48003536014F0006F04D00E4A536823F40003536014F0807F04D00A4A536823F48013536014F0007F04D0064A536823F444
:4023C00000135360034B5A6814435C605B6810BD1C9B08100000264038B5044600F021FA2CB1184B5B681F2B03D9002302E0002300E001231D460BB3E368E3B12368E3B179
:40240000104B99680B46002203E0A34204D01A465B69002BF9D100E000257DB111B9094B9C6000E05461226100236361054A53680133536002E0002500E0002500F0F5F9F1
:40244000284638BDF43A030838B5044600F0E9F9144B5A680AB399680B4602E0A34204D05B69002BFAD1002500E00125B5B1A14206D14B695BB10B498B600021196106E067
:4024800019695C694C61596909B11B690B61013A044B5A6012B99A6000E0002500F0C5F9284638BDF43A030870B584B005460E46042804D940F69501284800F045F9731E68
:4024C000DBB2012B08D9042E06D0082E04D040F69601224800F038F9042E01D0012E1CD11F4B9C68002013E023799D420FD1A3680BB133420BD1E3685A6802929B6803938B
:4025000004A800F80C6D23689847154BDC6064690CB3144B9842E7D11DE0114BDC68022E01D104B12469002011E023799D420DD1A3680BB1334209D1E3685A6802929B68F6
:40254000039304A800F80C6D23689847246914B1044B9842E9D104B070BD00BF1C9B0810F43A0308FF00420070B50546012804D94FF40471384800F0E7F8384B5B682BB181
:4025800001210846FFF790FF044600E00024002C5AD100F046F90646304B5B681BB104210120FFF781FF2E4BD3F8E03013F0100F02D02C48FFF792FE4FF0B0535B7813F0E6
:4025C000FF0F04D04FF0B0535B78DBB200E02123212B03D1284607F02FF921E022494FF61C73CB5803F01F024FF0B05393F84037DBB29B1A18BF01230A6812F4000F07D12F
:4026000033B11A4B196847F63073174AD15004E0002147F63073144AD150284607F004F90F4BD3F8E03013F0100F02D00D48FFF779FE304600F0F9F8084B5B684BB108212B
:402640000120FFF731FF04E002210120FFF72CFF074C204670BD00BF1C9B0810F43A030800000140043B03080000264010180016FF00420008B500F0D4F8094B5B6813F416
:40268000003F0AD1064B5A6822F47F425A605968044A0A435A605A685A6000F0C6F808BD00002640003A028038B5154B5B682BB101210220FFF7F8FE044600E00024C4B94E
:4026C00000F0AFF80E4B5B681BB104210220FFF7EBFE0C4D6A680C4B134043F01B036B60FFF7C8FF6A68094B13436B606B6830BF04E002210846FFF7D7FE054C204638BDB2
:40270000F43A0308000026400000FC0F003A0280FF00420010B5044605E0084B186800F077F8A4F50044B4F5004FF6D8044B186800FB04F000F06CF810BD00BFA842020897
:40274000A442020801BEFEE738B50D46044C18220146204607F047F8A5610020FFF7F2FFB84A0208FEE700BF08B50268254BDA6142681A6282685A62C2689A620269DA62F0
:4027800042691A6382695A63C2699A631E4A916AD963D16A1964516A5964516B9964926BDA64F1EE103A13F0900F27D0026A154B1A65426A5A65826A9A65C26ADA65026B23
:4027C0001A66426B5A66826B9A66C26BDA66026C1A67426C5A67826C9A67C26CDA67026DC3F88020426DC3F88420826DC3F88820C26DC3F88C20026EC3F89020FFF7B2FF94
:4028000008BD00BFB84A020800ED00E0000000000230800803D001300238FCD100BF00BF7047EFF3108072B6704780F310887047084B1B6813F4803F07D17047064B53F867
:40284000243003B19847013401E010B50024042CF4D910BD10E000E0243B0308044B1A6842F002021A601A6842F001021A60704710E000E0042805D1084A136843F004032C
:4028800013607047000600F04070054BC3F84002024A136823F004031360704710E000E00000214010B50C46002304E000210A4A42F823100133042BF8D9084A084BDA63A9
:4028C000FFF7D8FF24F07F44064B5C6000229A60FFF7C4FF10BD00BF243B0308312808100040020810E000E00346042805D8044A52F8200042F8231070470020704700BF0D
:40290000243B0308042803D8024B53F82000704700207047243B030810B50378012B02D0082B29D02EE01B4B1B78012B2CD00320FEF7D4FF184B984228D0FFF772FF174BF4
:40294000186002200AF090FE04460AF098FE022C05D1032805D0052805D1002404E0104C02E0002400E00E4C0D4B9C420FD10B4B1868FFF75AFF0AE0084B1868FFF755FF6E
:40298000002404E0064C02E0054C00E0044C204610BD00BF2092030801018800383B0308FF00420008B50378022B1CD0082B14D0012B1ED1124B1B78012B1CD0FFF731FFB1
:4029C000104B586002200AF04FFE022815D00D4B5868FFF72AFF0C4808BD0A4B5868FFF724FF002008BD074B5868FFF71EFF064808BD054808BD044808BD002008BD00BFEA
:402A000020920308383B0308FF00420010B5044C2046FFF719FD04F11800FFF715FD10BDD042020810B5A0B10C4A9060C36A03B1D36000240A4B1C700A4B1C700A4B1C606E
:402A40000A4B1C7000F054F9094B1C70094B1C7000E0094CFEF7D0FD204610BD383B0308309203083492030838920308359203081F920308249203080100160010B590B0F2
:402A8000354B0CAC186859689A68DB680FC42822002102A806F09FFE304B02930CAB049342F65413ADF8143004238DF816302C4A92681269069241F2960207921B22ADF83C
:402AC0002020ADF8222003228DF824208DF8253006238DF8263010238DF827308DF828308DF829307223ADF82A3001238DF82E301C4C2046FFF770FC04F11800FFF76CFCE3
:402B00000AF09EFD08A80AF005FE034600BB164B039302A80AF0C6FD0346B0B90122134B1A700023124A1370124A13700C4B9B681A6A00929B6ADB88ADF804301123ADF8C9
:402B40000630684613F08CFB034600210A4A1160184610B010BD00BF5C9B081011310810383B0308D04202084C4B02082092030828920308299203083892030808B50BF095
:402B80000DFF08BD08B5044B1B689847034B1B6803B1984708BD00BF643B0308483B030808B510B1034A52689047034B1B6803B1984708BD643B0308483B030870B5C0B064
:402BC00006460C4615464FF480720849684606F0DCFD05E016F8012B6A401DF80250013C002CF7D1284640B070BD00BF6C9B081008B50022FFF7E2FF08BD00BF08B5FFF722
:402C000010FE08BD08B5FFF710FE08BD08B50120FFF7A6F808BD00BF08B5FFF7F7FF08BD08B50120FFF76CF808BD00BF08B5FFF7F7FF08BD08B5094B5860196001220849F7
:402C40001046FEF799FF034628B9002205490120FEF792FF0346184608BD00BF643B0308A12B0810852B081038B515460B46024601210020FEF720FF044618B129460120D5
:402C8000FEF7AAFF204638BD704700BF704700BF0020704700487047110016000048704711001600004870471100160000487047110016000048704711001600004870479B
:402CC0001100160000487047110016000048704711001600004870471100160000487047110016000048704711001600704700BF08B5024800F0F2FD08BD00BF244402089D
:402D0000F8B5022872D8002972D10022134606E03B4CE45C012C01D90132D2B20133002BF6D0012A0CD1374B1B681C6801EB8102930023445B681B79023BDBB2012B59D883
:402D4000314B1B78002B57D1304B1970E0B92D4F3C68236801EB8105AA009D186668C1EBC1014B001E44B18829822168114449686468E45A0C8039680C6822445268496800
:402D80000B445B8853801EE001281CD11D4F3C68236801EB8105AA009D186668C1EBC1014B001E44B1892982216811444D68616819440989298039680C68224452684968E6
:402DC0000B445B895380124B18700E4B1B6818680E4B1B7803EB83039A0010440EF0D6FF034650B90121084A117006E0094B04E0084B02E0084B00E0084B1846F8BD00BF79
:402E000028920308403B0308299203081E920308359203080100160002001600FF00160070B439B9144B1B681B689968CE7F00231D460EE0104B1B681B68D968CE7FF6E7A7
:402E4000CA5C52B10133CC5C1B2C01D0134400E00125B34201D2002DF2D05DB101338279CA54002204E0D4180134855C0D550132052AF8D970BC7047403B030870B50446D1
:402E800013F03AFA054620BB134B1968086A228902EB82029300143B03445A6812F0007F17D0E67B1B695A68CB69D21A06EB4606B318A28821680948184406F066FCE37B10
:402EC000074AD35C012B04D1064A137843F002031370284670BD00BF403B03082C920308249203081F92030830B587B002891A4B1B685B699B889A4229D1044601AB07C884
:402F000083E807000022ADF81020A289ADF8122040228DF814201846FFF7B0FF054680B923681B7803F002039BB22BB10B4B1B6821460B48984704E0084B1B682146094861
:402F40009847094A137803F0FE03137000E00025284607B030BD00BF403B0308443B030805000100060001003092030838B50289531E9BB2112B1AD8C17BD1B90E4B1C6856
:402F8000256A02EB82029300143B2B445A6812F0007F09D01B695A68E369D31A01EB41011944064B5B5A138013F074F938BD012038BD012038BD00BF403B03082C92030862
:402FC0004288531E9BB2112B1AD84178D1B910B40F4B1868046A02EB82029300143B23445A6812F0007F0FD01B695A68C369D31A01EB41011944074B5B5A1380002004E068
:40300000012070470120704700205DF8044B7047403B03082C92030800B583B00023ADF804308389ADF800300389ADF8023012238DF80430084B1B7813F0010F09D129B153
:403040008DF80510684612F03BFA02E0C06812F057FA03B05DF804FB3092030810B4044688B10023194606E0104A52F82320944200D1012101330D4A1279934206D2002955
:40308000F2D0002003E00021094800E0002050B949B9064B1B792BB9044A42F823400133137100E003485DF8044B70473C920308010016000300160070B506460D460020EF
:4030C000044606E0084B53F824302946304698470134054B1B799C4204D2044B1B7813F0010FEFD170BD00BF3C9203083092030883792BB100207047C25C32B9013300E00A
:403100000023052BF8D9002070470120704700BF70B58CB004460D46BB4A137843F00103137044F20A03984200F0ED813BD842F20403984200F0DD8019D841F202039842C2
:4031400000F0048108D8B0F5805F6AD041F20103984200F0F88033E341F20303984200F02E8141F20403984200F0258328E344F20603984200F015820AD843F2120398429E
:4031800000F0AC8044F20403984200F02B8117E344F20703984200F0B98144F20803984200F0FB810CE345F20E03984200F0EF821BD845F20203984200F07D820AD844F2F9
:4031C0001003984200F0A28145F20103984200F02782F5E245F20303984200F0858245F20C03984200F0AC82EAE245F21403984200F0D6820AD845F20F03984200F0CA8281
:4032000045F21003984200F0C882D9E245F21703984200F0C88246F20103984200F0FD81CEE27A4B1E683046FFF762FF60B130460FF0A2FD754E00213068FFF7F1FD01211D
:403240003068FFF7EDFD37E0714B1A68936A1B791BB34FF0B05191F8043603F03F0391F8050600F03F0043EA801391F8030600F01F0043EA003391F8001601F07F0143EA29
:403280004143126B1370624A1168096BC3F3072048701268126B1B0C93705D4E3368186B0FF06AFD33680021186BFFF7B9FD33680121186BFFF7B4FD554B1B68986A0230E3
:4032C00010F070F9534A05AB1068516803C305A80FF076FD0222504B1A7071E200234E4A13704E4A13700A20FFF714FAFFF78EFB66E24B4B1B6813F0010F40F061820023B6
:40330000ADF814308DF81630414E33689B6A93F900308DF8143005A80FF06CFD33689B6A93F901308DF8143001238DF81530FF238DF8163005A80FF05DFD394A136843F0D8
:40334000010313603CE2FFF7B7FE39E24978354B1B88ADF81430002319E0334A32F81320ADF808209DF8092012B93048825C00E00022012A0AD92C4A12F81320914205D117
:40338000294A32F81330ADF8143002E00133002BE3D09DF81530FF2B05D104D14FF472712348FFF7D1F9BDF81430ADF82030ADF81C30C3F3072329781E4AD15400E20B78FE
:4033C000002B40F0FD810B7A33B91B4B0022DA809A801A4A1A604B600B4A137803F0FE031370EDE149790F4B1B88ADF81430002335E00D4A32F81320ADF80C209DF80D20B2
:40340000F2B90A48825C1CE03092030800430208403B03086C9C0810209203082992030838920308749C08101C92030828920308789C081034920308843B0308A074020812
:403440000022012A0AD9AD4A12F81320914205D1AA4A32F81330ADF8143002E00133002BC7D09DF81530FF2B05D104D14FF47271A348FFF769F9BDF81430ADF82430ADF86E
:403480001430C3F3072369789E4AD154EB78002B40F0968169799C4B1B88ADF81430002319E0964A32F81320ADF810209DF8112012B99648825C00E00022012A0AD98F4A6C
:4034C00012F81320914205D18C4A32F81330ADF8143002E00133002BE3D09DF81530FF2B05D104D14FF472718548FFF72DF9BDF81430ADF82830ADF81430C3F30723012127
:40350000834AD1545CE1FFF7D7FD59E1AB7E002B3FD12B7E012B02D100227E4B1A70E97E794B1B88ADF81030002319E0734A32F81320ADF814209DF8152012B97348825CE7
:4035400000E00022012A0AD96C4A12F81320914205D16A4A32F81330ADF8103002E00133002BE3D09DF81130FF2B05D104D14FF472716348FFF7E8F8BDF81030ADF82C305D
:40358000ADF81030C3F30723FF2B02D0297E624AD1540222614B1A7012E102225F4B1A700EE1FFF789FD5E4B1B7813F0010F00F00781584B1B78012B03D10222554B1A7077
:4035C000FEE0032B03D10022524B1A70F8E0022B40F0F68000224F4B1A70524B1B685B68514A1178C1EBC10203EB42039A79002A00F0E6809B88002B00F0E2804B4B1B78AC
:40360000002B40F0DD800120FFF77AFB002840F0D78001223F4B1A70D2E0FFF74DFDCFE00B88ADF800309DF801301BB90221374AD15405E023B94FF461713148FFF784F833
:403640006A7829882D4B23F812106B780021384AD15403EB4302374E9119324B1B6818692B7803EB430303F584531033034433F8060F9B7890538B70687800EB40000221E5
:403680003044FFF7B5FA6B7803EB430333449B7898420BD0284B1B680021284898476B7803EB4303981900229A53827029462046FFF702FD84E00B88ADF804309DF8053008
:4036C0001BB90021114AD15405E023B94FF461710B48FFF739F86B7800210D4AD15429462046FFF7E9FC6BE00B88ADF814301723ADF8163005A811F0EFFE61E01C92030854
:40370000789C081024920308749C0810289203087C3B030829920308803B03082092030830920308403B03081E92030835920308349203082C920308443B0308040001009B
:403740000A89531E9BB2112B13D98B89ADF81430ADF8162012238DF8183001238DF8193005A811F0ADFE1F4A137803F0FE03137026E00846FFF7B8FB014620B9294620464E
:40378000FFF79AFC01462846FFF746FC18E0FFF793FC15E0FFF790FC12E0FFF78DFC0FE0FFF78AFC0CE00846FFF70AFC29462046FFF782FC04E00C4A137843F001031370C2
:4037C000084B1B7813F0110F09D0064A137803F0FE031370054B1B682946204698470CB070BD00BF309203081F920308443B03081C4B1B68002B34D01A4B5B681B685A88AD
:4038000003899A422DD18388012B2AD103681B78022B26D810B588B0044603AB07C883E807000022ADF81820A289ADF81A2040228DF81C201846FFF721FB80B9A389ADF8EB
:40384000043000238DF806300294064B1B6801A905489847054A137803F0FE03137008B010BD7047903B0308BF0001003092030800B587B000238DF817300093019302936F
:40388000039304930123ADF80430074B5B681B685B88ADF808300DF1170300936846FFF7EDFA07B05DF804FB903B0308B0F5803F11D208B583B245F20202934207D045F218
:4038C0000E02934205D10846FFF792FF01E0FFF7CFFF002008BD0020704700BF50B110B5064C60600648FFF7B9FB63685B681BB1236010BD0348704710BD00BF903B03083A
:40390000AD38081001001600044B18605B6813B15860002070470248704700BF903B030802001600DAB11346D8B901291BD100B587B0002202920392049205920193ADF8C0
:4039400008100B4B5B681B685B88ADF80C3001A8FFF70CFB08B1074807E0002005E005487047044870470348704707B05DF804FB903B03080100160043684B609A688A60F2
:403980009A68516099600861036801330360704703694268816891608268416851605A68904201D182685A60002202611A68013A1A601868704700BF094B9B6A1B680BB9A9
:4039C000012300E0002323B14FF0FF32044BDA627047034B9A6AD268D2685268DA627047983B03082DE9F0413C4BD3F81831002B65D13A4BD3F814410134C3F81441CCB917
:403A00009B6A1B6843B14FF03F0383F31188BFF36F8FBFF34F8FFEE7304B9A6AD3F8F8109962C3F8F820D3F820210132C3F82021FFF7C2FF294BDB6A9C4203D2002645E08C
:403A4000012600E00026254B9B6A1B680BB9012300E0002323B14FF0FF32204BDA6235E01E4B9B6ADB68DD686B689C4202D21B4AD3622BE005F104084046FFF789FFAB6AFB
:403A80001BB105F11800FFF783FFEB6A134AD2F80C21934202D9114AC2F80C310F4F07F1300003EB83039A0041461044FFF764FFEA6AD7F80031DB6A9A42C1D2C3E7074A3E
:403AC000D2F824310133C2F824310026034BD3F8283103B101263046BDE8F081983B0308304BD3F8183123B101222E4BC3F82821704710B52B4B0022C3F82821D3F8003170
:403B00001B6B1A68B2F1A53F0BD15A68B2F1A53F07D19A68B2F1A53F03D1DB68B3F1A53F07D0204BD3F80001D3F80011343100F09FF81C4BD3F80C310AE043B94FF03F0325
:403B400083F31188BFF36F8FBFF34F8FFEE7013B03EB83018A0013490A44126B002AECD008469900CC18A2000244546B64685463303019448A0008320244944206D160689B
:403B800003EB83018A0007490A445063054903EB830082000A44526BD268C1F80021C1F80C3110BD983B03080000000000000000074B19680868B0E8F04F80F30988BFF3E7
:403BC0006F8F4FF0000080F311887047AFF30080983C0308000000000000000000000000EFF30980BFF36F8F154B1A681EF0100F08BF20ED108A20E9F04F10602DE9090055
:403C00004FF03F0080F31188BFF34F8FBFF36F8FFFF766FF4FF0000080F3118809BC19680868B0E8F04F1EF0100F08BFB0EC108A80F30988BFF36F8F704700BFAFF3008011
:403C4000983C030808B54FF03F0383F31188BFF36F8FBFF34F8FFFF7C5FE18B14FF08052024B1A60002383F3118808BD04ED00E008B54FF03F0383F31188BFF36F8FBFF307
:403C80004F8F4FF441710248FEF75EFDFEE700BFB09C081008B518B1094AD062002000E0084858B9084B1B782BB90548FEF7BAFE0122054B1A7008B9FEF7E0FE08BD00BF4A
:403CC0000443020801001600C43C030808B5FEF755FF08BD064B5A68596B01325A60C2008A18596A51600021117058627047C046449203080F2330B542680E4CD9000919DA
:403D00000D6C2100AA4202D2013BF7D211E00F2B0FD82468A21A0A608268C068002A00D05060002801D0026003E00833DB00CB185A6030BD44920308F8B5284C0600E36873
:403D4000A26B013B0818D3180D00984206D80368002B03D14368F618FFF7CCFFA36B9D420BD92B1F1F68EF1B3B68002B05D17B683800F6183D00FFF7BDFF0F23DA00A21818
:403D8000126C964202D2013BF8D225E00F2B23D80833DA00A21850680022A91904392A606E60A8602D610E6029000831904200D04160EA602200DB00E318A8605960236862
:403DC0002932F31823601278002A05D1E268D31AA268934200D9A3603000F8BD44920308F0B5234B87B09C6BDB680490013BE318039323686568002B30D1039B6719BB4204
:403E00002CD93B680293002B28D0194EDB00726B9B5C012B22D17B6820000193F36A0593FFF768FF3B68726BDB00D3185C60019A3900200005F0B4FC029B059A934202D185
:403E4000736B5B1B7363019B2800E118FFF774FF049B002B01D0984206D2019D039B6419A342C6D8012000E0002007B0F0BDC04644920308002806D0034BDA6B0260002AE0
:403E800000D05060D863704744920308034BC0005B6B1818406808307047C04644920308064A10B5D3690133D361526BC300D3181A7801321A70FFF7E9FF10BD449203082E
:403EC000036810B5083B094C1B68626BDB00D3181A78012A04D9E169002901D00139E161013A1A7000230360180010BD449203080322024B91431860596070473C440308C0
:403F000010B5041E0BD0064B5A6BC300D3185B6819005868FFF710FF2000FFF7DBFE10BD44920308F7B5224DEB6A002B07D1214B99685868083105F0EFFB841C03E02B69EE
:403F40001C1DDB08E418E00000F0CAF80126071E2CD06A6BC300D3185E68EB6A083601932B69696BDA00144B30001B68984729696E630B00CA000432EF62B218601E8342E0
:403F800003D2013313600832F9E7DB00F31800265E60074B5A685962511A091959601C61019BB34202D01800FFF7AAFF3000FEBD449203083C4403080446020870B5184CC1
:403FC000230028331A78002A29D101321A70154B0F32DA609A68002A02D15A6892089A605A2210252262002228009040D100611801320864102AF7D15868196803000125FC
:40400000143BCB180E3A22616363A163E0605D6065626560FFF790FEFFF784FF256370BD449203083C440308F0B5040085B0FFF7C5FF0323294E03349C43376C201DB842ED
:4040400000D30700F26B1400002C06D0231F196823688F4232D01C00F6E7F268B36B944663440193043B02931B680393039A019B9D1A2B68002B06D02000FFF7B1FE029B79
:404080001D68019B5D1B2B68002B23D16B689F4220DC28001C1DFFF72DFEF368E41BDB1BF36073692C19DB1973616B68D81B02D02900FFF741FE231F1F600BE0002B01D059
:4040C000616859606168002900D00B60A24201D12368F363200005B0F0BDC04644920308F0B585B00400FFF769FF3C4D2E6CB44203D3032303349C4326002B680C36019618
:40410000B34241D32B6B6A689A420FD96B686F6A013B6B60FB0003936B6BFA009B185A686A6201221A70002F0AD12DE0013B2B63FFF7F8FE2B6B01332B630028E6D023E042
:404140000F23DA00AA18126C964201D2013BF8D21A00DB004433EB180F2A0DD81968002907D08C68002C04D061688E420ED9A168F5E701320833EFE73000FFF731FE00281A
:40418000DED03800FFF7A6FD002723E0636802939E1B2B6C0C339E4201D2029B01932000FFF7A8FD6B6B039A9B185C60019B019A63600023A360019B2760E1180B1F2461FB
:4041C0001A601300029A934204DA1300019A981AFFF7B2FD380005B0F0BDC04644920308002310B5984202D0FFF77AFF0300180010BD000037B50500FFF7F2FF041E0AD09E
:40420000FFF74EFE054B01901B682A000021984701A8FFF755FE20003EBDC04608460208514BF0B51B688FB0DA69D469A589A84208DBE189814205D32168451B099101211B
:40424000494215E0A168002900D184E00D88A84200DA80E04E8886427DD3451B4968A8B266688000081809960021455E0221415E0891691C6FD022215E5E2420195E069104
:40428000127E0A92A27C0A9951430C91227C0B922A229B5E1800079301F054FD324F0D903A680699D369926B300005920C9A5543099A551904950125A27C02950392DA7E5D
:4042C00001929B7E0B9A00930A9B01F0A7FE089B01331BD00220079B184301F033FD3B680899DA699B6B300005930C9B4B430999CB180493A37C02950393D37E0699019327
:40430000937E0B9A00930A9B01F088FE164D2B68DB695A7E1B7E9A4217D9079B022B14D00420584001F00EFD2B68069AD8690B99437E057E9B18827E51438A19C17E069813
:4043400069430918300001F059FD6B4634229B18187801F0F7FC044B617C1A68538CCB1853840FB0F0BDC046EC450208044B1B68DB69DB69002901D01A7C0A60587C7047F8
:40438000EC45020802230B80704710B5C3699A89914203DBDA8901208A4210D29B68181E0DD01A880020914209D35C888C4206D3891A5B688900C85AC04380B2C00B10BD74
:4043C000002807D003888B4202D843888B4201D28068F5E770470000F0B5334F8BB03B6804002A215A5EDB690100D8690792FFF7E7FF002855D00388E41A4368E4001E1903
:404400000798B47801F09EFC39680990CD6932782B7E08932423C85E84462223C85E896B089B059171680394049101210291E97E0191A97E0091614601F0F0FD3B68DB6922
:404440005C7E1A7E089294421FD9079A022A1CD0DD7E00F02FF9079000F026F900F0ACF93A682423D15E2223D05E2300D2696B43D47E32785B186243089C12186543691859
:4044800001F0BCFC079800F097F9099801F05AFC054B71781B68DA69927E4A43598C52185A840BB0F0BDC046EC4502080C4B70B51B680400DE690D000100F069FFF780FFB4
:4044C00000280CD002884368A41AE4001C196078B37E5843002D02D0227853432B6070BDEC45020801230B80704710B5C069FFF767FF431E9841C0B210BD0000F0B5150003
:404500000E0087B001938318234C0393019B0290CF18236839001B6E03985B689847029B39005B1B0493236804981B6E5B689847029B019AA9199F18AB190593236838005E
:404540001B6E751B5B689847236829001B6E38005B689847019B002B1BD0F61A236831001B6E03985B689847236831001B6E04985B689847029B019A05999E1A2368300059
:404580001B6E5B689847236829001B6E30005B68984707B0F0BDC046EC450208F7B50F00FA211400060018488900504305F0C6F82200431C62430093E30F1B195B10D318C8
:4045C00001932200002339003000FFF797FF0125009B9D4216DC23002A0063436A43D318019A9A4206DA23002A0039003000FFF785FF013C2A00230039003000FFF77EFFE3
:404600000135E5E7F7BDC046C3020000104B73B51B681600DA6C1B6D84186846B2B2CD18A3B2991A9B188380ABB20180991AD3184180C38002F0A8FD002807D0320029004D
:404640002000FFF7ABFF02F0EFFCF5E773BDC046EC450208FF2230B5040014400A40A21A92B213B2002B01DA524213B25B431D00FF23020A1A4014000A0A1340E21A92B286
:4046800013B2002B01DA524213B2000C5B43090C411A89B208B25B19002801DA494208B280B24043C01830BD10B501F01FFF01F025FE10BD10B501F021FF01F01FFE10BD2B
:4046C00070B500282CD0002926D0002A25D013880D881C1C2EB21BB2B34200DD2C1C048053884D881C1C2EB21BB2B34200DD2C1C448093888D881C1C2EB21BB2B34200DA29
:404700002C1C8480D388C9881A1C0CB21BB2A34200DA0A1CC28003E01100082205F035F870BD00280DD0038889B2CB180380838892B2C91843888180D3184380C388D2181C
:40474000C2807047024B1B685884998400207047EC450208024B1B681A7E187610007047EC45020830B503000222845E06200A5E0020944213DC02228C5E06255A5F944244
:404780000DDC00229C5E04254A5F944207DC00228A5E0421595ED00FCB179142584130BD10B501F095FF02F00FF802F06DFD10BD10B501F0E7FD10BD10B501F0EBFD10BD2B
:4047C000034B021E1B68D86900D0DA617047C046EC450208084B10B51880084B0A001980074B08491B685B7C9B005B58D9680C6A01001800A04710BD2C9303081C9303088B
:40480000EC45020854930308034B1B682C215A5E988510007047C046EC45020870B50024094D0A4E10C53368210028007022984733680422210006489847064B1D60064B01
:404840001C70064B1C6070BD4C4403080846020854930308EC4502083C93030818930308014BD8607047C046EC450208F0B50700160085B00C000420019301F063FA114B21
:4048800000901A68D36CDD199E19176D019B3C19FF1802AB18001D809E805C80DF8002F073FC002804D1009801F04CFA05B0F0BD3B0032002100280001F0A0FA02F0B4FB42
:4048C000EFE7C046EC450208002110B50800FFF739FF034A034813000100FFF7C7FF10BDFF3F000001C0FFFF024BDA6FD86742607047C0464C440308084B10B51A68002AC0
:404900000AD101321A60FCF7E3FDFCF71BFE0448044B0360FFF7E8FF10BDC0464C440308CC4403081D48081070B5FFF7E5FF2E22314B1A70FCF702FE304C314D2100314B50
:404940000C3123672B681A1DDA630432A2619B631B645B7C2C4A9B009858C3681B6B98472A4B6366EB6823622B680833A36101232377E37702F07CFD2300032268331A7073
:40498000234BE064606F6363A36301F0FBFCA86801F000FD1F4A204B1A6001F055FC050001F034FE060001F037FE002E01D0002808D101F01BFE060001F01DFE0100300093
:4049C00001F01EFE00210800FFF704FF02F0AAFCA36F002B0AD0A36F002B07D01B68002B00D09847A36F5B68A367F4E701220B4B28001A7070BDC0460D9303084C4403080A
:404A0000EC45020840D108105493030838D10810785634FF54D108104C930308349303080300002083420ADC054A9B009858002805D0C3681B68002B01D00068F7E77047B9
:404A40005493030810B5FFF715FA10BDF8B506000D0017001C1E01DD00201BE01C20FFF7E3FA0028F8D0002D01D005610BE00A4BA200D358002B06D01A68002A01D01300A2
:404A8000FAE71B690361002384618782C660036043608360F8BDC0465493030883690C499A0010B554580368A04204D15350002B01D000225A604268002A00D013600368F5
:404AC000002B00D05A6000230360436010BDC0465493030830B5002801D101203BE08269002AFADC1C4B19788A4201DB012119701A49920053580D00002B02D1505018005F
:404B000029E05968002901D00B00FAE7C1680968DC6824688C4203DD1B68002BF8D1DCE78C420AD1848A012C07D11C68002C04D02300E4682468A142F7DD5968002902D0C5
:404B40000860416000E0A85058600022984200D01A000260002030BD059303085493030870B51C00FFF772FF051E0AD0FFF7B2FFEB681B68002B04D1034B16341B68A400D1
:404B8000E550280070BDC046EC450208F0B5040087B0002800D17BE002F0C0FD3D4D02902B6822229B5E039302F0A2FD2A6883B20093938C00995B1A93842378002B5AD0A6
:404BC0003549200002F016FE01000600200002F03BFE304B1A680323918D19400300012905D00023022902D1C30F1B185B10518C04ADCB1A9BB219B25184298081B20191C4
:404C000001395B18AB802423D35E6A4617896B80013BFB182A0020003100EB8002F042FE1C4D04AB5B882A6820009384310000F0C7F8241823780A2B01D00D2B12D10321C2
:404C40002B689A8D0A40013A012A02D86A46928900E01A8C5A8422780A2A09D19A8CBF189F8405E004AA1088019A2B68101858842378002B0AD10321064B009A1B68988C45
:404C800010189A8D98848A439A8501E0013494E707B0F0BDEC450208FF7F000010B5034B1B6859849A84FFF771FF10BDEC450208F0B5324C8BB02568109EEC6CA2180292B1
:404CC0006A4620180090286D1288C318039308AB1A806A46128941189A806A460191928818005A806A469289DA8002F04DFA002842D07300049333007343019A0693039BE6
:404D00009B1A01330793079B049A934230DB009A029B9B1A049A01339A4229DC3500019C019B9B199C421BDC28006843069B181A02F0CCFC009B21009F19029B3F1A9B1BBA
:404D40001B181A003800059301F032F8039B059A991B4919380001F02BF80134013DDFE7039B029A9B1B013B2100009801F046F802F05AF90028C6D10BB0F0BDEC45020868
:404D8000044B10B51A68002A00D1186000F036F810BDC046DC440308F8B5084F06683B6804001B68300098473B6805005B6830009847301820602800F8BDC0464C93030814
:404DC00070B506000D000024002D08D0054B30001B68013D5B68984736182418F4E7200070BDC0464C9303080078704701207047012070470170012070470000034B10B592
:404E00001B68002B00D0984710BDC0463C4503080200FF231100000A194010B51840120C40181340C0188030FF30024904F086FC10BDC046FD020000002800D000487047F7
:404E4000FFFFFF0001207047F7B58068C46A856B624307245218D2080192026A0C409200002D18D080212141CCB2A446C94301248218151F019E2D68AD192F783E000E400E
:404E8000234201D066463E436400043A2E70E4B29042EED117E001210D00A540ECB2A446ED438218141F019E2468A41927783E002E400B4201D066463E434900043A2670FD
:404EC000C9B29042EED1F7BD70B5072584680D40E36AA06B5A43236A5218D2089B00002810D0802129410020CDB20121E318043B1E68B65C2E4200D008434900C9B29C4234
:404F0000F5D10EE001210E00AE40E318F5B2043B1E68B65C2E4200D008434900C9B29C42F5D170BDF8B50D0016000400FFF7CCFF070023699B6898473B00320043402900E3
:404F40002000FFF781FFF8BDF0B580688BB00090066AC06A5B1A42435F1CA44B5218D2081B680190039200981A7C806BD20779D50722082311405B1A002839D0F8321000DE
:404F8000DD1B0841AA40C4B21040C2B238009F4200DD1800381A009D0190B00028189F4200DB221CD3B29C46FF25031F039A1B689B183A00002905D064461A7862401A70F4
:404FC000019A0133072A05DD1E78083AF6431E700133F7E7002A06D00824A21A2C0094401E7866401E70009B04388342DDD1FAE0FF221000DD1B88402A41C4B21040C2B2B2
:4050000038009F4200DD1800381A009D0190B00028189F4200DB221CD3B29C46FF25031F039A1B689B183A00002905D064461A7862401A70019A0133072A05DD1E78083A1E
:40504000F6431E700133F7E7002A06D00824A21A2C0014411E7866401E70009B04388342DDD1C0E00722DB6B11401B68FF22019308230491591A130000285AD00498CC1B27
:405080000341A2401A40D8B2D3B23A008F4200DD0A00BA1A09928F4200DB031CDAB2DB435BB20893012307920293013E009AB300D458039B3D00E418049B002B0BD02278C3
:4050C000089B019902981340014201D0079B1343099D23700134072D14DD029A0199444B11404A1E91412B400593059A414B49421B68D2102000C9B206929847069BE418CA
:40510000059BED1A002D0DD0082321785D1BF733AB400A000198029D9A43284201D00B43DAB22270029B5B00DBB20293002EBCD159E00498CC1B834022411A40D8B2D3B287
:405140003A008F4200DD0A00BA1A09928F4200DB031CDAB2DB435BB20893012307920293013E009AB300D458039B3D00E418049B002B0BD02278089B019902981340014224
:4051800001D0079B1343099D23700134072D14DD029A0199164B11404A1E91412B400593059A144B49421B68D2102000C9B206929847069BE418059BED1A002D0DD00823F5
:4051C00021785D1BF7332B410A000198029D9A43284201D00B43DAB22270029B5B00DBB20293002EBCD10BB0F0BDC046EC450208F8FF000008460208F8B505000E001400A1
:405200001F00069B9C4207DC22003B0031002800FFF79AFE0134F4E7F8BD002382680B804B80D36A013B8B80136B013BCB80704700B58368481E0D2818D804F059FA090BBB
:405240000D0F17171711131A1A070707002011E0586A0FE0986A0DE0D86A0BE0186B09E0186A07E001201B6A984003E00120404200E0012000BD000009390020062902D880
:40528000014B8900C85870477CD1081010B501290FD1094B1B68587CFFF7C2FB03699B68984701F0F8F9054B012803D0044B082800D00023180010BDEC450208F0D10810C9
:4052C00064D2081010B5002206218069FCF772F910BD10B5002205218069FCF76BF910BD73B504000E00150000210822684604F072FA6A460321A06900960195FCF75AF92D
:4053000073BD0000F7B51D000F4B14001B6806001A7C0F00D20708D5A54213DB220039003000FFF7FFFD0134F6E7DB6B1B680193AC4207DC2200019B39003000FFF784FDF2
:405340000134F5E7F7BDC046EC450208F0B591B00193179B0390581E06910592072801D900F05EFC04F0CEF9230021005C041F005C045C045C0408000723069A134080220C
:4053800011001941C9B29A40099101219940D3B2199A0A939446019BC9B263440293059B07910893FBE2059B50E2059BB0E11A9A069B9446634409930723099A13408022AF
:4053C0001A41D2B20A9201229A40D3B20C93059B0793059A079B9B1A169A9A4201DC00F01FFC1B9BBE4C5B680693039B9B680293D96A1A6A079B5943099BC918CB08049327
:4054000003232168087C1840022800D1A1E0984200D10FE1012800D10CE11B9B06981B680893834210D1CB6B089A1D681A60099A019B09999B18013B079A0398FFF784FD71
:405440002368DB6B1D6043E1029B92009B6B002B3ED00127029B9E1808990FAA394011700699049B39405170321F12680A99D218019B1A989C46199B0B936346002B20D067
:405480008025054113780D930B9B1C782C40651EAC410FAD2D5D0D9C8C43002D01D00D9C0C4301301470082803D10B9801300B900020490801D10132803101235B429C441C
:4054C000DBE7029B7A00043ED7B2B342C4D1FFE00127029B9E1808990FAA394011700699049B39405170321F11681A98C918019B0C9A9C46199B0B936346002B22D080251A
:4055000005410B780D930B9B1C782C40651EAC410FAD2D5D0D9C9443002D01D00D9C144301300C70082803D10B9801300B9000205200D2B2002A01D10131013201235B42F0
:405540009C44D9E7029B7A00043ED7B2B342C2D1BEE0029B92009B6B002B34D0029B9A1801230893089B06990A9819400B91111F0968049B019D1A9C199EC918002D19D0F6
:405580008023234137783B4209D00B781F009C460B9B8743002B01D0674607430F700134082C01D100240136400801D101318030013DE3E7089B043A5900CBB20893029BF0
:4055C0009342CFD184E0029B9A18012308930899069B019D0B40111F08680B93049B0C991A9C199EC018002D1BD08023234137783B4209D003781F009C460B9B8F43002B8F
:4056000001D067460F4307700134082C01D1002401364900C9B2002901D101300131013DE1E7089B043A5900CBB20893029B9342CDD14DE0029B92009B6B002B23D0029BE6
:405640009A18111F0968049B0A9C019D1A98199EC918002D12D08023034137783B4202D00F7867400F700130082801D100200136640801D101318034013DEAE7029B043A71
:405680009342DED124E0029B9A18111F0868049B0C99019D1A9C199EC018002D14D08023234137783B4202D007784F4007700134082C01D1002401364900C9B2002901D15C
:4056C00001300131013DE8E7029B043A9342DCD1189A199B944663441993079B013377E6EC4502081A9A199B944603221C78069B63440493C34B1B681B7C134010D0022B7A
:405700004DD0189A199B944663441993029B01330293059A029B9B1A169A9A42E2DC7FE21B9B1A9D199E0499002B23D003235A1B5200DB18981ABA3303412340D3401B9AEA
:405740009B009B580398029A01354F1CFFF77CFB042D02D1002574780136019B049A39009B189F42E2D1CCE7019B049A39009B189F42C6D003235A1B5200DB18981ABA3381
:4057800003412340D3400398029A01354F1CFFF75BFB042DE8D1747800250136E4E71B9B1A9D019E199F002B27D0019B049A991803235A1B5200DB18981ABA330341234017
:4057C000891BD34006D01B9A9B009B580398029AFFF73AFB0135042D02D100257C780137013E002EE1D18CE70135042D02D100257C780137013E002E83D0019B049A991824
:4058000003235A1B5200DB18981ABA3303412340891BD340E8D0029A0398FFF715FBE3E71A9A199B944603221F78069B63440493744B1B681B7C134010D0022B4DD0189AE7
:40584000199B944663441993029B01330293059A029B9B1A169A9A42E2DCE1E11B9B1A9C199D0499002B23D001231A1B9200CE180333981AEC3303413B40D3401B9A9B000D
:405880009B580398029A0134FFF7DEFA022C02D100246F780135019B049A31009B189E42E2D1CCE7049B019A31009B189E42C6D001231A1B9200CE180333981AEC33034165
:4058C0003B40D3400398029A0134FFF7BDFA022CE8D16F7800240135E4E71B9B1A9C019D199E002B27D0019B049A991801231A1B92000333981AEC3303413B40491BD34018
:4059000006D01B9A9B009B580398029AFFF79CFA0134022C02D1002477780136013D002DE1D18CE70134022C02D1002477780136013D002D83D0049B019A991801231A1BF9
:4059400092000333981AEC3303413B40491BD340E8D0029A0398FFF777FAE3E7039B08989B680193019A1B6AD16A4143069809180320C9080491234909680B91097C0140FD
:4059800014D0022900D1ABE0189A199B944663441993089B01330893029B63440293059A089B9B1A169A9A42D8DC39E1019A1B98916B9B0000284ED0002925D00124D318F4
:4059C000191F04980968199D09180998029A954211D02E780F781B9AB600B2583E008643224201D03E0006430E70400801D1013180300135EAE7019A6400043BE4B29A4200
:405A0000DED1C1E7EC4502080124019AD318191F0868049A199D07998018029A954213D02E7807781B9AB600B2583E008E43224201D03E000E434900C9B20670002901D1FD
:405A4000013001310135E8E7019A6400043BE4B29A42DCD198E7019A0124D318002938D0191F0968049A199D09988918029A95420ED00F782A783E008643224201D03E00D3
:405A800006430E70400801D1013180300135EDE7019A6400043BE4B29A42E1D174E707782A783E008E43224201D03E000E434900C9B20670002901D1013001310135029AFE
:405AC0009542ECD1019A6400043BE4B29A4200D15AE7191F0868049A199D80180799EEE7019A9B00916B1B9A002A4FD0019A0124D318002937D0191F0968049A199D09989E
:405B00008918029A954213D02E78002E0AD00F781B9AB600B2583E008643224201D03E0006430E70400801D1013180300135E8E7019A6400043BE4B29A42DCD124E72E7874
:405B4000002E17D14900C9B2002901D1013001310135029A9542F2D1019A6400043BE4B29A4200D110E7191F0868049A199D80180799EEE707781B9AB600B2583E008E43FD
:405B8000224201D03E000E430670DBE7019A0124D318002934D0191F0968049A199D0A988918029A954210D02A78002A07D00F783E008643144201D03E0006430E704008D9
:405BC00001D1013180300135EBE7019A6400043BE4B29A42DFD1D7E62A78002A17D14900C9B2002901D1013001310135029A9542F2D1019A6400043BE4B29A4200D1C3E660
:405C0000191F0868049A199D80180799EEE707783E008E43144201D03E000E430670DEE711B0F0BD70B505680400002D0AD13C20FEF7FAF92060002804D0044B3C221B68E0
:405C40002900984720684342584170BD0846020870B504000830FFF7E5FF002205000121A069FBF7A7FC284370BD73B504000D00160000210822684603F0ADFD20000830FA
:405C8000FFF7D0FFA368002B0CD05A6B002A00D15D635D629E626A460721A06900950196FBF788FC73BD70B5050008300C001600FFF7B8FFAB68002B02D0DC621E635C635C
:405CC00070BDF7B50500002708300E000197FFF7A9FFAC68BC4213D02B699B68984700F0A1FC3B002062F258E2500433202BFAD1E36A01AA63630221A8690196FBF75AFCD4
:405D0000F7BD70B5040008300D00FFF78BFFA368002B01D02A689A6370BD000070B5084B1B681A7C11004140490705D59C6BD96B25680E6826600D601874100070BDC046A1
:405D4000EC45020810B5024B1B689B68984710BDFC45020870B5144B05001B680A000A20195E91421EDC0E20195E8A421ADC0820195EA94216DC0C20195E8D4212DC5C7CBA
:405D8000187C0A49A400C00705D508592900C368DB69984706E00859DB6BC1681B688C692900A04770BDC046EC4502085493030870B5104B0D001C680A21635EAB4217DC64
:405DC0000E21635E9D4213DC0823E15E814200DA01000C20235E934200DD1300994207DC627C054892001058C26894682A00A04770BDC046EC4502085493030873B51E00AB
:405E0000114B0D001C680823E15E814200DA01000C20235E934200DD13008B4213DB0A20225EAA4200DA2A000E20255EB54200DD3500AA4207DC607C044C80000059C468EC
:405E400000952469A04773BDEC45020854930308F0B517006E4A91B01268069308900C001C9B002A10D01B9B05931A9B0493199B0393189B0293179B0193169B009315685C
:405E8000069B3A00A847C1E016991798014301294FD1604A069D10680A21425E111B002909DD6D1A002D00DCB0E0199E71431A9E71181A9100E02200069964180E26815F18
:405EC000013C641A002C03DD2D1B002D00DC9DE008990C26845FC9190139091B002900DD7F1A08990826845FC91AA1420CDA641A1B199C46DE101A9B3F1B9E191A960726F5
:405F00006346B44309193340002F7FDD407C424C800000591B9EC46804931A9B05960393199B00950293189B019364683B00A0476CE00823160018990A925B1A0E930A9B74
:405F4000069A934262DA179BE3180C93013B0D93304B1B680A215A5E0D998A424CDC0E229B5E9C4248DC00251A9B09950B93089B0793099BBB423FDA002D04D10B9B0835B0
:405F80001E7801330B9333000E9A1899134132008A40D6B2DAB26D1A002A05D102211D4A1268127C0A421ED11A4A1268D26B11680F911B99002905D0FF210B401B999B0095
:405FC0005B5801E0FF210B401360169B21005A1E079B0798D2180D9BFFF710FF0D4B0F9A1B68DB6B1A60169A099B944601330993079B63440793BCE7199A0A9B94460133DF
:406000000A931A9B0C9C63441A9398E711B0F0BD10930308EC45020854930308F0B593B008937E4B06001B680C0006921A9D1C9F002B0ED01D9A049705921B9A029503928C
:40604000199A0192189A00921D68069A089BA847E1E0189A19990A43012A6DD1704B19680A228B5E089A9C461B1B002B07DDD21A002A00DCCFE01B984343FF1800E0A4462F
:40608000089BE4180E200B5E013CE41A002C03DD121B002A00DCBEE0069B0C24085FF318013B1B1A002B02DD0698C31A06930823C85E0023864228DA069C831BE41A0694AA
:4060C000082D1FD009DC022D0FD0042D15D0012D1BD1D8103F1807200AE0182D11D0202D0FD0102D11D15B000CE098103F1803201C0084433619034007E058103F180120F3
:40610000F6E79B00FF18060000230698002800DC81E0497C4348890008581D9CC16804931B9B009202930594039701954C68069B62463100A0476EE00822521B1092079316
:406140000C930C9B089A934265DA199BE3180E93013B0F93324B1B680A215A5E0F998A4252DC0E229B5E9C424EDC00230D9709960A930B930B9B069A934245DA0A9B002B94
:4061800007D10D9B1B7807930D9B01330D9308230A93079B109A1341079AAA40D2B207920A9A521B0A92DAB2002A05D102211C4A1268127C0A421ED1194A1268D26B11680E
:4061C00011911D99002905D0FF210B401D999B005B5801E0FF210B401360189B21005A1E099B0998D2180F9BFFF708FE0C4B119A1B68DB6B1A60189A0B9B944601330B93B1
:40620000099B63440993B5E70C9B0E9C01330C931B9BFF1895E713B0F0BDC04610930308EC4502085493030810B5054B054A19684B7C08319B009858C3681B6B984710BD50
:40624000EC4502085493030807B5FFF7EDFF00F0B7F800283AD1FEF7E3FB0190002807D100F006F91A4A1B4B12689A420ED12CE0C3680C215B6A01A8984703000120002B2F
:4062800024D0019898470028EAD01FE00020FEF7C7FB0190002818D0002001F051FB0420FFF750FD00210C4B08001A00FFF7A6FD0020FFF747FD019B0E21DB6801A85B6A4C
:4062C0009847031E01D00198984700200EBDC046C0440308785634FFFF3F000010B5054B054A1B685B7C9B009B581B691B68984710BDC046EC4502085493030810B5054BCF
:40630000054A1B685B7C9B009B581B695B68984710BDC046EC45020854930308044B1B681A7C520701D59B6B00E0DB6B18607047EC450208054B10B51B681A6B824204D01E
:406340001863FFF7CBFFFFF7E9FF10BDEC450208044B1B681A7C520701D5DB6B00E09B6B18607047EC450208054B10B51B685A6B824204D05863FFF7B1FFFFF7E9FF10BDCE
:40638000EC45020810B5024B1B685B68984710BDFC45020810B5024B1B681B68984710BDFC45020810B5044C2068FDF763FD0023024A2360136010BD60930308444503088F
:4063C00070B500240A4D2B68A3420FD1094B18688000FDF729FE2860A04206D00648074B04300360FEF780FA00E00124200070BD609303080046020844450308A5630810FC
:40640000F7B5051E28D08768381E25D0134C2068002821D080232A685B0000209A421BDC0F4B00921B689A4200DD00930026009B9E420ADA2268B300D218F8580192FFF798
:406440004DFF019B01361860F1E7064B1B68002B01D0280098472068FEBDC04660930308004602084445030810B5FFF7C9FF10BDF7B500F025F900240090009B9C422EDA6C
:406480002000FEF7CDFA002827D0154E200033685A7C5C74019200F056F8082804DD6A46336812795A7418E00E4AA300D2580E4B12699A42F3D0200000F04AF80025070089
:4064C000BD42ECDAFF202840FFF718FFE9B20200200000F01FF90135F2E70134CDE7F7BDEC45020854930308D8D10810024B1B689B6B18687047C046EC450208024B1B68C6
:40650000DB6B18687047C046EC45020810B50C00FEF786FA002803D0C2682100926A904710BD002310B5984202DCFFF7EFFF0300180010BD10B501000020FFF7E7FFC3433D
:40654000DB17184010BD10B50821FFF7EAFF10BD10B50921FFF7E5FF10BD10B50E21FFF7E0FF10BD10B5034B1B68587CFFF7F0FF10BDC046EC45020810B5034B1B68587C77
:40658000FFF7EBFF10BDC046EC450208044B800010B5C0580821C3689B6A984710BDC0465493030810B5FEF73BFA002803D0C2680221D26A904710BD10B5034B1B68587CC3
:4065C000FFF7F0FF10BDC046EC450208024B8000C3581B695868704754930308024B8000C3581B69186870475493030810B50120FFF7A0FF10BD10B50220FFF79BFF10BDB2
:40660000014B03C37047C04650450308014B18687047C04650450308014B58687047C046504503080023984233D0020001339A432FD003220100013391432AD001000533E6
:4066400099431300002924D002000C339A430B3B002A1ED002001B339A431A3B002A18D00200FA339A43F73B002A12D0420A0833002A0ED0020B0CD0C20B0AD0020C08D0AF
:40668000820C0233002A04D0000E0633002800D008331800704710B5FFF7C4FF030001280DD0821E0820062A09D9073A0018072A05D900200F22113B9A424041400110BDFF
:4066C00010B50020FEF7ACF9431E984110BD00000E4B10B51C001A680D49527C92005058002809D0C368002B02D01B68042B01D00068F5E7FEF7D2F900222368DA651A0044
:4067000008325A61FFF790FD10BDC046EC4502085493030837B50C001500FEF781F90190002801D101200BE0C36810215B6A01A89847031EF6D001982A002100984700205B
:406740003EBD37B50C001500FEF76AF90190002801D101200BE0C3680B215B6A01A89847031EF6D001982A002100984700203EBD13B50C00FEF754F90190002801D10120F7
:406780000AE0C36809215B6A01A89847031EF6D0019821009847002016BD37B50C001500FEF73EF90190002801D101200BE0C3680A215B6A01A89847031EF6D001982A00BD
:4067C0002100984700203EBD10B5074C2368186BFFF784FDFFF7A2FD2368586BFFF77EFDFFF7B6FD10BDC046EC45020870B50024134B144D1C60144B14481C60144B047048
:406800001C60144B44601C60134B84601C60134B21001C60124B18221C600C302B689847104B21001C60104B08221C600F482B6898472B68082221000D48984770BDC046DC
:406840009093030808460208789303085845030898930308A0930308689303088893030894930308749303086C930308AC930308A4930308F0B504000D00160085B0002C2D
:4068800050D02000FDF70CFB0223876A010001901F4241D002AC002E04D03200200000F0E1FE02E0230005C905C321002800FDF759FF002830D00122019B17421FD1002E24
:4068C00009D05A887188131C08B212B2824200DA0B1C1BB201E002229B5E0222A95E06202A5E8B4205DD0221635E9A4214DB013B03E00621635E9A420EDDEB800CE0DF6903
:40690000002F09D0380022002900FFF7B3FF3800FDF7BCFA076AF3E7019B01A81C6AFDF7CFFAACE705B0F0BDF0B504000F00002687B00192002C39D02000FDF7B1FA0223B9
:40694000856A010003901D422AD0019B04AC002B04D01A00200000F085FE02E0230005C905C321003800FDF7FDFE002818D001231D4204D1A388012601333B8010E0039B29
:40698000DD69002D0CD0220039002800FFF7CCFF002800D001262800FDF778FA056AF0E7039B03A81C6AFDF78BFAC3E7300007B0F0BDF0B504000E00170085B0002C34D098
:4069C0002000FDF76DFA0223856A010001901D4225D002AC002F04D03A00200000F042FE02E0230005C905C321003000FDF7BAFE002814D001231D4203D12388013BB380D2
:406A00000DE0019BDD69002D09D0280022003100FFF7CFFF2800FDF739FA056AF3E7019B01A81C6AFDF74CFAC8E705B0F0BD0000F7B506000D0002272800FDF731FA846A77
:406A4000010001903C4004D101A8FDF739FA230013E0300000F0E8FD019B01A89C69002C07D1FDF72DFA064B1868401B4342434103E0FDF725FA2500DEE71800FEBDC046F1
:406A80006C930308F0B5040085B00D1E4DD0FDF707FA00230190036285612800FDF700FAC6690290002E05D1C46101A8FDF708FA02A838E0019B30009D6A0827FDF7F0F972
:406AC0003D4003900ED1836A3B420BD0019B01A81E62029BDC61FDF7F3F902A8FDF7F0F903A820E002A8FDF7EBF903A8FDF7E8F93000FDF7CBF908270390039B1E6A002EB1
:406B000001D11C620EE03000FDF7C0F9002D07D1836A3B4204D0039B1C62019B1E6201E00390EAE701A8FDF7CBF905B0F0BD030010B5080002215A5E0021595EFDF7F1FD52
:406B400010BD0000114B30B51D6885B0696C0400002916D0082202A802F017FE0C4B1868002800D1A86CFDF79BF902A90190FFF7DEFF01A8FDF7A4F902A8210000F054FDC9
:406B800002A802F0E9FC05B030BDC046EC450208689303081FB5104B1B681A0054321278002A02D00D48143012E0986CFDF778F902AC2300019006C806C301A8FDF780F990
:406BC000074B1968002902D02000FFF731FF2000FFF7B8FF1FBDC046EC450208584503086893030813B5041E22D0FDF759F9836A01909B0719D5406A002808D00D4B1B6834
:406C00009C4204D000F01EFF0022019B5A62200000F034FC0400002C07D02000FFF7E2FF2000FDF733F9046AF5E701A8FDF748F913BDC0469C93030803000022815E04203D
:406C40001A5E0020914207DC02215A5E0621595ED00FCB179142584170470000F0B585B004000E001500FDF711F9876A0190BB0730D53000FFF7E0FF00282BD0164B3B40DD
:406C8000012B27D02000FDF70BF902AC020001903100200000F0E6FC2000FFF7CDFF002815D0019B0D4918009A6A08300A4204D022000100FDF704FD09E042CC42C02A4362
:406CC0009A62074A138801331380FEF797F801A8FDF7F6F805B0F0BD01080000204000007C93030810B52022FFF7B8FF10BD7FB504000E001500002828D0FDF7D1F8836A4B
:406D0000020001909B0703D401A8FDF7D9F81DE0310002A800F0A6FC0028F5D001A8FDF7CFF820002A0002A9FFF798FF200000F0A5FB0400002C09D020002A0002A9FFF7F8
:406D4000D6FF2000FDF7A2F8046AF3E77FBD0000F0B587B007000D0001921C00002932D00800FDF79DF8866A02000390B30727D5390004A800F076FC002821D0134B1E405A
:406D8000012E07D1039923000A6A04A88969FFF7DFFF04E0220004A92800FFF75FFF039BDD69002D0CD0019B9D4209D02800220004A9FFF79CFF2800FDF768F8056AF0E76D
:406DC00003A8FDF77DF807B0F0BDC0460108000010B52023FFF7BCFF10BD1FB500916946019000F011FB05B000BD00234B800B80028883889B1A8B80C38842889B1ACB8090
:406E000070470000F0B5050087B00F00002835D0FDF746F8866A0190B3072CD504AC230006C806C3F30302D52800FFF7DBFE002F0CD00822390002A802F0A7FC02A90198F1
:406E4000FFF775FE02A9200000F0EEFB29002000FFF7EEFD00280ED0094B1E40012E06D1019B20001A6A9969FFF7B2FF03E021002800FFF737FF01A8FDF722F807B0F0BDC1
:406E80000108000010B50021FFF7BCFF10BD000070B50B4C051E23689E6C01D1094A15689D64FFF7C1F92800FCF7F0FF23680021425EDA640221425E30001A6570BDC046A5
:406EC000EC45020880930308F0B585B00193494B05001F680A9B0E000092002B27D1464B1B88002B28D0454B1B685A1C012A23D90A930A98FCF7D4FF03900022835E02227D
:406F0000815E009AED187618002A04D10424025FD21A531C0093019B002B04D10622835E5B1A0133019303A8FCF7CAFF04E00A9B0133DED100230A930D982C30FDF75AF912
:406F4000041E53D02C4A0B9B1F43138801331380FCF7A6FF009B02900580ED18019B4680F6180C9B826A0361254B013D3B401343013E83628580C68002A8FCF7A1FF214B9F
:406F80001868002809D0FCF781FF05002000FCF77DFF6B6943616C6100E01C600A992000FFF770FDBB0602D52000FFF771FFFB0703D5154A1368013313607B0602D5200091
:406FC00000F06AFA02252F420CD02000FCF768FF836A02902B43836202A8FCF771FF2000FFF750FF01212000FFF7F7FE200005B0F0BDC04688930308649303086C93030824
:407000009F3F3F0080930308A09303081FB5089C0394079C0294069C019400240094FFF753FF04B010BD00000020F0B5534E85B0336854331B78834200D19DE0504A136A5D
:407040001500012B02DD013B136295E002AC2100D36914320133936081CA81C1002B03D1AB892380EB890DE02B8B01331BB22380EA8A628010216A5E9A4204DAAB89238054
:407080006B8B013363800223E25E12216B5E9A4204DD2B6A0020013B2B626DE03368986CFCF7FEFE0023E25E0C216B5E01909A4217D16B8AE3802B8AA38033689A6C002AA3
:4070C0000AD01000FCF7E2FE070000222100006AFFF7D0FBBA69F2E7019B2100D869FFF7C9FB2388A38033689A6C002A0CD01000FCF7CCFE002207002100006AFFF714FCAE
:407100000028EED1BA69F0E7019B2100D869FFF70BFC0028E5D11022AB5E0021625EA3809A4208DD2B002200143303CA03C301A8FCF7C6FEA2E733689A6C002A0AD01000D0
:40714000FCF7A4FE060000222100006AFFF731FCB269F2E7019B2100D869FFF72AFC01A8FCF7AEFE074BEA699A4292DC14350CCC0CC5FFF70FFD012005B0F0BDEC450208AD
:4071800058450308204E0000F0B53B4D89B02A680700130054331B78002B03D1FFF7FAFC012066E00120354E336A34000133336283425EDC906CFCF773FE01235B42F36189
:4071C0002F4B02901B78002B02D004AB083005E00223826A1A4001920AD004AB06C806C304AE002F0CD03900300000F01DFA07E0336A02A8013B3362FCF762FE019838E0D9
:407200002B68204F596C02A8002918D0029B082206A8039302F0B9FA3B68002B06D003A8FCF74EFE3868FCF73BFE039006A90398FFF77DFC300006A900F0F6F903A8FCF71A
