:020000041000EA
:4000000000400208310100100D000000950100100000000000000000000000000000000000000000000000000000000091010010000000000000000091010010910100109B
:400040009101001091010010910100109101001091010010910100109101001091010010910100109101001091010010910100109101001091010010910100109101001060
:400080009101001091010010910100109101001091010010910100109101001091010010910100109101001091010010910100109101001091010010910100109101001020
:4000C00010B5064C2378002B07D1054B002B02D0044800E000BF0123237010BD44130008000000005C5F0010084B10B5002B03D00749084800E000BF07480368002B00D15A
:4001000010BD064B002BFBD09847F9E700000000481300085C5F001048020008000000007047EFF3108072B6704780F310887047FFF7F6FF72B6104C104DAC4209DA21687C
:400140006268A368043B02DBC858D050FAE70C34F3E70B490B4A0020521A02DD043A8850FCDC094809490860BFF34F8F00F01AF900F01EF8FEE70000FCA3011014A401104F
:40018000441300084C2000080000000808ED00E0FEE7FEE700B504207146084202D0EFF3098001E0EFF30880043002F0FFF9FEE710B562B60C4B5B689B0301D502F0A0F96A
:4001C000002000F055FB002803D1084800F05EF903E03F21064802F0B5F9002002F008F905F098FFF9E7C0460000264000000810784F001070B56249E0239B00CB580F223F
:4002000013401A00D0329200525807210A40032A05D0042A06D0002A12D15A4814E05A4A106811E01A00C0329200554952581F210A40112A06D0132A04D0FA20C00103E09B
:40024000524801E080200002002B36D14C4BB222D2009A5801211140B125ED005A59120F032422405B591B0F1C4207D0444C63591B0F03242340012B02D102E0012300E075
:400280000023002B01D0002901D1032A4BD13C4BB022D2009D58AD03AD0B3D495958C904C90C9C58240E01231C40013403F0A2F86843210003F09EF835E0012B33D1304BFD
:4002C000C822D2009A5801251540C024E4001A59120F03210A401B591B0F194207D028490B591B0F03210B40012B02D102E0012300E00023002B01D0002D01D1032A12D1BA
:400300001F4DC022D200AB587F210B40A958090A1F263140AC58240C3440584303F06AF8210003F067F8E0239B00154AD3581B0903221340D840144C6060164B1D692D0AC0
:40034000FC32154001351969090E013103F052F8A060290003F04EF80500E06020610E4BC0180E4903F046F820750D4BE818FA21890003F03FF8A061C003E06170BDC046E8
:400380000000264000127A00C000000800366E0184050000000021403F420F0040420F00E703000010B5234BB021C9005A58520052085A50E02080001A583024A2431A507F
:4003C000802252045A501C491C4A9950A021890104329950FF211A4A995081315A58920092088020C00502435A505A588020000602435A505A58012082435A5000F08AF9F0
:40040000FFF7F8FE00F06EF800F076F801F078FAB0235B055B78002B04D0B0235B055B78DBB200E02123212B03D1064B0022DA605A6010BD000026400100020084050000B7
:400440008C050000E00023408023024AD3580320184070470000214010B5FFF762FE084980228C58074B2340074C23438B508823034AD358DB06FAD5FFF757FE10BDC046CF
:4004800000002140FCFF00000100FA0570B50500FFF747FE0400FFF7D7FF032801D1FFF7DBFF0A4AB0239B00D55080215058084B03400848034353508823044AD358DB06DA
:4004C000FAD52000FFF731FE70BDC04600002140FCFF00000300FA0510B5002000F02EFE10BDC04610B5034A8021042000F02EFB10BDC0466013000810B50748103000F001
:400500002BFC02F0BEF80400044800F097FC200002F0BBF810BDC04660130008844F0010FEE7C046014A024B1A60704701001180000E1F4170B586B0634A116808230B4375
:400540001360624C03E0012001F0F0FF013C5E4B1B695B0701D4002CF5D1002C01D15C4B00E00023002B02D00520FFF7D9FF594EA021C900735803229343023A13437350FF
:4005800001AD554C03322100280004F0AAFC280002F0EAFD514A9020135851490B40135013691B021B0A8020400403431361136919401161E0239B00F2580F218A43F2500B
:4005C000F25821318A43F250F258802109060A43F2500021012000F02BFE0021022000F027FE0021032000F023FE0021042000F01FFE0021002000F01BFE2B00211D15C9DC
:4006000015C305C905C3280000F05AFE002802D00420FFF785FF2F49324A8B588020000603438B50304800F003FF002802D00420FFF776FF274C2D4BE1582D4A0A40E2509C
:40064000E1582C4A0A40E250E25880252D062A43E250043BE158284A0A40E250E158274A0A40802189010A43E250E258802109020A43E250144A1168214B0B401360002014
:4006800002F006F81F4BE2582A43E250E158012291430A43E2506421002001F09FFF1A4B00211A4A99508021090158580C4A02408C20800102435A508022D2001449995088
:4006C0009B5806B070BDC0460000274020A1070002004A0000002640C04F001000002140FF00FFFF087F0000400D030004050000FEFCFFFFFFFF00FFFFF0FFFFFF8FFFFF72
:40070000FFFCFFFF0C05000000000140140C000000FF0080F0B58FB09621002001F05EFF01F034FF002814D101F020FFC0235B00434AD358DB0705D41100424A8B585B00F9
:400740005B088B503E493F4A8B588020000603438B50012001F000FD3B4A516C3B4B0B40E82189010B435364536C1B0AFF2213403A2B07D1344A516C354B0B40E821890199
:400780000B43536401AC34220021200004F0B2FB304E22000021300001F086F934220021200004F0A7FB22000121300001F07CF9FFF7C0FE284D22002B00183383CB83C293
:4007C00083CB83C283CB83C22100300001F0D6FA22002B003C3343CB43C243CB43C243CB43C221001D4801F0C9FA22002B00603343CB43C243CB43C243CB43C221001848F8
:4008000001F0BCFA2200174B043343CB43C243CB43C243CB43C22100134801F0AFFA22002B003C3323CB23C223CB23C223CB23C221000E4801F0A2FAFFF774FE0FB0F0BDFA
:40084000000026400C05000000002740FF00FFFFFFC5FFDF00003240C04F0010800032408002324040500010000332408005324010B5084B1B78002B06D1074801F090FFFC
:400880000122044B1A7000E00020002801D101F097FF10BDF0140008E000000810B583089A00801AC000FF228240D44381400A40072B32D89B001949CB589F46184B196A8A
:4008C0000C4022431A6228E0154B596A0C4022435A6222E0124B996A0C4022439A621CE00F4BD96A0C402243DA6216E00C4B196B0C4022431A6310E0094B596B0C402243E6
:400900005A630AE0064B996B0C4022439A6304E0034BD96B0C402243DA6310BD685000100000214083089A00801AC100FF228A40072B2BD89B001748C3589F46164B186A36
:400940001040C84023E0144B586A1040C8401EE0114B986A1040C84019E00F4BD86A1040C84014E00C4B186B1040C8400FE00A4B586B1040C8400AE0074B986B1040C840E6
:4009800005E0054BD86B1040C84000E00020C0B27047C046885000100000214070B504000D000B4B9A680B4B9A420BD1002903D1FC21094801F0C6FD1034064BA400E058C3
:4009C000E55003E01034A400044BE05870BDC04600ED00E000000008A850001000000010F0B583B0041E019150D04368032B03D93621294801F0A6FD0023E05E002802DB2D
:400A0000A178FFF74BFF0023E25E6368002A12DB9008224EC0308000875903210A40D200FF25290091408F4399012B000B4093403B43835117E092B20F21114008398908CD
:400A4000063189001648844661444E6803200240D200FF2738009040864398013B000340934033434B600E4B9A680E4B9A420FD1019B002B03D14521074801F063FD0023C6
:400A8000E05E0199FFF78AFF002002E0064800E0002003B0F0BDC046A850001000E100E000ED00E0000000080100560070B504000D000369002B0ADA0B0C03D005490648FD
:400AC00001F040FD2D042D0C6560002000E0034870BDC046B3020000EC50001001008A0070B505000C000368002B01DA002300E0084B002B0BD1EA60230C03D006490748A1
:400B000001F020FD2404240CAC60002000E0014870BDC04601008A009A020000EC50001070B505000C1E03D19921064801F00AFD2B69002B03DAEB682360002000E0024870
:400B400070BDC0462C51001001008A00F8B504000E0015000F283FD8002A10D100290ED10F2804D9AA21FF31214801F0EBFC6401204B9C466444204B1C60002037E0002D00
:400B80002CD0002E2CD0F3062CD10F2C04D9AA21FF31174801F0D6FC6401164B9C466444154F3C607E60BD60F2080021280004F0A1F900212000FFF779FF3A0001CA0021F3
:400BC000FFF78EFF00280FD10B4B18680021FFF76DFF00280AD10AE0084808E0074806E0064804E0054802E0054800E00448F8BD6C51001000002340F414000803018A005A
:400C000001018A00F0B583B00D001C4B1B68DC68236883422DD947097B01C01A012383401E00002903D101F02CFD019001E000230193124B18680368002B01DA002300E083
:400C40000F4B002B0ED16368BF00DF193B68334203D133433B60002400E00A4C0021FFF725FF00E0084C002D04D1019801F00DFD00E0064C200003B0F0BDC046F41400086A
:400C800001008A00020188000301880004018A00F0B583B00D001C4B1B68DC68236883422DD947097B01C01A012383401E00002903D101F0E6FC019001E000230193124B99
:400CC00018680368002B01DA002300E00F4B002B0ED16368BF00DF193B68334203D0B3433B60002400E00A4C0021FFF7DFFE00E0084C002D04D1019801F0C7FC00E0064C9B
:400D0000200003B0F0BDC046F414000801008A00020188000301880004018A000A4B1B68DA68136883420BD943095901401A0121814052689B009B580B4203D0034802E036
:400D4000034800E003487047F41400080101880004018A0000018800034B1B68002B01D1014B18607047C04600150008F0B5474680B404000F0090461E002B4B1B68002B97
:400D800003D1B421294801F0DDFB072C03D9B521264801F0D7FB244B1B682C2060431C18FF22150035402560330A13406360330CA3600F2D04D9AA21FF311D4801F0C2FB39
:400DC0006B011C4A94466344236165680F2D04D9E2214900164801F0B5FB6D01164B9C4665446561A668330C04D0F1214900104801F0A8FB330C04D0E421FF310C4801F0D6
:400E0000A1FB3604330C1E43AE604346E36127620023A361069B002B02D000229B5EA38104BC9046F0BDC04600150008AC5100106C5100100000234000102340F0B58FB0DA
:400E4000041E03D150212E4801F07CFB6368032B03D952212A4801F075FBE36A002B03D15621274801F06EFBE368072B03D95721234801F067FB236A072B03D9582120487B
:400E800001F060FB236B002B03D159211C4801F059FB07AA1300210061C961C321C921C302AD290023001433C1CBC1C141CB41C10821535E0CAE3380079B1933B370089BDC
:400EC0000D930B9B0A980096A26AE16AFFF74EFF2B69E868002200920021FFF747FF216B3000FFF77DFD0023F25E002A05DB1F231A401E3B9340034A13600FB0F0BDC04642
:400F0000AC51001000E100E0F8B504000F0016001D00002A03D1FD21284801F013FB284B1B68002B03D1FE21244801F00BFB072C03D9FF21214801F005FB072F04D98021B1
:400F400049001E4801F0FEFA1D4B1B682C2120004843181879435918012213004C68A3401B044468A24014000269002A20D08F69002F1FD11268002A01DA002200E0114A93
:400F8000002A19D132681204120C134333600369DE6001238B614D620569230C03D00A490A4801F0CFFA2204120CAA60002004E0074802E0074800E00648F8BDAC5100106C
:400FC0000015000801008A009A0200006C51001004028A0007028A0070B504000D001600134B1B68002B04D16221FF31114801F0A9FA072C04D9B12149000E4801F0A2FAE2
:401000000B4B1B682C2060431C18236A002B04D1B3214900074801F095FAE369B34204D9236AB6009D51002000E0034870BDC04600150008AC5100100A028A0070B5040085
:401040000D000B4B1B68002B04D19421FF31094801F078FA072C04D9CA214900054801F071FA034B1B682C2060431818856270BD00150008AC51001070B582B00400002358
:401080000193002804D1EA2149002B4801F05AFA2369002B04D1D621FF31274801F052FA6369002B04D1EB214900234801F04AFA236A002B04D1D821FF311F4801F042FA29
:4010C0006269D5682B0C1FD01B041360136820690369002B18DA01A9FFF722FD00280ED1019803681E0CFF221340E269934207D29B00226AD358002B02D0984700E000260E
:4011000031002069FFF7D2FC2D042D0C0FD063691D601B68636A002B03D098470023636203E0A36A002B00D098470023A36163691B6802B070BDC046AC51001010B504008F
:401140000B4B1B68002B04D1DA214900094801F0F9F9072C04D9B621FF31064801F0F2F9034B1B682C2060431818FFF785FF10BD00150008AC51001010B50400114B1B68D4
:40118000002B03D11049114801F0DCF9072C03D90F490E4801F0D6F90A4B1B682C20604318180C23C25E002A0ADB1F231A401E3B9340802207498B50BFF34F8FBFF36F8F11
:4011C000002010BD001500082D020000AC5100102E02000000E100E010B504000F4B1B68002B03D10E490F4801F0ACF9072C03D90D490C4801F0A6F9084B1B682C206043C1
:4012000018180C23C25E002A05DB1F231A401E3B9340064A1360002010BDC046001500084D020000AC5100104E02000000E100E004281DD8042904D94B1EFF3B9BB2132BC4
:4012400018D8FF290CD91F2319400B4A0300C0339B009950D03080000423835000200AE007231940D0308000034BC150002002E0024800E0014870470000264001004A0044
:4012800010B50400042804D91621FF310A4801F059F92300D0339B00084A985807231840042807D1C034A400A3581B30184080235B00184310BDC046EC51001000002640C2
:4012C00070B5041E04D1E221FF314C4801F03AF9B023DB004A4AD358002B01DB002500E0484D002D00D086E0474B22689A4204D9F8214900414801F025F923689B03990BDA
:40130000E3791B068022520413400B43B022D2003B498B50A2883D4B9A4204D9F821FF31364801F00FF92289394B9A4204D9FC214900324801F006F9A388DB04D90C238916
:401340001B04344A13400B43334A2D498B50A37A0F2B04D9FF214900284801F0F3F8E37A0F2B03D92A49254801F0ECF8A289274B9A4204D980218900204801F0E3F8A37A7F
:401380000F211940E27A1201FF2313400B43A289120222490A401343A27B1207C02189050A401343B122D20015498B50A379072B04D982218900114801F0C4F8228A144B9D
:4013C0009A4203D916490D4801F0BCF80C4815494658154B1E40A3791B02E022D2001340334343504658114B1E40238A1B04094A134033434350280070BDC046EC510010EA
:401400000000264003004A00FFFF0300FF1F0000FF0100000000FF018405000000FF1F00090200008C050000FFF8FFFFFFFF00FE70B505002D492E4A8B58802000060343BF
:401440008B502C0003E0012001F070F8013CB223DB00264AD3585B0701D4002CF3D12349B122D2008858234B03408020800503438B50002D02D00ED0002C0CD01B49B02256
:40148000D2008B588020000603438B5003E0012001F04CF8013CB223DB00144AD358DB0701D4002CF3D1002D0ED0002C0CD10F4AB021C90053585B005B0853500C49535847
:4014C0005B005B0853500BE0084B0221B222D2009950B121C9005A58C020800502435A50002C01D1044800E0002070BD000026408C050000FFFFFFCF02004A00F0B5474642
:4015000080B45B4B98426FD89A4274D8594B994278D80124584B1C70FF2806D80E3404400F250F239C46072021E0544B984206D80F2630400F2500239C46002417E0030A0D
:401540000F2633404E4CA04208D80001F03630401843FF2500239C46002408E00002F026360130401843474D00239C460024FF2A10D81201FF231A401443E022D202024357
:4015800016000F3B62461A439446F0273F032F4300203DE0394B9A4208D81204F0273F033A40104306002F43002031E0160A3604F0231B031E403043314B9A420AD8120512
:4015C000F0231B041A4010430600FF273F042F4300201DE01206F0263605324010430600294F2F43002013E0002700239C460026002426480CE0002700239C460026002497
:40160000224805E0002700239C46002600241F4800282AD11E4B1B68002BFBDA164B5B78002B04D01B4B1C4AD358002B19DA1B4A1B4B1A601B4A1C4B1A60174BA322D200A3
:4016400090469D58624695432C4342469C50174C1A59BA4332431A51074A51600D4A995000E0134800220A4B5A6004BC9046F0BD0F060000FFFFFF0004150008FF04000062
:40168000FF0500000F0F000000000F0F01004A00E00023401C050000000026401F1F0000080126403D3D0000040126401405000003004A0070B582B000220023009201931B
:4016C0002C4B1A702C4B1B68002BFBDA2B4B1A682B4B9A4206D12B4B1A682B4B9A4203D0002502E0002500E00125A423DB00274AD4582402220A0023009201931E4B00221A
:401700005A60002D2DD0009A019B1A4329D0002815D1184B58680A000023002102F000F8009C019DEE07620832436B0880185941009A019B01F0D4FF0090019115E0009A72
:40174000019B0800002101F0EBFF0A4B5A685408002500196941002301F0C2FF0090019103E000220023009201930098019902B070BDC04604150008E0002340080126403F
:401780001F1F0000040126403D3D000000002640F0231B06C3180F4A934201D8580A18E0EC231B06C3180C4A934204D85B0A8020400218430DE0EA231B069C466044064B8A
:4017C000984204D8400A80229202104301E0012040427047FFFF0F00FF7F000010B50400FFF7D6FF431C03D0E40503D0002002E0002000E0012010BD214B984230D00ED8FC
:40180000402831D004D800281FD010282AD031E080282BD080235B00984229D02AE0194B984229D007D8A0231B0698420DD0164B984212D01EE0154B98420AD0144B984272
:4018400009D0144B984215D101E0002016E0124814E0124812E0124810E0A020C0030DE007480BE00F4809E00F4807E00F4805E0034803E00E4801E0A420C0037047C04688
:4018800006005200010000F0090000A0040000F0050000F0030000F0010052000200520003005200010050000200500005005200FF00520010B50C4B1B69002B11DB0B4B06
:4018C0001868FFF799FF0121094B0A4AD150084B084AD358002BFAD1074BD358002BF6D100E0064810BDC04600002340101500080C040000000025408C04000002005000D2
:4019000010B5022202490020FFF766FB10BDC046A102000870B504000D00FFF75FFF002827D0002D27D0FEF765FC144B144A1A6000225A609C60DD60124B19691A69120A91
:40194000FF2313405A1C0B0E013353430E4C5C430E4B1868FA21890001F04CFD0100200001F048FD0A4BC1188020400003F0F4FA02E0084800E0074870BDC04610150008E2
:401980000001000500002140C0EA2101C4000008482600000600520010B5FFF78BFF10BD10B50400FFF71AFF00282AD0FEF722FC154BE02252051A601A68802149000A4357
:4019C0001A605C6000229A60DA60104B19691A69120AFF2313405A1C0B0E013353430C4C5C430C4B1868FA21890001F003FD0100200001F0FFFC084BC118002003F0ACFABC
:401A000000E0064810BDC046101500080000214060F59000C4000008980800000600520070B504000D00FFF7D9FE00282ED0002D2ED0FEF7DFFB174BC022D2041A601A6835
:401A4000802149000A431A60832252005A609C60DD60114B19691A69120AFF2313405A1C0B0E013353430D4C5C430D4B1868FA21890001F0BFFC0100200001F0BBFCE12393
:401A80009B00C118002003F067FA02E0054800E0044870BD1015000800002140808D5B00C400000806005200F8B506000D001400002800D142E1002A00D141E1072903D983
:401AC0003921A04800F03EFD2368012B03D93A219C4800F037FD0F2362689A4303D03B21984800F02FFD237A1F22934303D03C21944800F027FDE368032B03D93D2191481F
:401B000000F020FD2369012B03D93E218D4800F019FD6369012B03D93F218A4800F012FDA369012B03D94021864800F00BFDE369032B03D94121834800F004FD236A012B5D
:401B400003D942217F4800F0FDFC636A012B03D943217C4800F0F6FCA36A012B03D94421784800F0EFFCE36A032B03D94521754800F0E8FC236B072B03D94621714800F088
:401B8000E1FC2768072D03D96F49704800F0DAFC012F04D9BA2189006C4800F0D3FC002F03D10123AB40736002E00123AB40B3606768072D04D9E4218900644800F0C2FCDE
:401BC0000F233A009A4303D06149604800F0BAFCAA00B36A0F210800904083430F4097401F43B762277A072D03D95A49574800F0A9FC1F233A009A4303D05749534800F0BC
:401C0000A1FC564BF318DB09554A944663441B01032D0BD81A68E8001F2181408A4311001F223A4082400A431A600BE0291F5A68C9001F208840824310001F223A408A407C
:401C400002435A60E768082D03D946493F4800F079FC032F03D944493C4800F073FC6A00736A03210800904083430F4097401F4377622769082D03D93C49344800F062FCB2
:401C8000012F04D9CA21C900304800F05BFCB36901221100A9408B431740AF401F43B7616769072D03D93249284800F04BFC012F03D93049254800F045FCF26A012319001F
:401CC000A9408C468A431F40AF401743F7626F00103703210800B84062461043326B8243A0691840A8400243E0690140B9400A433263706BFF2294469043276A1F40636ACB
:401D00005A00022313403B43A26A9100042739400B431F00E36AD900182319403B000B43226B520161460A401343AD00FE2292001540AB4003437363002002E00E4800E048
:401D40000D48F8BD74520010E7020000B45200109103000045020000460200000000CEBF00100304D4060000D50600004F060000D2030000D303000001005A0070B5050083
:401D80000C00002848D0002948D0FF230A689A4303D08D21224800F0D5FBFF2322699A4303D08E211E4800F0CDFBA3685B0D03D08F211B4800F0C6FB63685B0A03D0902192
:401DC000174800F0BFFBE3695B0F03D09121144800F0B8FB236A5B0F03D09221104800F0B1FB104BEB18DB090F4A944663441B0122682A60E268AA622269EA6262692A635E
:401E0000A2686A626268AA61A2696A63E2691A60226A5A60002002E0044800E0034870BD745200100000CEBF0010030401005A000D4BF222D2019A580260F022D2019A582F
:401E400042600A4A9A588260094A9A58C260094A9A580261084A9A584261084A9A588261074A9B58C36170470000344004780000087800000C780000107800001478000054
:401E8000187800000D4BF022D201416899500C4A816899500B4AC16899500B4A016999500A4A416999500A4A81699950094AC16999500168E83299507047C046000034407B
:401EC00004780000087800000C78000010780000147800001878000010B5074A074813580F24A34302210B43135004381358A3431943115010BDC0460000214004F000008F
:401F000010B5074A074813580F24A34303210B43135004381358A3431943115010BDC0460000214004F000000449054A8858054B0340C020C00103438B5070470000214088
:401F400004F00000FF8FFFFF0449054A8858054B03408020C00103438B5070470000214004F00000FF8FFFFF10B5002000F0AAFBB0235B055B78002B04D0B0235B055B7833
:401F8000DBB200E02123222B03D8002803D1013002E0012000E0002010BDC04610B50400002000F08FFB00280AD114498A69144B1A40240680235B041C4014438C611BE00F
:401FC000002C01D00F4A00E00F4A01210F48FEF787FD00280DD10D4B1B69002BFBDB0B4BDB681B0E1B06A0221206934203D0084802E0074800E0002010BDC04600F025406F
:40200000FFFFFFFE0101003001000030000023400400420070B50400022805D0052803D02349244800F08EFAFFF79EFF00283CD000F027FB0600022C10D10120FFF7AEFF6F
:40204000051E18D1FFF748FF1B494B6907229343043A13434B61FFF767FF0CE016494B6907229343043A13434B61C82000F05EFAFFF76AFF0025002D13D10F494B6907222C
:4020800093431A000723234013434B61052C08D1C82000F04BFAFFF733FF0020FFF77EFF0500300000F0F1FA00E0044D280070BD37060000F45200100000264003004200EB
:4020C00010B50400012803D90D490E4800F03AFA002C03D10C4B5869C00F00E00020012C0CD1094B9B695B0005D4074B9B69002B03DA012002E0012000E0002010BDC04670
:402100009C060000F45200100000264070B504000D00072803D90D490D4800F013FA0D4B9B690722134021009C420DD0094882690726B243344014438461002D04D09942BA
:4021400002D9C82000F0F2F970BDC046FC060000F452001000002640F8B50500012804D9EA21C900294800F0EDF9FFF7FDFE002848D000F086FA0700002D17D1E823DB005A
:40218000B0225205D65CF6B20120FFF707FF041E1FD1FFF7A1FE1E481E4943581F229343143A13434350FFF7BFFE12E01A4BB0225205D65CF6B21648164943581F22934326
:4021C000143A13434350092000F0B0F9FFF7BCFE0024002C12D10E490E4A8B581F20834306401E438E50012D08D1163800F09EF9FFF786FE0020FFF7D1FE0400380000F080
:4022000044FA00E0054C2000F8BDC046F4520010000026401CFF0000410700000300420070B5040000F02DFA002C05D01A4B1B681F2B03D9002502E0002500E00125002D42
:4022400025D0E368002B1FD02368002B1ED0124B59680B00002203E0A34204D01A005B69002BF9D100E00025002D10D0002902D1094B5C6000E05461226100236361064A39
:4022800013680133136002E0002500E0002500F0FCF9280070BDC0462015000870B584B005000E00042803D929492A4800F04AF9731EDBB2012B07D9042E05D0082E03D0AE
:4022C0002549244800F03EF9042E01D0012E1DD1224B5C68002013E023799D420FD1A368002B01D01E420AD1E36801A85A6842609B688360067023689847184B9C60646992
:40230000002C23D0164B9842E6D11FE0134B9C68022E02D1002C00D02469002011E023799D420DD1A368002B01D01E4208D1E36801A85A6842609B688360067023689847D7
:402340002469002C02D0064B9842E8D104B070BD95080000F45200109608000020150008FF00420070B50500012804D94E21FF311B4800F0E7F81B4B1B68002B05D00121F2
:402380000020FFF78BFF040000E00024002C20D100F077F90600134B1B68002B03D004210020FFF77BFF104A136904218B431361012D01D030BF00E020BF300000F065F9F6
:4023C000084B1B68002B09D008210020FFF766FF04E002210020FFF761FF044C200070BDF45200102015000800ED00E0FF00420070B50500012804D984218900384800F0D6
:40240000A1F8384B1B68002B05D001210120FFF745FF040000E00024002C59D100F031F90600304B1B68002B03D004210120FFF735FFE0232C4AD358DB0603D529480C308C
:40244000FFF7F6FCB0235B055B78002B04D0B0235B055B78DBB200E02123212B03D1280002F082FD1FE02149214BCB581F221340E822D200B0204005825CD31A5A1E93416B
:40248000DBB20A68120207D4012B05D1194BC158194B164AD15003E00021174B134AD150280002F051FDE0230F4AD358DB0603D50C480C30FFF7E6FC300000F0E6F8094B84
:4024C0001B68002B09D008210120FFF7E7FE04E002210120FFF7E2FE084C200070BDC046F45200102015000800000140000026401CFF000010180000307F0000FF0042001E
:4025000010B500F0BEF8074B5A6807490A40E824A40122435A605A68114059605B6800F0B4F810BD00002640FF00FC0F10B5034B1B78584300F09CF810BDC046D4000008D6
:4025400001BEFEE770B50D00044C18220100200002F0D8FCA5610020FFF7F2FF980500080122014B9A60704700002540054B802212069A649B6C002B01DB002000E002487D
:402580007047C0460000274003004600054B8022120198585B68FF221A4202D08023DB021843704700002640FEE7C04610B50A4B0268DA6142681A6282685A62C2689A6213
:4025C0000269DA6242691A6382695A63C2699A63FFF7EAFF10BDC04698050008F0B5002801D0192200E064228A42924152421C4BE8256D005C590327BC433A4014435C5136
:402600005C59184E34405C51D03D5C59BC4322435A515A5916405E51002805D010290DD921290DD8012014E01D290BD93A290BD957290BD978290BD803200AE0002008E007
:40264000022006E0002004E0012002E0022000E00420054A13680F218B4303431360F0BD00002140FFFCFFFF00002540000000000230800803D001300238FCD1C046C04667
:402680007047EFF3108072B6704780F310887047042805D1094A116804230B4313600CE00006C0239B04184090239B00044AD050024A136804218B431360704710E000E05E
:4026C0000000214010B504000F2803D9E4210548FFF738FFA402044B9C46644423680F20184010BD345300100040244070B50378012B02D0082B40D045E00320FEF70EFB5E
:40270000244B984241D000F053FE01283FD0022003F004FD0500FFF7B4FF1F4B186003F001FD0400062817D0022D0AD1022005F061FA032C01D0052C10D1002810D0174C1D
:4027400013E0012005F056FA022C0BD000280BD1FFF708FE114C08E0002406E00F4C04E0002402E00D4C00E00C4C0C4B9C420FD1094B1868FFF789FF0AE0074B1868FFF7B9
:4027800084FF002404E0054C02E0044C00E0034C200070BD010188004C150008FF00420010B5002803D0044B5860002400E0034CFDF7A2FE200010BD4C1500080100160040
:4027C00000B58BB028220021684602F093FBD7231B016A4693811B2313835383183B1377013353770C33D377202269468B5401328B5452334B8401223C3BCA540848FFF734
:402800000FFD03F071FC06A803F0BCFC002804D1044B0193684603F089FC0BB000BDC046E8000008D4050008014B024AD050704778F0010000003C4010B50BF05FFF10BD3F
:4028400010B5024B1B68984710BDC0466015000810B5002809D0FA23FF33994207D80A00044902F03EFB002002E0034800E0024810BDC0460708001601001600F0B55F4673
:4028800056464D464446F0B4B14CA54481460E00904605930B00AF4A914204D942468A18AD498A4211D9AD4A934204D94246B218AB498A4209D9AB4A934200D823E143463C
:4028C000F318A94A934200D922E1A84B5B695B0010D5A64B5B6907241C40022C25D10520FFF798FB0190A24B9842F8D003940123049324E09F4B9D4AD3581F221A40E8230C
:40290000DB00B0214905CB5C9B1A5A1E9341DBB20493002B0FD10120FFF71EFC944B9842F9D001900523039309E00394012304930023019303E005230393002301938E4B21
:40294000019A9A4204D1D621FF318C48FFF7FAFDF0231B069C466644730A9A465C0200210320FEF74FF90028F9D100250023029399E0B4421BD3BD4219D24A46521910788E
:40298000804606A84146C154594600290DD1802149058846A044414609786846017001781278914201D001229346013505E080225205A218127806A8C2540134013304E08D
:4029C000002100238B46844647466D4A9342D0D959466046B846002962D0019B002B5FD1059B002B51D1C83300951D00B3465646A24680231B03F7187F023800FEF7D0FF3D
:402A00000400013D0120FFF791FDA423DB0322001A409A4201D1002DEBD122000294009D5446B2465E46574B9A4205D1FEF7B4FF554B9842FAD00290029B002B19D1C833ED
:402A400000971F00A34606A90098FEF7E9FF0400013F0120FFF76AFDA423DB0322001A409A4204D1002FEED102945C4601E002945C46444B029A9A4211D1FEF78DFF424BC9
:402A80009842FAD0029001200AE0802000035044400206A9FEF73EFF0290012000E0012001239C46E244029B019A134301D1454586D3002801D0FFF753FD00210320FEF7E0
:402AC000E7F80028F9D1019B002B25D1274B5B695B0009D5039B022B06D10220FFF79AFA0190234B9842F8D0204B1B681B0213D4049B002B10D10020FFF72EFB01901C4B16
:402B00009842F8D008E000230193204B029303E0002301931D4B0293019B002B0CD11C4B029999420AD0194B994207D0002901D1002004E0174802E0174800E017488723C4
:402B40009B009D443CBC90469946A246AB46F0BDE4FDFFFFFFFFFF0F00001010FFFFFF1300800014FF070016000A001600002640040042001CFF00000300420074530010D8
:402B8000FF0100000100500002005000060052000200520013001600120016000100160010B500280AD0FA23FF33994208D8F93BFF3B0A000349FFF761FE02E0024800E068
:402BC000014810BD070800160100160000207047B0235B05588880B27047C0460020704710B5FFF7A3FC10BDA023DB00024AD358032018407047C04600002640024B034A5F
:402C0000D058C00F7047C0461C0500000000264010B5FEF74FFD10BD70B504000D0016000320FEF77BF8054B984205D0320029002000FEF763FC00E0014870BD0101880001
:402C400003004A0070B5431ADC171B196340934227D3164B164CE458A405A40D884208D9401A51084018110000F0C4FB201A0ED50AE0081A51084018110000F0BBFB001973
:402C80000C4B984202D802E0002000E00A48084D06496B589B0A9B028205920D13436B5001E000240020201A70BDC0463C05000000002640FE030000FF03000010B5034BA6
:402CC0001A6880210902FFF7BDFF10BD0001000810B500F015FA0220FFF7A6FD094C236818680949FDF77CFE23681B6800229A5E002A05DB1F231A401E3B9340034A1360C5
:402D000010BDC046501500083928001000E100E00420704710B5FFF7B4FC10BD10B5FFF7B4FC10BD10B5FFF71DFB10BD10B50021FFF7ECF910BDC04610B50020FEF74CFA82
:402D400010BDC04610B5FFF7F7FF074B1B681B6800229A5E002A05DB1F231A401E3B9340024A136010BDC0465015000800E100E010B50020FEF700FA10BDC04610B5FFF769
:402D8000F7FF094B1B681B6800229A5E002A0ADB1F231A401E3B9340802204498B50BFF34F8FBFF36F8F10BD5015000800E100E010B5074B1960012201000020FEF70CF9FF
:402DC000002803D100220349FEF706F910BDC046601500084128001070B50B001500020000210120FEF790F8041E03D029000020FEF724F9200070BD70B50D000F4B184322
:402E000000040F4BD861FA24A40003E0013C0120FFF78CFB0A4B1B6CDB0701D4002CF5D1002C08D0064B196C01220A431A64DB6A2B80002000E0034870BDC0460080FFFF42
:402E400000003C400400160010B500040E4B184001430E4BD961FA24A40003E0013C0120FFF764FB094B1B6CDB0701D4002CF5D1002C06D0054A116C01230B4313640020B8
:402E800000E0034810BDC0460000FF7F00003C4004001600F0B583B006000A24C02149017548FFF7D1FF002804D16B46991D7248FFF7A2FF002C01D0013C00E06F48002898
:402EC00005D16B46DA88C0235B019A42E6D1002825D16B46991D6A48FFF78EFF00281ED16B4606331B885B0519D40A248021C9006348FFF7A9FF002804D16B46991D60487F
:402F0000FFF77AFF002C01D0013C00E05B48002805D16B46DA888023DB009A42E6D1002804D16B46991D5748FFF766FF002844D16B4606331B883F229343B278012A15D1A9
:402F4000F178012904D88FB20222D21B95B201E000250227402213439BB2302213436A46D380494BCB40494A136013E0F178002904D18FB20122D21B95B201E000250127A5
:402F800040229343102213436A46D380404BCB403E4A13606B469C1DD9883943D9803948FFF752FFF378DB1B03221340AA0092B213432380374A38498B50B0235B055B78B2
:402FC000002B04D0B0235B055B78DBB200E02123212B4FD0314BB0225205D35A9BB2002B48D0002804D16B46991D2D48FFF704FF002824D16B469A1DDB8860218B4318002D
:403000001380B0256D05254C2B5B60310B405B08034324490B401380295BC901F020C00001400B43204919401180285BC0239B000340DB00194311801948FFF705FF002860
:4030400004D16B46991D1948FFF7D6FE002811D16B469A1DD988C023994311800F4BB0204005C05A302303409B00194311800F48FFF7EAFE03B0F0BD021E00000400160050
:40308000031E0000091E00000048E801C00000080024F40064F0010000003C4016180000071E00007FF5FFFFFFE7FFFF061E000070B50C004000084901430848FFF7C4FE0B
:4030C000051E04D106490748FFF7BEFE05006001FFF72CFA280070BD01100000081E0000376800000F1E00000349044A8858102303438B507047C04600003C4070F0010046
:40310000F0B59DB013A9144B0A00180070C870C270C870C270C870C20AAD28001A002432D0CAD0C0D0CAD0C0D0CAD0C001AC22004833C1CBC1C2C1CBC1C2C1CBC1C207488F
:40314000FEF71CFE29000648FEF718FE21000548FEF714FE1DB0F0BDB0530010000132408001324000023240F8B5051E00D1D4E06E4B5B689B0301D5FFF7C2F96C4C03E051
:40318000013C0120FFF7D2F96A4B6B4AD358002B01D0002CF4D1694B674AD358DB0704D5674BD358DB0700D5B9E0624B624AD358002B00D0B5E0FFF7A3FF5F4B6149624A4A
:4031C00099502A788021C9020A4360495A506049604A9950802252009B58DB0700D5A2E05D4B1B6F1B0709D45C4B18685C4B984206D9190000F0FEF8013802E0012000E009
:4032000000204D4B1B68002803D04003554A104300E055481843484B1860444B5B695B000ED501210320FEF771FF404B5B695B000CD53E4A93698021C9050B43936105E060
:403240003D494A4A8858032303438B503A4C3B4AA658474B3343A3504020FFF767F9454BE358DB070BD42700424C01233B514020FFF75CF903233B514020FFF757F93E4FD2
:4032800037403E4E3E432D4B2B4AD650FA24E40003E0013C0120FFF749F9394B394AD358DB0601D4002CF4D1002C01D0002400E0354C002C23D12049344A88580823034349
:4032C0008B500120FEF7FCFE002801D1304E3E43304B1E4001231E43184B174AD650144E03E0013E0120FFF721F9154B124AD358DB0701D4002EF4D1002E00D1224C002CC3
:4033000003D12800FFF7C6FD0400002C0CD168782978FFF7CDFE040006E01F4C04E01F4C02E01E4C00E01E4C2000F8BD00002640F07E0E006CF0010000003C40A0F001002E
:40334000B4F0010006000001A4F00100A8F0010001000100ACF0010000F03D40C800000800093D00041A0080040A0080C4F0010030000300B0F00100EFFFFEFF200002008F
:4033800010400000000032400400160068F0010028000200FFFFFBFF010016000300160002001600014B18687047C046C000000810B5002405E02000FDF762FF032804D0DB
:4033C0000134042CF7D9002000E0012010BDC046A023DB00064AD35803221340012B03D0032B03D1012002E0012000E00020704700002640002243088B4274D303098B4277
:403400005FD3030A8B4244D3030B8B4228D3030C8B420DD3FF22090212BA030C8B4202D31212090265D0030B8B4219D300E0090AC30B8B4201D3CB03C01A5241830B8B420B
:4034400001D38B03C01A5241430B8B4201D34B03C01A5241030B8B4201D30B03C01A5241C30A8B4201D3CB02C01A5241830A8B4201D38B02C01A5241430A8B4201D34B029E
:40348000C01A5241030A8B4201D30B02C01A5241CDD2C3098B4201D3CB01C01A524183098B4201D38B01C01A524143098B4201D34B01C01A524103098B4201D30B01C01AD3
:4034C0005241C3088B4201D3CB00C01A524183088B4201D38B00C01A524143088B4201D34B00C01A5241411A00D20146524110467047FFE701B5002000F0F0F802BDC04660
:403500000029F7D076E7704703460B437FD4002243088B4274D303098B425FD3030A8B4244D3030B8B4228D3030C8B420DD3FF22090212BA030C8B4202D31212090265D081
:40354000030B8B4219D300E0090AC30B8B4201D3CB03C01A5241830B8B4201D38B03C01A5241430B8B4201D34B03C01A5241030B8B4201D30B03C01A5241C30A8B4201D37B
:40358000CB02C01A5241830A8B4201D38B02C01A5241430A8B4201D34B02C01A5241030A8B4201D30B02C01A5241CDD2C3098B4201D3CB01C01A524183098B4201D38B01DB
:4035C000C01A524143098B4201D34B01C01A524103098B4201D30B01C01A5241C3088B4201D3CB00C01A524183088B4201D38B00C01A524143088B4201D34B00C01A524126
:40360000411A00D201465241104670475DE0CA0F00D04942031000D34042534000229C4603098B422DD3030A8B4212D3FC22890112BA030A8B420CD3890192118B4208D36C
:40364000890192118B4204D389013AD0921100E08909C3098B4201D3CB01C01A524183098B4201D38B01C01A524143098B4201D34B01C01A524103098B4201D30B01C01ACB
:403680005241C3088B4201D3CB00C01A524183088B4201D38B00C01A5241D9D243088B4201D34B00C01A5241411A00D20146634652415B10104601D34042002B00D549420E
:4036C000704763465B1000D3404201B5002000F005F802BD0029F8D016E770477047C046002B11D1002A0FD1002900D1002802D00021C943081C07B4024802A140180290D8
:4037000003BDC046D9FFFFFF03B4684601B5029800F050F8019B9E4602B00CBC7047C046F0B54F464646C0B41604360C9946330005042C0C070C150C63437E436F4365436B
:403740001C0CAD1964199C46A64203D980235B02984647446346250CEF191D044B464A4343432D0C240464199918C91920000CBC90469946F0BDC04670B500220C4B0400C5
:403780000D0001F05DFA002804D12000290001F0B5F970BD064B00222000290000F05AFE01F0ACF980231B069C466044F1E7C0460000E041F0B54D46564644465F46F0B418
:4037C000924683B004000D0099468B422FD82CD04946504601F05CFA29000600200001F057FA331A9846203B9B4600D574E053465A4693401F005346424693401E00AF4243
:4038000029D826D05B46A41BBD41002B00DA79E0002200230092019301235A4693400193012342469340009319E08242D0D900220023009201930C9B002B01D01C605D6080
:403840000098019903B03CBC90469946A246AB46F0BDA342D6D900220023009201934346002BE8D0FB0772081A4346467B080EE0AB4201D1A2420CD8A41A9D41012024196E
:403880006D410021013E24184D41002E06D0AB42EED9013E24196D41002EF8D15B460098019900196941002B22DB2B005A46D3402A004446E2401C005B461500002B2CDBE1
:4038C00026009E40330026004746BE403200801A994100900191AEE7424620239B1A5246DA40414613004A468A4017001F4382E7424620239B1A2A0046469A402300F34015
:403900001343D5E74246202300219B1A0022009101920122DA40019282E74246202326009B1ADE402F00B446974066463B003343C9E7C046F0B556464D4644465F46F0B4D7
:403940001D000E034C00CB0F87B0070092468146360B640D98466AD06D4B9C4235D08022430F12041343F6001E43C3009946694B00279C460023644402932B0368001B0B7F
:40398000ED0F51469B46400D009500D178E0604B98426CD05B46DA004B0F802109040B4313439B465346D9005A4B9C46002360444246201A6A40924601901F430F2F00D9B1
:4039C000B0E05548BF00C0598746374300D088E0002399460233082700260293CDE74346B34649460093029B009A9246022B00D0BFE1002153460122002689461A40444B63
:403A0000002136030C0D2405360B2643434C1B0526401E437600D207760816434846310007B03CBC90469946A246AB46F0BD330003434FD0002E00D1BCE1300001F00AF9A3
:403A400003000B3B1C2B00DDADE11D220100D31A08393A008F408E40DA40B9461643304B00279C46002360444442029385E753465A4613432CD1002300219B46023397E75E
:403A80000B4320D05B46002B00D19EE1584601F0E1F803000B3B1C2B00DD8FE102005946083A91408B461D21CB1A5146D9400B0059460B4351469B469140194B9C466044E4
:403AC0004042002374E7002300219B4601336FE703236DE70023994601330427002602934BE703230C27029347E70122D51A382D00DCB0E153461A40002100230026894623
:403B00007EE700238026994600223603004B77E7FF07000001FCFFFFDC5E0010FFFF0F80F30300005E4500D972E100D16DE1019B4D46013B01930023340002935B461E020C
:403B40000B0E1E430B020393330C994633041B0C494620000093FFF74DFC009B370043430600494620009846FFF7CAFC2C0C09040C43A04509D9E419731EA74200D95CE19C
:403B8000A04500D859E1023EE4194346E41A49462000FFF72FFC0300009A80465343494620009B46FFF7ACFC2A040904120C0A4393450DD94346D219013B974200D93AE172
:403BC000934500D837E102235B429C46D219E0445B46D21A4346360433439B460399180C0B0C1D00059309045B46090C0C001B041B0C4443049159436B4368431B190D0CA4
:403C0000EB189C4203D980246402A44660441C0C09041B04090C20185D18824200D2DEE000D1D7E0161A029B9C465D1BAC459B415B42F61AB74200D106E149463000FFF736
:403C4000D9FB009B04004343494630009846FFF757FC2E0C09040E43B04509D9F619631EB74200D9F3E0B04500D8F0E0023CF6194346F31A494618000293FFF7BBFB009BBE
:403C800006004343494602989846FFF739FC2D0409042D0C0D43A84509D9ED19731EAF4200D9D6E0A84500D8D3E0023EED192404210043463143049E059A3000ED1A0B040E
:403CC0000C0C1B0C58436643534354439A19030C9B189E4203D980225202944664441A0C00041B04000C14191B18A54250D34DD001231943964A019B94466344002B00DC0B
:403D0000F3E64A0709D00F220A40042A05D00A1D8A42894149428B4411005A46D20108D55A468C4B1A4093468022D2009446019B6344894A934200DD5BE65A46C9085007C1
:403D400008435602514601225B058146360B5B0D0A4055E680231B031E4211D05A461A420ED15E461E433603360B2A0089467B4B46E6032B00D1E1E0012BBBD11A40BBE6D7
:403D80001E433603360B4246744B39E6002BB1D07D194A1EAF4252D91100A542A8D1039A9A42A5D1A6E703003E00283B9E400023994654E600F04EFF203041E60300524602
:403DC000283B9A400021934677E6504600F042FF20305EE6029B0026AB4200D323E7039E0299B44661448846B045B6415B467642F619B218013B0291974213D290424FD8FA
:403E000000D18EE0161A9B460DE7894500D28EE674084B46F60735005B081D434B46DB0702938BE69742EDD10399029CA142E5D93E1A9B46F7E69846CAE61E00A5E6AC4202
:403E40003ED874D0110053E70121494252E71C000EE71E002BE71F2D3CDC20230A0058465B1B9840EA4099400243481E81415E461143EE404B0709D00F230B40042B05D097
:403E80000B00191D99429B415B42F61833023CD55346012200211A40002601238946AFE502235B429C46039CE344A446029B63449846A045B6417642F6190293B218B1E626
:403EC00003988A1E41008142B6417642F619AD19039161E71F225242D31A5A46DA401300202D29D040225846551BA8400143481E814107200B4318400026002809D00F225D
:403F000000261A401900042ABBD10B0070077602360BDB0803439946012253461A4000236EE502998D42BBD89B4600267BE603989842C5D3110032E70020D7E780265B469E
:403F400036031E433603360B009A8946034B57E5FF030000FFFFFFFEFE070000FF070000F0B55F4656464D464446F0B40D0399464E002B0B87B00700924680469B46760DD8
:403F8000CC0F002E69D06D4B9E4235D05B468022DD001204430F13432B439B46C3009846674B00279C460023664401934A4615035000D20F53462D0B400D914600D176E043
:403FC0005E4A90426CD080225B0F120413435C4AED0094461D4353460022DB00604449463618701C6140029017430F2F00D9AFE05448BF00C759BF465B461F4300D088E035
:4040000000239B469846023308270193CEE74946022A6AD0032A00D109E2012A00D0BBE111400022002300259046CCB200212D030A0D12052D0B1543434A1B0515401D43FC
:404040006D00E4076D0825434046290007B03CBC90469946A246AB46F0BD034352D05B46002B00D18AE1584600F0F4FD03000B3B1C2B00DD7BE11D22D31A3A0001005D46B0
:40408000DA4008398D4013008F402B439B46B8462E4B00279C46002360444642019385E752462A432CD100250023022297E752462A4321D0002D00D154E1280000F0CAFDE4
:4040C00003000B3B1C2B00DD46E11D21CB1A51460200D9405346083A954093400D431B4A944660444042002279E7012400220C40124B0025904699E70025002301226EE772
:4041000003226CE700239B4698460133042701934CE703230C27019348E700238025984600242D03054B81E75D464346019A6FE75D4643462100019A6AE7C046FF070000CF
:4041400001FCFFFF1C5F0010FFFF0F80F30300004246120C91461A0C9446424617044A461B041B0C5A43604690464A4642431000039262461C003F0C7A437C4342440192C9
:40418000220C9246019A5244904506D98246802040028046C24450460390100C049048462404240C1204121905922A0C2D042D0C68432C00824648467C4350438146200CF5
:4041C0008046574357444744BA4503D9802040028046C144380C3F04B84648442404240C01900498A044404404905846000C814658460404200C8246070048465F434C464B
:404200004343604660436446834650464443380C8446E4186444A34203D980235B029C46E34448463F04230C3F0C2404E419574668436F4384464D46504655434243380CE5
:40424000814662444A445B44944503D9802040028446654403983F04834604983F0C8446E344C345804140428246100484460198674484466744A344BC46A345A4419946DC
:40428000D44464428742BF41D4458041E144A04699459B417F424042C8440743120CBA18A045A4415F423B0064422343D71843467D19DB0D6D021D435B465A02059B1A43DE
:4042C000531E9A415B46DB0D1A4343465B021343EA0107D501225C0813402343EA07029E13436D08574AB218002A4BDD580709D00F201840042805D0181D98429B415B42E8
:40430000ED180300E80104D54F4A15408022D200B2184E48824200DDE7E60124DB08680718436D02530580462D0B5B0D0C407DE6802259461203114208D0154206D11543CE
:404340002D0398462D0B4C46414B6FE65D4615432D032D0B3E4B69E603005546283B9D400023BCE6504600F075FC2030A8E60300283B9F400023BB46984689E600F06AFCC5
:40438000203073E60124A61A382E07DD00220C4000230025904649E6029EA3E71F2E20DC20222C001800921BF040944093400443581E83411C43F540630709D00F23234000
:4043C000042B05D023001C1D9C4292415242AD182B021FD5012400220C4001230025904624E61F202C004042821AD440202E1CD04022961BB5402B43581E83410720234362
:4044000018400025002809D00F2200251A401C00042AD8D1230068076D022D0B0124DB08034398460C40002300E60025E3E780220124120315432D0398462D0B0C40044B9D
:40444000F4E5C046FF030000FFFFFFFEFE070000FF070000F0B557464E464546E0B40E001100F20F9246C500420F180337037400400A4E0F7F0A3043CF4E17435A00640DA4
:40448000520DDB0FC900B24200D1E5E001267340A61AB446534500D1AFE0002E00DC0DE1002A3AD103000B4300D0E4E06B0709D00F232B40042B05D02B1DAB42AD416D4204
:4044C0007F191D003B0200D488E0BB4B01349C4200D110E13A00B94B51461A4001235007ED08520264050543120B640D0B400021280012030D0D120B64052D051543620844
:40450000AF4CDB072C401443640064081C4321001CBC90469946A246F0BDA74B9C42C5D080231B0418436346382B00DDFDE01F2B00DD30E1624620239B1A02009A406646C1
:4045400090460A009940F24046464B1E99413243114363460200DA40691A8D429B410D00BA1A5B42D71A3B0235D57A02530A98464346002B00D1C4E0404600F06BFB030050
:40458000083B1F2B00DDC5E020222900D21A4746D1409F400A009D403A439C4200DDC0E01C1B631C1F2B00DDE4E0202114002800C91AD8408C408D400443DA40681E8541FA
:4045C00017002543002471E7424663461A4300D14CE2674645466B0700D069E7012351467807ED08FA080B40054373498C4238D012036405120B640D79E7002E00DC9AE023
:40460000002A47D06C4A944200D14FE78022120410436246382A00DC08E10143481E81410022C9B24919D219A942BF410D007F42BF183A0200D442E15F4A0134944200D12E
:404640004EE101205D4A69083A4028400843D507054357089A4629E706000E4300D017E714E72900114300D1F9E1802109030A431203120B3BE701235B429846C44463464C
:40468000002B72D1691A8D429B413F1A5B42FF1A0D0068E702000A4300D107E7012252429046C4446246002A00D0E6E06918A942B6413F187642F7190D00BAE7002E00D0BA
:4046C00080E0621C5205520D012A00DCF9E06A1A91464D45B6413A1A7642921B9046120200D499E04D1BA9428941C71B49427A1A90469A463CE75246012300251340002225
:40470000F5E6280000F0A6FA20300300083B1F2B00DC39E72A002838824000259C4200DC3EE7264FE41A1740C0E60143481E81410022C9B210E7002E00D0F1E0621C944623
:404740005205520D012A00DCA0E01B4A944500D1C5E06918A94292413F185242D2194908D5070D4357086446A0E6134B9C4200D0D9E69BE611001F3CE1400C00202B00D126
:4047800080E04021CB1A9A4015436A1E95410027254300241FE763460200203BDA406346202B71D0402366469B1B98400143481E814111430022CFE6FF070000FFFF7FFFFF
:4047C000FFFF0F80002C48D0CA4CA24200D1A2E07442A1468024240427434C46382C00DDDBE01F2C00DD44E14E462024A41B3E00A640A246B0464C462E00E640B4464646E8
:40480000644626435446A5406C1EA54134002C434D46EF400D1B28E04A4643464D461A4300D0A5E6002300240025DEE61F2A5ADC66462022921B060096409146B0466246E2
:404840000E00D640424616434A4691404A1E9141020060463143C240E4E63C002C435AD0F443A146002C52D14D1BA9428941C71B49427F1A14009A4675E69E4A944200D06E
:40488000C7E613E600227FE700208FE7002C00D0C8E03B002B4300D10FE103000B4300D104E66918A9429B413F185B42DF193B0200D41AE1904B0D001F406446F6E59A462E
:4048C00089E63A002A43002C5CD1002A75D102000A4300D1CAE007000D009A46E6E564460022002581E662460600203AD6406246B046202A00D1B7E040226646921B9040FF
:4049000001434246481E8141114300228AE6794CA24200D061E707000D0014009A46C5E5002C41D13C002C4378D0F443A146002C20D0704CA24271D04C46382C00DDB2E079
:404940001F2C00DDBCE02026341BA2463C005646B4404E46A0462C00F440A446444666463443A4465446A54064466E1EB54125434C46E7406D188D4289413F184942CF191B
:40498000140056E6002A2FD102000A4300D184E007000D009A46574C88E53D436F1EBD41ECB200270D1B60E7524CA24236D0744280263604A1463743BEE702000A4300D172
:4049C00074E56A1A90464545B6413A1A7642921B9446120200D4F7E54D1BA9428941C71B49427F1A9A4661E502000A433AD0ED087C072C438025FA082D032A4208D0C708B9
:404A00002F4205D145072C003A009A46C9080C43670FD200E5001743364C47E507000D00140043E53A002A4343D002000A4319D0ED087C072C438025FA082D032A4207D005
:404A4000C6082E4204D147073C003200C9080C43D700620FE50017439A46264C26E50022002544E5234C21E5002049E700230025BBE54C463E00203CE6404C46B446202C1C
:404A800031D040244E46A61BB7403D436C1EA54164462C4300270D1BE7E6802200231203144C0025A1E53D436F1EBD410027EDB260E707000D000F4CF8E407000D00F5E4EB
:404AC0004E463C00203EF440A0464C46202C0ED040244E46A41BA7403D436F1EBD4144460027254346E70027CFE70D0073E50027F2E7C046FF070000FFFF7FFF0B0330B506
:404B0000134D1A0B4B005B0DC90F0024AB4211DD104CA34210DC8024640322430E4CE41A1F2C0CDD0D48C31ADA4013005C42002900D11C00200030BD094BCC18FAE7E040E4
:404B4000084CA44663449A4013000343EEE7C046FE0300001D0400003304000013040000FFFFFF7FEDFBFFFF70B5051E28D000F071F8154B154A1B1AD21A1F2A16DD2C008F
:404B8000134A0025D21A94405A052403240B520D002124030B0D240B1B0523430D4C1205234013435B002800590870BD0B212C00081AC440954024035A05240B520DE7E71B
:404BC00000220024E4E7C0461E0400003304000013040000FFFF0F808446101C62468C46191C634600E0C0461FB500F001F9002801D40021C8421FBD10B500F055F8404227
:404C0000013010BD10B500F0F3F8002801DB002010BD012010BDC04610B500F0E9F8002801DD002010BD012010BDC04610B500F07BF8002801DC002010BD012010BDC04666
:404C400010B500F071F8002801DA002010BD012010BDC0461C2101231B04984201D3000C10391B0A984201D3000A08391B09984201D30009043902A2105C40187047C04654
:404C80000403020201010101000000000000000010B5002903D1FFF7DDFF203002E0081CFFF7D8FF10BDC046F0B55F4656464D464446F0B41F035C00DB0F9A46194B0E03F7
:404CC0004D00C90F8046360B6D0D8B4691463F0B640D9D4219D0134B9C421BD00123A54206D018003CBC90469946A246AB46F0BDBE42F6D1C845F4D1D34510D0002DF0D111
:404D0000304303005A1E9341EBE7310001230143E7D1E0E73A430123002AE2D1DEE70023DFE7C046FF070000F0B55F46444656464D46F0B41F033C0B2C4F0E034D00A346BD
:404D40005C008446360B6D0DC90F9046640DDB0FBD422BD0254FBC422ED0002D0ED130430700814678427841002C17D15F463A4314D14B460020002B0AD006E0002C02D169
:404D80005846024301D099421AD00123484218433CBC90469946A246AB46F0BD0028F2D058425841012240421043F1E737000743D0D002204042EBE75F461743CDD0F8E73F
:404DC000A542E2DC05DB5E45DFD808D000205E45DED248424841012340421843D8E7C445D3D80020C445F4D3D2E7C046FF070000F0B55F464D4644465646F0B41C03240B58
:404E0000A4462F4C0F034D005E00C90F80463F0B6D0D8B469146760DDB0FA54220D0284CA64222D0002D12D1384344424441002E20D0002C0DD05C42634101245B421C4394
:404E400020003CBC90469946A246AB46F0BD002E17D05B4519D05B465C4201231C43EFE7390002240143EBD1D9E7614602241143E6D1D7E761460A43DBD100240028DFD059
:404E8000E9E761460A43E4D1E5E7B54203DD01225C421443D4E7B542CDDB6745DBD809D000246745CCD259464C426141012449420C43C5E7C845CED80024C845F3D3BFE7F4
:404EC000FF07000030B50024A24208D0035D651C0C5DA34201D0181B02E02C00F4E7002030BD002310B59A4203D0CC5CC4540133F9E710BD03008218934202D01970013305
:404F0000FAE77047030030B5002A0DD00C7801335D1E013A2C700131002CF5D19A189A4202D01C700133FAE730BD0000F8B5C046F8BC08BC9E467047F8B5C046F8BC08BCDD
:404F40009E4670470000000001B40248844601BC604700BF9504000801B40248844601BC604700BFCD02000801B40248844601BC604700BFC10300086D61696E5F636D308A
:404F8000702E63000300000001000000010000000000000005036000040000000100000000000000010000000604600008000000D0140008D9040010030018000100000016
:404FC00019200102F4010000140004010A000905080000006301000018000000000000000000000000600A000000000000000000000000000000000000000000020000005F
:405000000000000000000000600000000000000000000000000000000000000000000000030000000000000000000000680000000000000000000000000000001212000081
:4050400000000000000000000000000000000000000000BA0000000000000000000000000000000000001D1DBC080010C8080010D4080010E0080010EC080010F808001090
:4050800004090010100900103C09001046090010500900105A090010640900106E090010780900108209001047656E6572617465645F536F757263655C50536F43365C70D8
:4050C000646C5C647269766572735C7065726970686572616C5C737973696E745C63795F737973696E742E630000000047656E6572617465645F536F757263655C50536F58
:4051000043365C70646C5C647269766572735C7065726970686572616C5C6970635C63795F6970635F6472762E68000047656E6572617465645F536F757263655C50536FFE
:4051400043365C70646C5C647269766572735C7065726970686572616C5C6970635C63795F6970635F6472762E63000047656E6572617465645F536F757263655C50536FC3
:4051800043365C70646C5C647269766572732F7065726970686572616C2F6970632F63795F6970635F6472762E68000047656E6572617465645F536F757263655C50536F05
:4051C00043365C70646C5C647269766572735C7065726970686572616C5C6970635C63795F6970635F706970652E630047656E6572617465645F536F757263655C50536FE1
:4052000043365C70646C5C647269766572735C7065726970686572616C5C737973636C6B5C63795F737973636C6B2E630000000047656E6572617465645F536F7572636561
:405240005C50536F43365C70646C5C647269766572735C7065726970686572616C5C737973636C6B5C63795F737973636C6B2E680000000047656E6572617465645F536F5D
:40528000757263655C50536F43365C70646C5C647269766572735C7065726970686572616C5C6770696F5C63795F6770696F2E630000000047656E6572617465645F536F47
:4052C000757263655C50536F43365C70646C5C647269766572735C7065726970686572616C5C6770696F5C63795F6770696F2E680000000047656E6572617465645F536F02
:40530000757263655C50536F43365C70646C5C647269766572735C7065726970686572616C5C737973706D5C63795F737973706D2E63000047656E6572617465645F536FAC
:40534000757263655C50536F43365C70646C5C647269766572735C7065726970686572616C5C70726F745C63795F70726F742E630000000047656E6572617465645F536F5A
:40538000757263655C50536F43365C70646C5C6D6964646C65776172655C626C655C63795F626C655F68616C5F7076742E6300000000000000000000000000006666666672
:4053C000000000000000FFFF000000001C1C1C1C1C1C1C1C00000000000000000000000066E6EE66000000000000FFFF000000001C1A1A1A1A1A0000000000000000000093
:405400000000000066E66666000000000000FFFF000000001A1A001C000000007C01000031010000090901120C00FF0380ABCDABCD80409C1B04041BFFFFFFFF000000001E
:405440000410080007070400F216FBE0FBE01F60427EF56D720096BE2090000010502604060037D7F401FA00960064004B0032001E00140003040506020D11005DEA00106A
:40548000C1E9001013F0001011EB0010C3EB0010BFEF0010D7EF001099F000103DEC0010A5EC001081EE0010AFEE0010E7F00010ADEF00107BF000107BF000107BF000101E
:4054C00055EF0010FDEE001041EF001009260110152601103D35011025360110313601100DEB00105BEA001057F00010C1EB0010FBEB0010CFEF0010F1EF0010E5F0001021
:40550000A1EC0010FDEC00109BEE0010D5EE001053F10010B7EF0010E5F00010E5F00010E5F00010A5EF0010E5F00010E5F00010E5F00010E5F00010E5F00010E5F00010AE
:40554000E5F00010830601108B06011087060110810601105F0601105B060110790601107706011053060110570601108F0601107B060110750601109306011093060110DE
:40558000510601107F060110711D011025210110E91E0110951C0110A50F0110590C0110291701106D120110C5070110290801107D220110B51A011005120110D90B011035
:4055C000B5160110F1690010651B01101D23011099260110E5270110B9280110D5240110792301102126011059240110832401109324011095240110992401107BF0001074
:40560000852401108F2401108D2401103D39011035330110A938011059380110F53801103D36011049350110E1350110A53601108DCE0010573301104D3301105333011004
:4056400051330110553301104F3301107BF000107BF000107BF0001055BD0010254C0110074C0110074C0110074C01103D4C011049890110074C0110398901105189011089
:4056800041890110BF500110B75001102150011019500110174C0110FF4B0110F54B01101B4C011011500110415001100F4C01103950011099500110074C01104950011021
:4056C0003150011029500110074C0110454C01104D4C0110554C01100B4C01100B4C0110254C0110074C0110074C0110074C01103D4C011049890110074C011039890110FA
:405700005189011041890110BF500110B75001102150011019500110174C0110FF4B0110F54B01101B4C011011500110415001100F4C01103950011099500110074C01105F
:40574000495001103150011029500110074C0110454C01104D4C0110554C01100B4C01100B4C0110997201108D720110A57201100B4C01100B4C0110257001106170011085
:405780003170011055700110497001103D7001106D700110797001108172011081740110857401109174011069740110757401100B4C01100B4C01100B4C01100B4C01103F
:4057C0000B4C01100B4C01100B4C01100B4C01100B4C01100B4C01100B4C01100B4C01100B4C01100B4C01100B4C01100B4C01100B4C01100B4C01100B4C01100B4C011029
:405800000B4C01100B4C01100B4C01100B4C01100B4C011085700110C3660110716501107165011071650110F5660110856601107165011069660110356701107F66011099
:405840000F67011005670110F364011071650110716501107165011077640110536601109D640110D5660110FB6501100B66011085650110716501104B670110C165011024
:40588000B3650110716501103F66011083670110716501107165011071650110497201103D7201105572011009660110A3650110716F0110AD6F01107D6F0110A16F011039
:4058C000956F0110896F0110B96F0110C56F011031720110217401102D740110397401100974011015740110716501107165011071650110716501107165011071650110B0
:4059000071650110716501107165011071650110716501107165011071650110716501107165011071650110716501107165011071650110716501107165011071650110F7
:40594000716501107165011071650110D16F0110F3690110216901102169011021690110376A01109D69011021690110E5690110E56901108F6901104D6A01103B6A01103A
:405980009D680110996801107D69011031680110236801102368011035680110176A011051690110656901102569011021690110816A01103D6901102969011021690110D1
:4059C000816901109D6A0110996A01102169011021690110757101106971011081710110C56A01101F680110B96E0110C16E0110CD6E0110D96E0110C16E0110C16E0110F1
:405A0000E56E0110F16E01105D7101102D73011039730110457301101573011021730110216901102169011021690110216901102169011021690110216901102169011066
:405A40002169011021690110216901102169011021690110216901102169011021690110216901102169011021690110216901102169011021690110216901102169011076
:405A800021690110FD6E011008000000060F0020200107021900000007070E05020220001C1202000103000E03060004004027070000070701020002030703040000000029
:405AC000000000000000000000000000000000000000000000080000C3660110716501107165011071650110F5660110856601107165011069660110356701107F660110DD
:405B00000F67011005670110F364011071650110716501107165011077640110536601109D640110D5660110FB6501100B66011085650110716501104B670110C165011061
:405B4000B3650110716501103F66011083670110716501107165011071650110F3690110216901102169011021690110376A01109D69011021690110E5690110E56901104F
:405B80008F6901104D6A01103B6A01109D680110996801107D69011031680110236801102368011035680110176A011051690110656901102569011021690110816A01103D
:405BC0003D6901102969011021690110816901109D6A0110996A0110216901102169011008000000060F0020200107021900000007070E05020220001C1202000103000E4C
:405C0000032000800000C00000000004000000A822000000000000040000F7FFFF7F000000300000000000000000000000000000000000000000000000000000000000008B
:405C400000000000516D0110096F0110716E0110B16D0110176F0110996E0110816D0110256F01107D6E0110AF6D0110296F0110956E0110996D0110176F01108D6E0110BA
:405C8000836D0110176F0110856E0110C76D0110356F0110A16E0110CD6D0110456F0110A96E011071650110216901100B4C011071650110216901100B4C0110716501103B
:405CC000216901100B4C011071650110216901100B4C011071650110216901100B4C011071650110216901100B4C011071650110216901100B4C0110716501102169011077
:405D00000B4C0110DB6D01105D6F0110B16E011071650110216901100B4C011071650110216901100B4C011071650110216901100B4C011071650110216901100B4C0110ED
:405D400071650110216901100B4C011095700110A57101104B710110937001109971011043710110BB700110F171011053710110917001108D7101103B71011071650110F2
:405D8000216901100B4C011071650110216901100B4C011071650110216901100B4C011071650110216901100B4C011071650110216901100B4C0110D17201108D730110D3
:405DC00000000000DF720110A17301107D370110ED720110CB730110AD370110B17201105173011031340110BF7201106F7301104D340110303030314238303030313032FF
:405E00003033303430353036303730383039304130423043304430453046313031313132313331343135313631373138313931413142314331443145314632303231323208
:405E400032333234323532363237323832393241324232433244324532463330333133323333333433353336333733383339334133423343334433454142000026002B005C
:405E8000300036003C0043004B0055005F006A00770086009600A800BD00D400EE000B012B014F017801A601DA01130254029D02EE024A03B1032404A5043605D9058F06DD
:405EC0005C0742084409650AAA0B160DAF0E79107C12BD1445171C1A4B1DDE20243B0010F2390010F83A0010E8390010F83A0010023B0010F83A0010E8390010F23900106A
:405F0000F2390010023B0010E8390010DE390010DE390010DE390010543D00105041001010400010104000100E40001028410010284100101A4100100E400010284100109F
:405F40001A410010284100100E4000103041001030410010304100103043001000000000F8B5074600256846058078683C1D30492E46002807D06268002A06D0800702D13E
:405F8000207A800701D00D464FE0FCF7A1FEFCF7F5FEFCF7BDFE00F035F900283DD1788C0006C00F00F0ACF905460004000C34D12049084600F0ECFE0004000C2DD12289DB
:405FC000A17A20681C4C002806D02060A280E68021810021FEF78EFF684601F033FD054616486B460078E2888000001DC1B21B88A088D418A04206D3C01A801A80B201F027
:40600000D3F9044600E00E4C00F076FD002C04D100F086FB0B480121817000F001F9002D03D001F0A9FB074806702846F8BD000001001600D961001064150008A0150008CF
:40604000FFFF00000401000810B5094CA07801280AD06078012806D12078002803D101F066FB0020607010BD01F03EF810BD00000401000810B5FCF7B7FD032801D100F00B
:406080002DFE00F0F5F901F05FFD00F0B3FE02490020887010BD000004010008004870476415000870B5044600208A0703D08A07920F891A091D084B89B2DA889E885518BB
:4060C000B54206D81D68AA182260DA885118D98070BD024870BD00006415000803001600004870477015000810B501F04BFC10BD0649002808D006498180052101700021F3
:40610000417002218170002108467047010016009503000010B5FFF797FF10BD10B501F039FC10BD10B501F047FC10BD38B50546002069460880002D09D0284601F048FDF0
:406140000446684601F072FC002C02D015E00C4838BD01F029FC2846FFF702FF04000CD1284601F0BDFC040007D1FCF73DFD032803D100F079FD00F0C7FD204638BD00009B
:406180000100160038B50446002069460880002C08D06189090A05D1617A102902D8E179102901D90A4838BDA0816946204601F0DBFC05466946A08909884018A081002D69
:4061C00004D1102221460348FEF78BFE284638BD01001600701500087047000010B5084900200978002909D005F0A6FF044605F069FE201A80B281004018C00810BD0000D7
:406200000C01000810B5FCF77BFF442202490348FEF767FE002010BD205400108015000810B5FCF78FFD10BD10B51A46034C01F001FA002800D00024204610BDFFFF0000F5
:4062400010B501F007FB10BD10B501F065FA10BD010010B5044806D0044A01201070002007F0C0FE002010BDFFFF00000C01000870B50024034D20462C7007F0E1FE2C70FE
:40628000204670BD0C01000801480078704700000C01000870B5591C89B24C080B4D64000021451906E028685054000A5618891C707089B2A142F6D3D80705D0D018203853
:4062C000D15CC47FD454C17770BD000000103C4030B50A4C002100195B1E07E054186478555C240225430560891C89B29942F5DB994201D1515C016030BD000000103C4095
:40630000F8B50746FF2000F0F3F9164EFF2070701548164900684018406B0024410F301D0125022901D0457000E0447005700D48801C4470384612F06BFB070010D112F0C8
:40634000A9FB3070012000F0D3F912F0ADFB68460470447012F012FF6846457012F00EFF3846F8BD0D0100080801000840F03D40F0B50021094D5B1E08E04419246857181B
:40638000260A7E705454001D891C89B29942F4DB994202D1401900685054F0BD00103C4070B500210A4E5B1E09E0541864782502545C2C4385192C60001D891C89B2994294
:4063C000F3DB994202D1515C8019016070BD000000103C40F0B50599091FCFB200217E1E0AE054186478555C24022543144C04192560001D891C89B2B142F2DBFC0710D005
:406400001C78515C24020E4A0C4381180C609C785D782102001D294384182160001DD9780BE059781A7809021143054A84182160D978001D9B780902194380180160F0BD82
:4064400000103C4038B509480024447012F02CFB69460C704C70684612F090FE012069464870684612F08AFE002038BD0F01000810B501F099FA0A480078012805D1FCF73A
:4064800097FF012809D012F05DFF05490020891E0870062000F02CF910BD12F03DFFF4E70F01000810B50B460B281BD00ADC012811D0032813D0062803D11146184612F035
:4064C000DBFD10BD112811D01228FAD11146184612F044FA10BD0020FFF712FF10BDFFF7B1FF10BD04480078107010BD1146184612F044FA10BD000011010008F8B5184DB0
:40650000184E28688019846AE00719D001F088FA0127012811D1002001F054FB052000F0E7F81149FF204870881C4078002804D128688019416B3943416328688019876283
:40654000E0050CD50848801C0078052802D1042000F0CEF8FF202968013089198862F8BD0801000840F03D400D0100080549002805D005494A7842700978017000210846B3
:4065800070470000010016001101000838B504000C4816D06178012913D801F005FA607812F0A2FD207000280AD169460870684600F090F869460878012801D104202070B3
:4065C000002038BD0100160010B5094900280CD00278082A09D24278042A06D205494A700078087012F060FA0021084610BD0000010016001101000810B504460448032CC2
:4066000005D801F0D1F9204612F07AFD002010BDFFFF160010B50400054808D06178012905D801F0C1F9204612F0A8FD002010BD0100160010B5FCF7BBFE012208499204DD
:406640000028084B086804D0C018016A1143016210BDC018016A9143016212F07DF910BD0801000880F03D400949087805280ED14A780848084900684018002A03D1416B2C
:40668000490849004163C16A01221143C16270470F0100080801000840F03D4001480078704700000F01000802484078022800D0012070470D010008012807D0032807D0CE
:4066C000042803D0052803D0FF207047012070470220704710B5040002D012F093F9207010BD000001494870704700000F01000810B50446FCF742FB062C01D9FF2C01D175
:4067000002480470FCF71EFB10BD00000F01000801494870704700000D010008002070471CB5002469460C700A2001902346054A054800F01DFA04480068401C00D1034CED
:4067400020461CBD9567001014010008FFFF00003EB50F4A01460D4800230124126800290BD0012908D168460093048143816946104600F0F8F980B23EBD6846009304819F
:4067800043816946104600F0E9F9F4E7FFFF00001401000810B50089002100280BD0012802D0052807D103E000200DF073FE02E0084600F01DF9002010BD000010B5024833
:4067C000006800F073FC10BD14010008FFB581B01F00154606463CD001F0E6F8FCF7CEFA2F49304B4878401CC0B2044606E02201D218127A202A2AD0641CE4B2202CF6D3EE
:40680000002406E02201D218127A202A1FD0641CE4B28442F6D32024202C1AD03470029821490202120A200602432001C61872601F501B4869180078009120280CD0FFF7E3
:40684000CDFC0746BD4223D3281AF0601BE04C70E2E7164805B0F0BD13484042854207D9FFF7F6FC014611488142F3D0009807E0A8B2FFF7EDFC01460C488142EAD00020B9
:40688000F060074804703472FCF75CFA0020E1E7FFF7EEFC781B012100F046F9DCE7000018010008C4150008C063FFFFFFFF000070B5074CA5780D2D07D2FFF787FF0028FA
:4068C00002D1A178491CA17070BD024870BD000018010008FFFF000070B5074CE578002D01D0064870BDFFF771FF0028FAD1E178491CE17070BD000018010008FFFF000071
:40690000F8B520280BD2234D07017C19207A202805D001F049F8E068002802D031E00120F8BDFCF72BFAFFF759FC012100F0FCF80020184EE060FFF79BFCFCF703FA00F0CA
:40694000C1F80546202819D0FCF718FA280186191148F168814205D90646FFF779FC0021304604E088B2FFF773FC0021F06800F0DBF8FCF7E7F90948057002E007492020AA
:4069800008702020034920720020C8516060E060F8BD0000C4150008409C00001801000810B5074CA178002908D0FFF7A9FF002802D1A078401EA070002010BD014810BD21
:4069C00018010008FFFF000010B5074CE178002908D0FFF795FF002802D1E078401EE070002010BD014810BD18010008FFFF0000F0B500258BB02E46089500F0D5FF00235C
:406A00006A4618462C49040161180C7A202C02D0C96800291DD000211154401CC0B22028F0D300240993099800280FD06846005D00283BD02048210108180668416808910B
:406A400000210160202241600272C160002D04D028E0012111540B46DFE700F033F80546202819D0144829010818C7681348874207D90021074600F057F8FCF77FF938466F
:406A800006E00021384600F04FF8FCF777F9B8B2FFF7DEFBFCF756F9094805700998002808D00125002E01D00898B047641CE4B2202CB8D30BB0F0BDC4150008409C000007
:406AC0001801000830B50023DB432020094C00210A011219157A202D06D0D268002A03D09A4201D808461346491CC9B22029EFD330BD0000C415000830B50020084C0546C1
:406B00002023020111190B72A550401C4D60C0B2CD602028F5D303480370457030BD0000C41500081801000830B50B4D00231A015219147A202C0AD0D468002901D024184D
:406B400004E0844201D9241A00E00024D4605B1CDBB2202BEBD330BDC415000810B50EC900F0BCFA10BD10B50EC900F0EFFA10BD38B50024E443054600290AD005200090B4
:406B80004B68097804A000F04DFA2860401C00D00024204638BD00007461736B000000000EB5002005216A46009011815081034869460068FFF7D7FF0EBD0000140100081E
:406BC00010B51C481C4C0178491E0170FF206070FCF714F8002823D0FCF7E4FB01460020FCF716F8FCF76AF8401C022811D86288124882420AD0124B0021601CFFF76CFE70
:406C0000002803D00D2010F078FE10BD0220207010BDFF20F530FBF7E3FF00F075F810BD0548084B02220021401CFFF755FE0028E8D110BD1B0100081C010008FFFF0000A9
:406C4000816C0010C16B001010B503480078042801D100F059F810BD1C01000801480078704700001C010008044800210170FF214170FF21F5314180704700001C010008F3
:406C800006490878401E087005480178012901D003210170FF214170704700001B0100081C01000810B505490878401E08700449FF20487000F028F810BD00001B0100087A
:406CC0001C01000801494880704700001C01000801490870704700001C01000810B5054C6078FF2803D000F007F8FF2060700020207010BD1C01000810B502484078FFF7BE
:406D000063FE10BD1C01000810B5114C6078FF2801D0FFF7F1FFFF22043280210820FBF77BFF002809D00B4B022208E00120207010BD0D2010F0E1FD10BD074B052204481E
:406D40000021401CFFF7C8FD0028F2D1EEE700001C010008A56C0010C16B0010C0080A21484380B20849C82801D2084809E002461923C83A5B019A4201D2400801E0FF20C3
:406D8000F5304880704700001C010008FFFF000010B50F4A002313600E4A13600E4B18600E4801600E49012008600E490860882090600E490C4808600D49143008609C38E5
:406DC000506000F0BFF800F0E5F9002010BD000038010008200100084C010008500100083C0100082C0100084C180008300100084401000800207047014610B500200029D1
:406E000010D0094B1A689C685118A14209D25868196080188A0704D08A07920F891A091D196010BD002010BD20010008F8B50024164E671E321F3D463168136806E0142226
:406E4000624310328A58521C1BD0641C9C42F6D36A1C14D02C461422544322460C3288500C214843FFF7C8FF3168002808510AD031680020103408517068401C7060284671
:406E8000F8BD2546E4E73846F8BD000030010008F3B50026F64381B000281BDB1E490968884217D80299002914D01B4F142204463F1D54432546396810354859401C09D0E8
:406EC000FBF75CFF38682F1F4159C359994203DBFBF738FF3046FEBD214608310091465801590C20704308180C220299FDF7F9FF0948761C001D0068C159B14200D1002645
:406F00000549009A091D865008684159491C4151FBF718FF0020FEBD2C010008002803DB07490968884202D90020C043704704491422091D09685043103008587047000009
:406F40002C010008F0B500200D4A451E0346171F50600FE014260146714314680E1DA3510C461668083433511668083435511468401C635039688842ECD30020F0BD00001D
:406F800030010008F3B50026F64381B0002841DB2349096888423DD8029900293AD0204F142204463F1D54432546396810354859401C2FD0FBF7E2FE3868415900292BD033
:406FC000211D009146580C21005971430F46C1190C220298FDF785FF11480021001D0068761C00590C34C0190160416081600C48001D00680159B14200D100260849009A8D
:40700000091D865008684159491E4151FBF79AFE0020FEBD3046FEBDFBF794FEFAE700002C010008FEB504460D4600201E49089E0860471E009001900290002C11D0486867
:4070400085420ED2002A0CD0002E0AD0642E08D808460C3001681C2068430C18207A002801D03846FEBD0120226020721846FFF7DDFE6060401C13D06681A6810A482761D4
:407080000C3067610179A94200D205710021684601810A462846029B00F058F82846FEBD00202072DDE700003801000810B5002810DB0949496888420CD807491C220C31FF
:4070C0000968504308184068FFF728FF002801D0002010BD012010BD3801000838B50124009400F039F838BDFEB50027164EFF433D4600240EE01C20316860430818017AAE
:40710000002906D04068FFF709FF002801D0254603E0641C3079A042EDDA681C12D01C2130684D434419FBF729FE69466068FFF729FF0546FBF706FE002DD9D1216868466C
:407140008847D5E7FEBD00004401000838B50024009400F001F838BD1FB500220C49541E0A60002811DB496888420ED808491C220C31096850430818406801A9FFF788FE9F
:40718000401C02D0002004B010BD2046FBE7000038010008F0B50021114A4D1E174611710C3F0B46BD6016E008461C2460431668041D355114680646235014680836A3551A
:4071C0001468361DA353044616680A34335318301468491C255078688142E5D30020F0BD4401000838B500210091002811DB0F49097888420DDA0D4D04010C35296808595C
:40720000002807D0201D0818694600F073F9002801D0002038BDFBF7B1FD28680F34015D491E0155FBF78EFD009838BD54010008F7B582B0002502986E1E06602F48D21CF0
