:020000041008E2
:4000000000780408F90208100D00000061030810610308106103081061030810000000000000000000000000000000005D0308105D030810000000005D0308105D0308104C
:400040005D0308105D0308105D0308105D0308105D0308105D0308105D0308105D0308105D0308105D0308105D0308105D0308105D0308105D0308105D0308105D03081000
:400080005D0308105D0308105D0308105D0308105D0308105D0308105D0308105D0308105D0308105D0308105D0308105D0308105D0308105D0308105D0308105D030810C0
:4000C0005D0308105D0308105D0308105D0308105D0308105D0308105D0308105D0308105D0308105D0308105D0308105D0308105D0308105D0308105D0308105D03081080
:400100005D0308105D0308105D0308105D0308105D0308105D0308105D0308105D0308105D0308105D0308105D0308105D0308105D0308105D0308105D0308105D0308103F
:400140005D0308105D0308105D0308105D0308105D0308105D0308105D0308105D0308105D0308105D0308105D0308105D0308105D0308105D0308105D0308105D030810FF
:400180005D0308105D0308105D0308105D0308105D0308105D0308105D0308105D0308105D0308105D0308105D0308105D0308105D0308105D0308105D0308105D030810BF
:4001C0005D0308105D0308105D0308105D0308105D0308105D0308105D0308105D0308105D0308105D0308105D0308105D0308105D0308105D0308105D0308105D0308107F
:400200005D0308105D0308105D0308105D0308105D0308105D0308105D0308105D0308105D0308105D0308105D0308105D0308105D0308105D0308105D0308105D0308103E
:400240005D0308105D0308105D0308105D0308105D0308105D0308105D0308105D0308105D0308105D0308105D0308105D0308105D0308105D0308105D0308105D030810FE
:400280005D0308105D0308105D03081010B5054C237833B9044B13B10448AFF300800123237010BD4075020800000000DC330810084B10B51BB108490848AFF30080084857
:4002C000036803B910BD074B002BFBD0BDE81040184700BF0000000044750208DC3308105C460208000000007047EFF3108072B6704780F310887047FFF7F6FF72B6114CDF
:40030000114DAC4209DA21686268A368043BA2BFC858D050FAE70C34F3E70C490C4A00209142BCBF41F8040BFAE70A480A490860BFF34F8F00F0B2FA00F08CFA00F01EF85E
:40034000FEE70000241409103C140910407502083C7F02080040020808ED00E0FEE7FEE700B504207146084202D0EFF3098001E0EFF30880043001F0FBF9FEE708B500F064
:40038000E1F862B600F034F9FCE700BF0D4B01229A619B690C4BB3F90030002B09DB5A0903F01F03012101FA03F36032074941F82230074B1B78012B02D10222054BDA6047
:4003C000704700BF00022640AC29081000E100E05C7502088005324000B583B044F20603984245D010D8B0F5005F34D003D8B0F5805F1CD087E043F20303984231D043F29C
:400400001203984231D07EE044F21003984268D004D844F20803984240D074E045F20103984269D045F20203984269D06BE00021084601F0F9FB10B100F02CF908E002229A
:40044000324B5A600822803B9A600022304B1A7008F082FC57E000F01DF954E0013BDBB200E00623002BF9D14DE001F017F94AE0284B1B78022B06D10222244B5A600822B8
:40048000803B9A603FE0002B3DD102221F4B9A600822803B5A6000F051FA34E01E4B1B88ADF804309DF8053013B91C4AD35C00E0002343BB0020164B18700222134B9A6023
:4004C0000822803B5A60014601F0AEFB10B100F0E1F818E002220D4B5A600822803B9A6011E00F4B1B78022B0DD10222074B9A600822803B9A6006E00A88074B1A8002E067
:400500000822084B5A6003B05DF804FB800032405C7502081D7F02080C7F02081C7F0208147F02080000324008B5044B984204D1034A0121002002F09FF908BDBF00010068
:400540005C75020810B582B04FF0007000F008FF1D4800F0D7F908B100F09CF8684603F073F808B100F096F8184802F077F9184C1849204600F09CFD636943F00103636121
:400580005D2001F0D9F801232362134C1349204600F0FAF9B4F90030002B08DB5A0903F01F000121814060320D4840F82210002B08DB590903F01F03012202FA03F3084ACF
:4005C00042F8213002B010BDD90308102905081000022640DC2B0810AC2908108D03081000E100E008B5002000F0B8FF08BD00BF08B5FFF7F7FF03F037F8224B1B78012BDB
:400600001AD013B1022B26D008BD1F4BB3F90030002B0DDB5A0903F01F03012101FA03F320321A4941F82230BFF34F8FBFF36F8F0222174B9A6008BD134BB3F90030002B16
:400640001FDB590903F01F03012202FA03F30F4A42F8213008BD0C4BB3F90030002B0DDB5A0903F01F03012101FA03F32032074941F82230BFF34F8FBFF36F8F0222044B9A
:400680005A6008BD5C750208AC29081000E100E08005324008B50223064A536002F5A06253600822044B5A607B21044801F050F808BD00BF800032400000324070290810BD
:4006C000704700BF5C4AD2F8803303F00F0303F1D00152F8212002F00702032A04D0042A05D092B9554914E0554A116811E003F1C002514951F8222002F01F02112A06D028
:40070000132A04D04FF4FA4103E04E4901E04FF400418BBB484BD3F8902502F00100D3F88825C2F30172D3F8883513F0405F07D0414BD3F88835C3F30173012B02D102E03F
:40074000012300E0002303B108B9032A46D13A48D0F88025C2F31103D0F88425C2F30C02D0F88005C0F300600130B1FBF2F202FB03F2B2FBF0F131E0012B2FD12E4BD3F88B
:40078000402602F00100D3F80026C2F30172D3F8003613F0405F07D0274BD3F80036C3F30173012B02D102E0012300E0002303B108B9032A12D12048D0F8002602F07F025A
:4007C000D0F80036C3F30423D0F80006C0F3044002FB01F2B2FBF3F2B2FBF0F1164BD3F88033C3F3011321FA03F215494A601648D0F89030C3F3072301330069000E0130E6
:40080000B2FBF0F08860B2FBF3F3CB600B6103F5742202F23F220D48A0FB0202C2F387420A7503F2E7330A4AA2FB03239B098B61DB03CB61704700BF0000264000127A001D
:400840008C42020800366E010000214083DE1B43D34D621008B5104BD3F8802122F0404242F08042C3F88021D3F8802142F00042C3F88021D3F8802122F00102C3F88021C8
:40088000FFF71EFFFFF71EFF00F022F800F028F800F0F8FC08BD00BF0000264008B5FFF724FD074AD2F8883043F47003C2F88830BFF34F8FBFF36F8FFFF71BFD08BD00BF95
:4008C00000ED00E008B5012000F078FB08BD00BF08B500221146042000F0E0F808BD00BF10B5064800F096F900F09FFF0446044800F0FCF9204600F09CFF10BD6075020888
:400900007829081008B518B1094AD062002000E0084858B9084B1B782BB9054801F012F80122054B1A7008B901F038F808BD00BFAC42020801001600E076020808B501F000
:40094000ADF808BD38B50C4B9A680C4B9A420ED10D46044619B9FC21094800F0F9FE04F11003064A52F8230042F8235038BD1030044B53F8200038BD00ED00E00040020884
:40098000E82B08100000081070B338B504460D464368072B03D93621154800F0D9FEB4F900306268002B08DB5201D2B203F1604303F5614383F8002305E003F00F03520179
:4009C000D2B20C49CA540C4B9A680C4B9A420DD11DB94521064800F0BBFE2946B4F90000FFF7B0FF002038BD05487047002038BDE82B081014ED00E000ED00E00040020851
:400A00000100560038B50369002B0DDA0D4604460B0C1B0423B140F2B321044800F098FEA9B26160002038BD014838BD2C2C081001008A0038B50368002B01DA002300E0AA
:400A4000094B73B90D460446C2600B0C1B0423B140F29A21054800F07BFEA9B2A160002038BD014838BD00BF01008A002C2C081038B504460D4619B99921064800F068FE67
:400A80002369002B03DAE3682B60002038BD024838BD00BF6C2C081001008A000F2840D8F8B515460E46044682B979B90F2804D940F2A911214800F04BFE600100F1804068
:400AC00000F50C101E4B18600020F8BD5DB366B316F01F0F2BD10F2C04D940F2A911174800F036FE640104F1804404F50C14144F3C607E60BD60F2080021284601F000FFA5
:400B000000212046FFF77EFF3A4652F8040B0021FFF790FF68B900213868FFF773FF50B9F8BD084870470748F8BD0648F8BD0548F8BD0548F8BD0448F8BD00BFAC2C081072
:400B4000E876020803018A0001018A002DE9F0411B4B1B68DC68236883422CD90D464609A0EB4610012303FA00F819B900F05DFE074600E00027124B18680368002B01DACF
:400B8000002300E00F4B83B9626852F8263018EA030F05D023EA080342F82630002400E0094C0021FFF72EFF00E0084C25B9384600F03FFE00E0064C2046BDE8F08100BFDA
:400BC000E876020801008A00020188000301880004018A000B4B1B68DB681A6882420CD94109A0EB4110012202FA00F05B6853F82130184203D00448704704487047044802
:400C0000704700BFE87602080101880004018A0000018800024B1B680BB9014B18607047F47602082DE9F8430446884691461E46089F2A4B1B681BB9B421294800F088FDDF
:400C4000072C03D9B521264800F082FD234B1B682C2000FB04F01C18F5B21D50C6F307236360360CA6600F2D04D940F2A9111D4800F06EFD6D0105F1804505F50C152561C1
:400C800065680F2D04D94FF4E271164800F060FD154B03EB45156561A668330C1B0423B14FF4F1710F4800F053FD330C1B0423B140F2E3110B4800F04BFDB3B243EA064662
:400CC000AE60C4F81C90C4F820800023A36117B1B7F90030A381BDE8F88300BFF4760208EC2C0810AC2C081000102340F0B58FB0044618B950212C4800F02AFDA369072B10
:400D000003D95421284800F023FDE36A1BB95621254800F01DFDE368072B03D95721224800F016FD236A072B03D958211E4800F00FFD236B1BB959211B4800F009FD07AE35
:400D400004F114050FCD0FC62F6802AD26460FCE0FC533682B60079B1933ADF83030089B0D93A26AE16A0CAD00953B460A98FFF759FF00210091069B0A460598FFF752FF58
:400D8000216B2846FFF700FEBDF93030002B08DB590903F01F03012202FA03F3034A42F821300FB0F0BD00BFEC2C081000E100E0F8B506460F461D4614461AB9FD21264837
:400DC00000F0C6FC254B1B681BB9FE21224800F0BFFC072E03D9FF211F4800F0B9FC072F04D94FF480711C4800F0B2FC1B4B1B682C2101FB063001FB07314B68012202FA52
:400E000003F31B04466802FA06F60269EAB18F69EFB91268002A01DA002200E0104AC2B92288134323600369DC6001238B614D620469330C1B0423B140F29A21094800F044
:400E400087FCB2B2A2600020F8BD0748F8BD0748F8BD0648F8BD00BFEC2C0810F476020801008A00AC2C081004028A0007028A00F8B505460F461646124B1B6823B940F211
:400E80006111114800F064FC072D04D94FF4B1710D4800F05DFC0B4B1B682C2404FB0534236A23B94FF4B371074800F051FCE369B34204D9236A43F826700020F8BD0348AA
:400EC000F8BD00BFF4760208EC2C08100A028A0038B504460D460B4B1B6823B940F29311094800F035FC072C04D94FF4CA71064800F02EFC034B1B682C2202FB0434A5626C
:400F000038BD00BFF4760208EC2C081070B582B000230193044620B94FF4EA71264800F017FC236923B940F2D511234800F010FC636923B94FF4EB711F4800F009FC236A02
:400F400023B940F2D7111C4800F002FC6369DD682A0C1CD012041A601B6820690369002B15DA01A9FFF784FD60B9019803681E0CDBB2E269934206D2226A52F8233013B1FA
:400F8000984700E0002631462069FFF73BFDADB275B16369ADB21D601B68636A1BB198470023636202E0A36A03B198470023A36163691B6802B070BDEC2C081010B50446F8
:400FC0000B4B1B6823B94FF4DA710A4800F0C0FB072C04D940F2B511064800F0B9FB044B1B682C2000FB0430FFF790FF10BD00BFF4760208EC2C081010B50446134B1B68C5
:4010000023B940F22D21124800F0A2FB072C04D940F22E210E4800F09BFB0C4B1B682C2202FB0434B4F90C30002B0DDB5A0903F01F03012101FA03F32032064941F82230F0
:40104000BFF34F8FBFF36F8F002010BDF4760208EC2C081000E100E010B50446114B1B6823B940F24D21104800F072FB072C04D940F24E210C4800F06BFB0A4B1B682C223E
:4010800002FB0434B4F90C30002B08DB590903F01F03012202FA03F3044A42F82130002010BD00BFF4760208EC2C081000E100E0002867D038B50546002965D00B7A1BB148
:4010C0000B88B3FA83F35B090C461BB12F212F4800F03EFB637A1BB16388B3FA83F35B091BB13021294800F033FBA3791F2B03D93121264800F02CFB2379032B03D93221EF
:40110000224800F025FB6379032B03D933211F4800F01EFBE379032B03D934211B4800F017FB6288238843EA0243EB60A3791B0603F0F851E279130403F480330B43227A9A
:40114000920002F004021343627A920202F480621343E27A12B14FF4006200E0002213436279120202F440721343A27A0AB1082200E000221343227902F0030213432B611B
:40118000002038BD02487047014838BD2C2D08100100D6001F4B98422DD00CD840282ED003D8E8B1102828D02FE0802829D0B0F5807F28D029E0184B984228D006D8B0F15B
:4011C000204F0DD0154B984212D01EE0144B98420AD00133984209D0023B984215D101E0002070470F4870470F4870470F4870474FF4A0007047074870470D4870470D48AF
:4012000070470D487047034870470C4870474FF4A400704706005200010000F0090000A0040000F0010052000200520003005200010050000200500005005200FF00520013
:4012400008B50C4B1B69002B12DB0B4B1868FFF7A1FF0122094BC3F88C24084BD3F80C34002BFAD1054BD3F88C34002BF5D108BD034808BD20002340F8760208000025401B
:401280000200500000B583B05523ADF80030002301930C496846FFF777FBBDF90030002B08DB590903F01F03012202FA03F3064A42F82130022205490120FFF7D9FD03B018
:4012C0005DF804FBDD46020800E100E0B1460208104B03F5F2421268026003F5F0421268426047F604029A58826047F608029A58C26047F60C029A58026147F610029A58AF
:40130000426147F614029A58826147F618029B58C3617047000034404168104B03F5F0421160816847F604029950C16847F608029950016947F60C029950416947F61002A5
:401340009950816947F614029950C16947F618029950026803F5F2431A6070470000344010B5044620F07F6323F4402323B14FF49961144800F0ECF914F0806F04D0124AD8
:40138000536823F48003536014F0006F04D00E4A536823F40003536014F0807F04D00A4A536823F48013536014F0007F04D0064A536823F400135360034B5A6814435C6059
:4013C0005B6810BD6C2D08100000264038B5044600F02BFA2CB1184B5B681F2B03D9002302E0002300E001231D460BB3E368E3B12368E3B1104B99680B46002203E0A342EF
:4014000004D01A465B69002BF9D100E000257DB111B9094B9C6000E05461226100236361054A53680133536002E0002500E0002500F0FFF9284638BD0877020838B504466B
:4014400000F0F3F9144B5A680AB399680B4602E0A34204D05B69002BFAD1002500E00125B5B1A14206D14B695BB10B498B600021196106E019695C694C61596909B11B694C
:401480000B61013A044B5A6012B99A6000E0002500F0CFF9284638BD0877020870B584B005460E46042804D940F69501284800F04FF9731EDBB2012B08D9042E06D0082E30
:4014C00004D040F69601224800F042F9042E01D0012E1CD11F4B9C68002013E023799D420FD1A3680BB133420BD1E3685A6802929B68039304A800F80C6D23689847154B82
:40150000DC6064690CB3144B9842E7D11DE0114BDC68022E01D104B12469002011E023799D420DD1A3680BB1334209D1E3685A6802929B68039304A800F80C6D23689847D0
:40154000246914B1044B9842E9D104B070BD00BF6C2D081008770208FF00420070B50546012804D94FF40471384800F0F1F8384B5B682BB101210846FFF790FF044600E053
:401580000024002C5AD100F050F90646304B5B681BB104210120FFF781FF2E4BD3F8E03013F0100F02D02C48FFF792FE4FF0B0535B7813F0FF0F04D04FF0B0535B78DBB287
:4015C00000E02123212B03D1284601F0C9F921E022494FF61C73CB5803F01F024FF0B05393F84037DBB29B1A18BF01230A6812F4000F07D133B11A4B196847F63073174A24
:40160000D15004E0002147F63073144AD150284601F09EF90F4BD3F8E03013F0100F02D00D48FFF779FE304600F003F9084B5B684BB108210120FFF731FF04E00221012038
:40164000FFF72CFF074C204670BD00BF6C2D08100877020800000140187702080000264010180016FF00420008B500F0DEF8094B5B6813F4003F0AD1064B5A6822F47F4206
:401680005A605968044A0A435A605A685A6000F0D0F808BD00002640003A028038B5154B5B682BB101210220FFF7F8FE044600E00024C4B900F0B9F80E4B5B681BB10421AA
:4016C0000220FFF7EBFE0C4D6A680C4B134043F01B036B60FFF7C8FF6A68094B13436B606B6830BF04E002210846FFF7D7FE054C204638BD08770208000026400000FC0F6C
:40170000003A0280FF00420010B5044605E0084B186800F081F8A4F50044B4F5004FF6D8044B186800FB04F000F076F810BD00BFA8420208A442020808B5034B1B7800FBB4
:4017400003F000F069F808BDA042020801BEFEE738B50D46044C18220146204601F0D8F8A5610020FFF7F2FF004B0208FEE700BF08B50268254BDA6142681A6282685A62F4
:40178000C2689A620269DA6242691A6382695A63C2699A631E4A916AD963D16A1964516A5964516B9964926BDA64F1EE103A13F0900F27D0026A154B1A65426A5A65826A3D
:4017C0009A65C26ADA65026B1A66426B5A66826B9A66C26BDA66026C1A67426C5A67826C9A67C26CDA67026DC3F88020426DC3F88420826DC3F88820C26DC3F88C20026EDF
:40180000C3F89020FFF7B2FF08BD00BF004B020800ED00E0000000000230800803D001300238FCD100BF00BF7047EFF3108072B6704780F31088704710B50378012B02D0A5
:40184000082B29D02EE01B4B1B78012B2CD00320FFF7C0F9184B984228D0FFF7E6FF174B1860022001F002FF044601F00AFF022C05D1032805D0052805D1002404E0104C8E
:4018800002E0002400E00E4C0D4B9C420FD10B4B1868FFF7CEFF0AE0084B1868FFF7C9FF002404E0064C02E0054C00E0044C204610BD00BF147F020801018800387702082F
:4018C000FF00420008B50378022B1CD0082B14D0012B1ED1124B1B78012B1CD0FFF7A5FF104B5860022001F0C1FE022815D00D4B5868FFF79EFF0C4808BD0A4B5868FFF7BF
:4019000098FF002008BD074B5868FFF792FF064808BD054808BD044808BD002008BD00BF147F020838770208FF00420010B5044C2046FFF783FD04F11800FFF77FFD10BDE4
:401940006044020810B5A0B10C4A9060C36A03B1D36000240A4B1C700A4B1C700A4B1C600A4B1C7000F054F9094B1C70094B1C7000E0094CFEF7B4FF204610BD38770208EB
:40198000247F0208287F02082C7F0208297F0208137F0208187F02080100160010B590B0354B0CAC186859689A68DB680FC42822002102A800F0A4FF304B02930CAB049372
:4019C00042F65413ADF8143004238DF816302C4A92681269069241F2960207921B22ADF82020ADF8222003228DF824208DF8253006238DF8263010238DF827308DF82830C5
:401A00008DF829307223ADF82A3001238DF82E301C4C2046FFF7DAFC04F11800FFF7D6FC01F010FE08A801F077FE034600BB164B039302A801F038FE0346B0B90122134BAA
:401A40001A700023124A1370124A13700C4B9B681A6A00929B6ADB88ADF804302623ADF8063068460AF0FEFB034600210A4A1160184610B010BD00BFAC2D08103D20081046
:401A80003877020860440208944B0208147F02081C7F02081D7F02082C7F020808B502F07FFF08BD08B5044B1B689847034B1B6803B1984708BD00BF647702084877020843
:401AC00008B510B1034A52689047034B1B6803B1984708BD647702084877020870B5C0B006460C4615464FF480720849684600F0FCFE05E016F8012B6A401DF80250013C9A
:401B0000002CF7D1284640B070BD00BFBC2D081008B50022FFF7E2FF08BD00BF08B5FFF784FE08BD08B5FFF784FE08BD08B50120FFF792FA08BD00BF08B5FFF7F7FF08BDE6
:401B400008B50120FFF758FA08BD00BF08B5FFF7F7FF08BD08B5094B58601960012208491046FFF785F9034628B9002205490120FFF77EF90346184608BD00BF6477020895
:401B8000C11A0810A51A081038B515460B46024601210020FFF70CF9044618B129460120FFF796F9204638BD704700BF704700BF00207047004870471100160000487047D2
:401BC00011001600004870471100160000487047110016000048704711001600004870471100160000487047110016000048704711001600004870471100160000487047B5
:401C0000110016000048704711001600704700BF08B5034800F086FD024800F009FE08BD4C44020854440208F8B5022872D8002972D10022134606E03B4CE45C012C01D968
:401C40000132D2B20133002BF6D0012A0CD1374B1B681C6801EB8102930023445B681B79023BDBB2012B59D8314B1B78002B57D1304B1970E0B92D4F3C68236801EB8105F4
:401C8000AA009D186668C1EBC1014B001E44B18829822168114449686468E45A0C8039680C682244526849680B445B8853801EE001281CD11D4F3C68236801EB8105AA001D
:401CC0009D186668C1EBC1014B001E44B1892982216811444D68616819440989298039680C682244526849680B445B895380124B18700E4B1B6818680E4B1B7803EB8303E0
:401D00009A00104406F044F8034650B90121084A117006E0094B04E0084B02E0084B00E0084B1846F8BD00BF1C7F0208407702081D7F0208127F0208297F02080100160021
:401D400002001600FF00160070B439B9144B1B681B689968CE7F00231D460EE0104B1B681B68D968CE7FF6E7CA5C52B10133CC5C1B2C01D0134400E00125B34201D2002D3E
:401D8000F2D05DB101338279CA54002204E0D4180134855C0D550132052AF8D970BC70474077020870B504460AF0A8FA054620BB134B1968086A228902EB82029300143B45
:401DC00003445A6812F0007F17D0E67B1B695A68CB69D21A06EB4606B318A28821680948184400F082FDE37B074AD35C012B04D1064A137843F002031370284670BD00BF05
:401E000040770208207F0208187F0208137F020830B587B002891A4B1B685B699B889A4229D1044601AB07C883E807000022ADF81020A289ADF8122040228DF81420184606
:401E4000FFF7B0FF054680B923681B7803F002039BB22BB10B4B1B6821460B48984704E0084B1B68214609489847094A137803F0FE03137000E00025284607B030BD00BF0C
:401E800040770208447702080500010006000100247F020838B50289531E9BB2182B1AD8C17BD1B90E4B1C68256A02EB82029300143B2B445A6812F0007F09D01B695A6821
:401EC000E369D31A01EB41011944064B5B5A13800AF0E2F938BD012038BD012038BD00BF40770208207F02084288531E9BB2182B1AD84178D1B910B40F4B1868046A02EB6D
:401F000082029300143B23445A6812F0007F0FD01B695A68C369D31A01EB41011944074B5B5A1380002004E0012070470120704700205DF8044B704740770208207F020895
:401F400000B583B00023ADF804308389ADF800300389ADF8023012238DF80430084B1B7813F0010F09D129B18DF80510684609F0A9FA02E0C06809F0C5FA03B05DF804FBF1
:401F8000247F020810B4044688B10023194606E0114A52F82320944200D1012101330E4A127A934206D20029F2D0002003E000210A4800E0002058B951B9074B1B7A012BC0
:401FC00005D8054A42F823400133137200E004485DF8044B704700BF307F0208010016000300160070B506460D460020044606E0084B53F824302946304698470134054BE1
:402000001B7A9C4204D2044B1B7813F0010FEFD170BD00BF307F0208247F020883792BB100207047C25C32B9013300E00023052BF8D9002070470120704700BF70B58CB091
:4020400004460D46BC4A137843F00103137044F20A03984200F0EF813BD842F20403984200F0DD8019D841F20203984200F0048108D8B0F5805F6AD041F20103984200F06F
:40208000F88035E341F20303984200F02E8141F20403984200F027832AE344F20603984200F017820AD843F21203984200F0AC8044F20403984200F02C8119E344F207036F
:4020C000984200F0BB8144F20803984200F0FD810EE345F20E03984200F0F1821BD845F20203984200F07F820AD844F21003984200F0A48145F20103984200F02982F7E23E
:4021000045F20303984200F0878245F20C03984200F0AE82ECE245F21403984200F0D8820AD845F20F03984200F0CC8245F21003984200F0CA82DBE245F21703984200F094
:40214000CA8246F20103984200F0FF81D0E27B4B1E683046FFF762FF60B1304606F00EFE764E00213068FFF7EFFD01213068FFF7EBFD37E0724B1A68936A1B791BB34FF04E
:40218000B05191F8043603F03F0391F8050600F03F0043EA801391F8030600F01F0043EA003391F8001601F07F0143EA4143126B1370634A1168096BC3F307204870126838
:4021C000126B1B0C93705E4E3368186B06F0D6FD33680021186BFFF7B7FD33680121186BFFF7B2FD564B1B68986A023007F0DCF9544A05AB1068516803C305A806F0E2FDEC
:402200000222514B1A7073E200234F4A13704F4A13700A20FFF778FAFFF788FB68E24C4B1B6813F0010F40F063820023ADF814308DF81630424E33689B6A93F900308DF8C5
:40224000143005A806F0D8FD33689B6A93F901308DF8143001238DF81530FF238DF8163005A806F0C9FD3A4A136843F0010313603EE2FFF7B7FE3BE24978364B1B88ADF81D
:402280001430002319E0344A32F81320ADF808209DF8092012B93148825C00E00022012A0AD92D4A12F81320914205D12A4A32F81330ADF8143002E00133002BE3D09DF876
:4022C0001530FF2B05D104D14FF472712448FFF73FFABDF81430ADF82030ADF81C30C3F3072329781F4AD15402E20B78002B40F0FF810B7A3BB91C4B0322DA8028229A8010
:402300001A4A1A604B600C4A137803F0FE031370EEE149790F4B1B88ADF81430002336E00D4A32F81320ADF80C209DF80D20FAB90A48825C1DE000BF247F0208904402089B
:4023400040770208BC2E0810147F02081D7F02082C7F0208C42E0810107F02081C7F0208C82E0810287F020884770208E87402080022012A0AD9AD4A12F81320914205D123
:40238000AA4A32F81330ADF8143002E00133002BC6D09DF81530FF2B05D104D14FF47271A348FFF7D5F9BDF81430ADF82430ADF81430C3F3072369789E4AD154EB78002B41
:4023C00040F0968169799C4B1B88ADF81430002319E0964A32F81320ADF810209DF8112012B99648825C00E00022012A0AD98F4A12F81320914205D18C4A32F81330ADF80F
:40240000143002E00133002BE3D09DF81530FF2B05D104D14FF472718548FFF799F9BDF81430ADF82830ADF81430C3F307230121834AD1545CE1FFF7D5FD59E1AB7E002BD4
:402440003FD12B7E012B02D100227E4B1A70E97E794B1B88ADF81030002319E0734A32F81320ADF814209DF8152012B97348825C00E00022012A0AD96C4A12F81320914269
:4024800005D16A4A32F81330ADF8103002E00133002BE3D09DF81130FF2B05D104D14FF472716348FFF754F9BDF81030ADF82C30ADF81030C3F30723FF2B02D0297E624A83
:4024C000D1540222614B1A7012E102225F4B1A700EE1FFF787FD5E4B1B7813F0010F00F00781584B1B78012B03D10222554B1A70FEE0032B03D10022524B1A70F8E0022B30
:4025000040F0F68000224F4B1A70524B1B685B68514A1178C1EBC10203EB42039A79002A00F0E6809B88002B00F0E2804B4B1B78002B40F0DD800120FFF776FB002840F012
:40254000D78001223F4B1A70D2E0FFF74BFDCFE00B88ADF800309DF801301BB90221374AD15405E023B94FF461713148FFF7F0F86A7829882D4B23F812106B780021384A68
:40258000D15403EB4302374E9119324B1B6818692B7803EB430303F584531033034433F8060F9B7890538B70687800EB400002213044FFF7ADFA6B7803EB430333449B78D2
:4025C00098420BD0284B1B680021284898476B7803EB4303981900229A53827029462046FFF700FD84E00B88ADF804309DF805301BB90021114AD15405E023B94FF461714A
:402600000B48FFF7A5F86B7800210D4AD15429462046FFF7E7FC6BE00B88ADF814301723ADF8163005A808F059FF61E0107F0208C82E0810187F0208C42E08101C7F020865
:402640007C7702081D7F020880770208147F0208247F020840770208127F0208297F0208287F0208207F020844770208040001000A89531E9BB2182B13D98B89ADF81430BD
:40268000ADF8162012238DF8183001238DF8193005A808F017FF1F4A137803F0FE03137026E00846FFF7B4FB014620B929462046FFF798FC01462846FFF742FC18E0FFF7D6
:4026C00091FC15E0FFF78EFC12E0FFF78BFC0FE0FFF788FC0CE00846FFF706FC29462046FFF780FC04E00C4A137843F001031370084B1B7813F0110F09D0064A137803F058
:40270000FE031370054B1B682946204698470CB070BD00BF247F0208137F0208447702080020704730B108B5034A10600348FFF729FC08BD02487047907702082127081009
:40274000010016001C4B1B68002B34D01A4B5B681B685A8803899A422DD18388012B2AD103681B78022B26D810B588B0044603AB07C883E807000022ADF81820A289ADF8D6
:402780001A2040228DF81C201846FFF70BFB80B9A389ADF8043000238DF806300294064B1B6801A905489847054A137803F0FE03137008B010BD704794770208BF000100A4
:4027C000247F020800B587B000238DF81730009301930293039304930123ADF80430074B5B681B685B88ADF808300DF1170300936846FFF7D7FA07B05DF804FB94770208D3
:40280000B0F5803F11D208B583B245F20202934207D045F20E02934205D10846FFF792FF01E0FFF7CFFF002008BD0020704700BF50B110B5064C60600648FFF7A3FB63680C
:402840005B681BB1236010BD0348704710BD00BF947702080128081001001600044B18605B6813B15860002070470248704700BF9477020802001600DAB11346D8B9012915
:402880001BD100B587B0002202920392049205920193ADF808100B4B5B681B685B88ADF80C3001A8FFF7F6FA08B1074807E0002005E005487047044870470348704707B0D4
:4028C0005DF804FB947702080100160010B501390244904207D010F8013B11F8014FA342F7D0181B10BD002010BD10B5431E0A44914204D011F8014B03F8014FF8E710BDCD
:4029000002440346934202D003F8011BFAE7704710B5034642B111F8014B03F8014B013A002CF7D11A4400E010BD934202D003F8014BFAE710BD0000F8B500BFF8BC08BC5B
:402940009E467047F8B500BFF8BC08BC9E46704701B40248844601BC604700BFF549020801B40248844601BC604700BFFD48020864656275672E6300030000000100000032
:40298000010000000000000005036000040000000100000000000000010000000604600008000000C0760208C50808101300000007000000000003000100190001000028B1
:4029C00001000000090000000018000000000000020003280100020003000000002A0000000000000300002A01000201030000000E000000F44202080400032801000200A4
:402A000005000000012A0000000000000500012A010002010500000002000000FC420208060003280100020007000000042A0000000000000700042A01000201070000003A
:402A40000800000004430208080003280100020009000000A62A0000000000000900A62A0100020109000000010000000C4302080A000028010000000D0000000118000055
:402A8000000000000B000328010020000D000000052A0000000000000C00052A000020010D00000004000000144302080D00022901010A030D000000020000001C430208F6
:402AC0000E000028010000001000000002180000000000000F0003280100040010000000062A0000000000001000062A0001040110000000010000002443020811000028F5
:402B000001000000190000000A18000000000000120003280100020013000000292A0000000000001300292A0100020113000000210000002C43020814000328010002005A
:402B400015000000242A0000000000001500242A01000201150000002000000034430208160003280100020017000000272A0000000000001700272A0100020117000000A6
:402B8000260000003C430208180003280100020019000000262A0000000000001900262A010002011900000005000000444302080100030005000700090000000A000C006C
:402BC0000D00000011001300150000001700190000000000000000000E0010003F1F0080010010000100000047656E6572617465645F536F757263655C50536F43365C703F
:402C0000646C5C647269766572735C7065726970686572616C5C737973696E745C63795F737973696E742E630000000047656E6572617465645F536F757263655C50536F3C
:402C400043365C70646C5C647269766572735C7065726970686572616C5C6970635C63795F6970635F6472762E68000047656E6572617465645F536F757263655C50536FE3
:402C800043365C70646C5C647269766572735C7065726970686572616C5C6970635C63795F6970635F6472762E63000047656E6572617465645F536F757263655C50536FA8
:402CC00043365C70646C5C647269766572732F7065726970686572616C2F6970632F63795F6970635F6472762E68000047656E6572617465645F536F757263655C50536FEA
:402D000043365C70646C5C647269766572735C7065726970686572616C5C6970635C63795F6970635F706970652E630047656E6572617465645F536F757263655C50536FC5
:402D400043365C70646C5C647269766572735C7065726970686572616C5C6D637764745C63795F6D637764742E63000047656E6572617465645F536F757263655C50536FCC
:402D800043365C70646C5C647269766572735C7065726970686572616C5C737973706D5C63795F737973706D2E63000024000600300001002800020024000200003162538E
:402DC000C4F5A697B988DBEA7D4C1F2E4372211087B6E5D4FACB98A93E0F5C6D86B7E4D5427320113F0E5D6CFBCA99A8C5F4A796013063527C4D1E2FB889DAEB3D0C5F6EC3
:402E0000F9C89BAA84B5E6D7407122137E4F1C2DBA8BD8E9C7F6A59403326150BB8AD9E87F4E1D2C02336051C6F7A495F8C99AAB3C0D5E6F4170231285B4E7D67A4B1829C2
:402E4000BE8FDCEDC3F2A1900736655439085B6AFDCC9FAE80B1E2D344752617FCCD9EAF38095A6B4574271681B0E3D2BF8EDDEC7B4A192806376455C2F3A0914776251482
:402E800083B2E1D0FECF9CAD3A0B586904356657C0F1A293BD8CDFEE79481B2AC1F0A3920534675678491A2BBC8DDEEF82B3E0D1467724153B0A5968FFCE9DAC3F060000E3
:402EC00000000000FFFF000047656E6572617465645F536F757263655C50536F43365C70646C5C6D6964646C65776172655C626C655C63795F626C655F6761702E680000F2
:402F0000000404000104080002041400030C200004042C00050648009D770810317C0810317C0810317C0810317C081019620810ED620810317C0810317C0810317C081023
:402F4000317C0810317C0810317C0810317C0810317C0810317C0810317C0810C5790810117A0810497008104D72081029760810B55008100000000084330810243308103B
:402F80000800000039EB081000000000F4310810403108100F000000000000000000000000000000000000000000000001200000C58708100620000009890810072000007C
:402FC000D987081008200000C988081009200000C98908100A200000C58608100B2000008D8908100C20000055890810102000002187081011200000A1860810122000009B
:40300000A58808101420000041890810152000003987081017200000F58608100E20000025870810ACFD00009B8B0810ADFD00008F8A0810A0FD0000058C0810A1FD0000C6
:40304000EF8A0810A2FD00002B8B0810A5FD0000FB8C0810A6FD00005F8C0810A8FD0000618A0810A9FD0000378A0810AAFD0000538B0810ABFD0000C18C0810AFFD0000EE
:40308000518B0810C3FD0000AD8C0810B0FD0000258C0810B2FD0000738C0810051400007F8708102D0C0000598808107B0C0000078808107C0C0000FD89081027200F209C
:4030C00028201020292010202B200A202C200B202D200D202E200C204E20172000000100010000010001020203000200000000000202010002000001000100050100050237
:403100000203000200000000000205010005000055E30810BDE40810C5E3081001010B0102028102820503040403840906090709080909090A09050A0C0B0D0D0E0E00004A
:40314000010000000100000000000000020000000400000002000000030000000700000005000000040000000A00000008000000050000000C0000000B00000006000000FE
:403180000E0000000D00000007000000100000000F0000000800000013000000110000000900000016000000140000000A0000001700000017000000FF0000001800000020
:4031C000180000000B0000001B000000190000000C0000001D0000001C0000000D0000001F0000001E0000000E00000021000000200000000100000095070910FEFFFFFFE9
:403200006106091001000000950709100600000059090910F8FFFFFF61060910180012007D060910A000000CD503091047FFEDFB61060910E8000C00CD0509100001200051
:40324000DD0409101FFED3FF61060910A000000CC90D09105FFFFFFB6106091000020000210C0910FFFDFFFF61060910000C0000DD020910FFF3FFFF61060910000A000032
:403280008105091001000000A1050910FEF7FFFF61060910002000002104091000400000D10C0910FF9FFFFF61060910FFFFFFFF67060910FFFFFFFFD5020910008000009E
:4032C000D102091000000100CD020910FF7FFEFF6106091000800100C5020910FF7FFEFF6106091000008003C1020910FFFF7FFC6106091000801F0AC9020910FF7FE0F56A
:403300006106091000000000000000000000000000000000870000000000000000000000000000008100000000000000000000008200000001000000010000000100000080
:403340000200000002000000020000000400000003000000030000000600000005000000F10000000700000007000000F20000000900000008000000FF0000000A00000027
:403380000A000000020000005912091001000000591209100E0000004D11091002000000911109100C0000003511091002000000D11109100C000000351109100E000000D5
:4033C000591209100C0000009512091002000000351109100E000000D9120910000000002DE9F05F00250746041D00F1180840682E4E4FF6FF7A88B1616879B180070DD18E
:40340000207A80070AD198F80E0038B12849084600F0B2FB10EA0A0002D044E0354642E02289A37ADFF88C90206858B1C9F800000025A9F80420A9F80650A9F808302946E0
:40344000FFF75EFAA07A801D00F0FF0B5946606800F072F8050021D1404601F07DF905001CD1E06820B1384600F0DCFA050015D1B9F80400B9F80610884206D3401A80B2C3
:40348000594600F0B9FE20B100E05046354628B109E0A07A801DC0B200F0D6F900F0EAF90549012008702846BDE8F09F010016006D3708109C770208944402080348007869
:4034C000012801D100F028BD704700009444020810B500F083FB0449002008608880C88008810249087010BD9C7702089444020870B5044600208A0703D001F00302891A67
:40350000091D084B89B2DA889E885518B54206D81D682A442260DA881144D98070BD024870BD00009C7702080300160001480089704700009C7702082DE9F84705460C4616
:403540000020890000908A466846FFF7D1FF07004BD12748009B0022036017E003F82220062A08D2234803EB820100EB820046784E70408807E005EB8200183803EB820137
:4035800086784E700088521C4880D2B2A242E5D300251EE005F1010909F0FF0015E003EB850203EB8001B2F802C04E88B4450AD991F80180A1F802C092F801C081F801C075
:4035C000568082F80180401CC0B2A042E7D309F0FF05A542DED347B951466846FFF788FF070002D10449009808603846BDE8F88798440208002F08109C440208F0B5002391
:4036000019E05A1C00EB830612E030F8235030F82240A5420BD2778820F8234000EB8204B4F802C0A6F802C020F822506780521C8A42EAD35B1C8B42E3D3F0BD0048704705
:40364000A877020805F016BD064948B140F29531818005210170002141700221817000210846704701001600FFF728BF10B5022401F016F810B100F03DFF00B90124204666
:4036800010BD05207047000010B5002428B110220349FFF72AF9204610BD024810BD0000A877020801001600F8B506004FF000008DF8000006F1040407D020892081304671
:4036C00001F0C6F8050002D011E01248F8BDA17A6A46606801F096F8050008D1E06830B1708C000903D0304600F0FAF905462089208165B93046FFF773FE050007D1304617
:4037000000F09EFF0546A17A6068FFF777FF2846F8BD00000100160038B504004FF00000ADF8000008D06189090A05D1617A102902D8E179102901D90A4838BDA081694636
:40374000204600F0B9FF0500A089BDF800100844A08104D1102221460348FFF7C6F8284638BD000001001600A877020870470000002809D005494A68002A05D0011F087874
:4037800052F8200000F0E2BC704700009844020810B50446FFF7CAFEC0B2801DA0420BD30648406840B150F8240000F03BFC002801D000F8044B10BD002010BD984402087E
:4037C000F8B516460D460446FFF7B0FEC0B2801DA04203D24FF0FF300090F8BDB2B2E9B2684600F049FC0099481C03D00248406840F824100098F8BD984402082DE9F0417C
:403800000746FFF793FE801D0B49C6B2002005460C680CE0617839B16188B94202D32078FFF7B6FF002804D1241D6D1CEDB2B542F0D3BDE8F081000098440208002801D0AC
:40384000FFF796BF7047000070B506460848002504680AE0617829B162882078121D0023FFF7AEFF241D6D1CEDB2B542F2D370BD984402081CB50024142001908DF8004029
:403880002346064A694606480BF0E4FE04480068401C01D14FF6FF7420461CBDDD380810A04402080EB50C4A0146002312684FF6FF7004290DD009290AD109200093ADF858
:4038C0000800ADF80A30694610460BF0C0FE80B20EBD04200093F2E7A044020870B5D0E90054468900890C282DD2DFE800F02C2C0606112C2C152C191C27E0B23246294651
:4039000009F09AF8E0B23246294600F035FD1AE000200BF0ABFB16E02878FEF777F912E000F008FE0FE0E8B2022C02D008F0C2FD09E0FF2807D002F041FF04E02846022CEA
:4039400003D008F08DFE002070BD03F011FAFAE70148006800F0C8BAA04402082DE9F0411F4F0026386D60B1796D51B14218891E12F8024C0022FEF7B1F8844201D0194E24
:403980002BE0002505EB850307EB8304606800B357F82310E9B16289D7F854C0624518D294F80CC01CF0090F02D0FEF79EFF0AE009780170606831B1628957F82310083ADB
:4039C00008310830F1E723691BB10122207B114698476D1CADB2042DD4D33046BDE8F081B8770208FFFF1600F0B5C10701D040F008000B4CFF2184F85D10002101250E4628
:403A000001EB810204EB820205FA01F3177B03409F4200D11681491CC9B20429F0D3F0BDB877020870B5124900B3418C114CC1F30711002584F85C10016921654069C4E961
:403A40001505FF2684F85D6028464FF6FF7300EB800204EB8201401C4B8144F822500D610E73C0B20D810428F1D30021084670BD01001600B877020810B5174B48B341784E
:403A800039B3002202E04908521CD2B20029FAD102EB8201114A02EB810111F8084CFF2C17D103787BB1438821F80A3C946D136D234441F8143C4488936D234493658268DE
:403AC0000AB141F8042C103942780A72406800230860184610BD000001001600B8770208F0B5428C234C46690021C2F30712D2B3D3070BD090F8203003EBC30505EB4315E5
:403B000001EB850101EB031101F14001530715D5C37F2C2513FB05F55FEA857C4FF00C0723D003EB430505EBC30307EB830505F00305C5EB830505F11005294492070ED5E3
:403B400090F821004FF00803C20095070FD003EBC00202F00302C2EBC0020C321144891C8E4200D300242046F0BD0C35E5E70832F4E70000010016000F4A10B50023136000
:403B80000E4A13600E4B18600E4801600E49012008600E49086000020E4990600C4808600D4914300860A0F58A70506000F0D0F800F008FA002010BDBC440208A44402083A
:403BC000D0440208D4440208C0440208B044020818790208B4440208C84402080020704710B501004FF0000010D0094B1A689C681144A14209D25868196010448A0704D02B
:403C000001F00302891A091D196010BD002010BDA44402082DE9F04102461A4F002010253B1F4FF0FF38444639681B6807E000EB800605EB86068E59761C1ED0401C984264
:403C4000F5D3601C16D004EB84060C2000EB86000A5002EB42008000FFF7C2FF396841F8260060B1396805EB8602002088507868401C78602046BDE8F0810446E1E74046FA
:403C8000F9E70000B44402082DE9F0410F464FF0FF36002821DB2249096888421DD8E7B1DFF87C8000EB800508F104081020D8F8001000EB85040859401C0ED0FDF746FF1B
:403CC000D8F800000C2202EB8502015950F802C04346614504DBFDF72FFF3046BDE8F081082101EB8506815950F8250001EB410500EB85003D6805607D684560BD6885600B
:403D00001868491C82588A4200D10021815118680159491C0151FDF70FFF0020DEE70000B0440208002803DB08490968884202D94FF0FF307047054900EB8000091D10221B
:403D4000096802EB8000085870470000B04402082DE9F0430020134A0427441E03464FF0080C1025A2F10409506014E000EB8001166807EB8108401C46F8083016680CEB3C
:403D8000810846F80830166805EB810846F80840166846F82130D9F800108842E6D30020BDE8F083B44402082DE9F0410E464FF0FF3700284CDB29490968884248D8EEB30F
:403DC000DFF8988000EB800408F104081020D8F8001000EB84054859401C39D0FDF7B6FED8F800004346415949B3042101EB8407C25950F8240002EB420100EB8100521C12
:403E0000D0F800C0C6F800C0D0F804C0C6F804C08068B060186850F8240000EB810000210160416081600C21186801EB84014158914200D10022C251186801E008E009E058
:403E40004159491E4151FDF777FE0020BDE8F0813846FBE7FDF770FEFAE70000B04402082DE9F0470D4601001E4C4FF00000089E80464FF0FF37206010D0606885420DD276
:403E800062B15EB1642E09D804F10C09C5EBC501D9F8000000EB8104207A10B13846BDE8F0870120226020721846FFF7B3FE6060401C13D06681A6812761676199F804107B
:403EC000A94201D289F8045041460B4661F30F030A46284600F052F82846E0E784F80880DCE70000BC44020810B5002810DB0949496888420CD80749C0EBC0000C31096801
:403F000001EB80004068FFF70DFF08B1002010BD012010BDBC440208FEB5174E4FF0FF373D4600240DE03068C4EBC40100EB8100017A29B14068FFF7F5FE08B1254603E047
:403F4000641C3079A042EEDA681C13D03068C5EBC50100EB8104FDF7F9FD69466068FFF723FF0546FDF7E8FD002DD9D1216868468847D5E7FEBD0000C844020838B5002471
:403F8000009400F001F838BD1FB500220C49541E00280A6012DB496888420FD80849C0EBC0000C31096801EB800001A94068FFF76BFE401C02D0002004B010BD2046FBE753
:403FC000BC440208F0B50021154A4E1EA2F10C0711710B46BE601EE0C1EBC1000425146805EB800566511468082505EB800544F820301468635514680C2505EB800563539D
:4040000014680A2505EB800563531825146805EB8000491C265078688142DDD30020F0BDC844020838B5041E4FF00000009012DB1048007884420EDA0E4D0C35286800EB10
:404040000411096839B1042101EB04110844694600F047F908B1002038BDFDF777FD0F21286801EB0411425C521E4254FDF764FD009838BDD84402082DE9F74F8A4600258B
:4040800000996C1ED21C0C604FF6FC71DFF8B88002EA0107A8F10C0128460A78D8F8001005E001EB00131B687BB1401CC0B29042F7D3601C2CD0042000EB041B01EB0B00BE
:4040C000514600F0FDF818BB01E00446F1E7D8F800000C2101EB041147520E22D8F8001002EB041207FB0AF001F802A00F22D8F8001002EB041201F802A000F0ABF8D8F81B
:40410000001001EB0411086010B1814600260EE0012516E0D8F8001001EB0B00494600F0FAF808B1012500E0B944761CF6B25645F0D335B90098046098F80410491C88F83F
:4041400004102846BDE8FE8FE4440208F8B54FF000070D46041EADF800703ADB25480078844236DADFF88CC00CF10C0CDCF8001001EB0410006860B30C2202EB04128E5A5C
:404180000E2202EB041285428B5C06FB030220D395421ED2002205E002FB060EAE4504D0521CD2B29A42F7D39FB1042000EB0417C81966466A46294600F0C7F848B9BDF85C
:4041C0000000012807D030682946384400F0A3F818B10120F8BD0020F8BDFDF7B7FC0F21306801EB0411425C521C4254FDF7A4FCF1E70000D84402082DE9F0410D460024DB
:4042000000F03CF8002821D11149002201F10C034A600C210E264FF00F0E14E01F6801EB041C07EB04173A601F6827F80C201F6806EB041C07F80C200EEB041C1F68641C79
:40424000E4B207F80C20AC42E8D31A71BDE8F081D844020800280BD0074AC01C20F00301506853880144994203D89368516018447047002070470000D8440208F8B5064686
:4042800000200E4D00900C01297021466846FFF72FF958B905F10C0100980860301B001F84B221466846FFF723F910B14FF6FF70F8BD6C800098A8600020F8BDD84402088E
:4042C00030B50D4604000AD0A800FFF7C3FF606028B125704FF0FF306080002030BD012030BD70B50D46040004D01DB1B4F90200002801DA012070BDFDF728FCB4F90210BC
:40430000606850F8210028606088401E6080FDF713FC002070BD70B50D46040006D02DB12078B4F90210401E814201DB012070BDFDF70CFC6088401C00B26080616841F8A8
:404340002050FDF7F9FB002070BD70B500231D4610B1B0F902400AE0012070BD466856F823608E4201D1012503E05B1CDBB29C42F4DA1570002070BD70B586B015460E4653
:404380000446182200216846FEF7BAFA00238DF800308DF80140ADF804506846029600F00CF906B070BD00000EB501890091407801900A20ADF808000020ADF80A00034834
:4043C000694600680BF043F90EBD0000A04402080EB541680091417801910221ADF808100089ADF80A000348694600680BF02FF90EBD0000A044020800F0DEB80249002027
:40440000488000F071B80000EC4402082DE9F041074621480125002405704FF6FF75012F02D0022F2FD10DE0477082801B4A128842F4807282818160174800F0BEF810BB38
:404440002C4620E0164E012B20D0B6F800C0022B624492B2328010D081607188091D8A4211D1104947708280098841F400718181094800F0A2F818B103E009684161ECE7CD
:404480002C46002030802046BDE8F0814A887280096801610420F5E748790208D0450208EC4402085445020870B504460D4600EB4400C20000212846FEF722FA074A00201C
:4044C000074914711560907150710648FDF742FB08B1002070BD012070BD0000F0440208A9430810D143081001491420FFF7DCBF6079020810B5FDF711FB06494A798979A4
:404500008A4201D1012400E00024FDF70BFB204610BD0000F044020805494879401CC0B248710A79904201D10020487170470000F044020810B5FDF703FB0B4948798A79EF
:4045400090420DD0096800EB400001EBC000AFF21B020649FDF718FB10B10920FFF7A2F9BDE81040FDF7E2BAF04402081945081070B5104C0146A2796379501CC0B283421A
:4045800016D02579854200D193B1206802EB420200EBC2001822FEF7A8F9A079401CC0B2A0712179884201D10020A071012070BD002070BDF0440208704710B5FFF7D8FFE4
:4045C0000446FFF7B7FF204610BD000010B5124802F0E8FB68B9114802F004F848B911490F480860084600F03BFA10B90E4809F0FDF804000ED1FFF7B1F90404240C04D00D
:40460000002141F2050000F07FF900214FF4805000F07AF9204610BDA15D08104B61081031970810004502080993081010B504F08BFB03F0BBFCBDE8104004F00FBD000094
:4046400070B50546041D00F1180600F09BF9124829680160616809888180A17A03290ED361688979017261684989C1F34701417261688989C180B1798172B17BC17200F037
:4046800091F8002806D100F0A5F8002802D1034A0121117070BD0000407B0208F844020810B502F069F9012803D1FFF751F9012800D0002010BD00002DE9F0411C4D0C4684
:4046C000060005D0DFF86C8098F8000018B16D1C2846BDE8F081708908F01AFB308808F01DFB0500F4D1304609F050FF0746304603F026FB0744304600F0E0FF384400F687
:4047000034102080304605F07AFC218808442080B17BC1EBC10100EBC1002080304601F0F7FB218808442080A8F80400D0E7000001001600F844020810B505F0F7FB03F0F4
:404740000DFB00F08DFF09F04BFF01F09FFBBDE8104008F0B1BA000010B5040010481DD0204608F0B1FA002818D1204601F09CFB002813D1204609F03FFF00280ED1204663
:4047800000F076FF002809D1204603F0EDFA002804D12046BDE8104005F0D4BB10BD000001001600094810B50949C07A887000F03BFF064801F0B6FB002806D103F0E6FA0C
:4047C000BDE81040014805F0FBBB10BD407B0208F844020810B500220849094800F0ECFE10F0FF0008D000220449054800F0E4FEBDE8104004F0FEBE10BD0000CD45081094
:4048000065840810F0B5002635461670334616E030F82340082C0AD900EB83077F8837B1083C20F823401478641C147005E053B100EB830420F8235065805B1CDBB28B424B
:40484000E6D33046F0BD014EFBE7000001001600F0B52B4B041D002099881B7802460BB12848F0BD274E2368083E4BB127898F4206D3616821B100234FF0020CA57A35E008
:404880003046F0BD0CEB820431F804E0BEF1000F28D031F822402CB304FB0E339BB23AB1012A0ED0022A11D0032A14D000201BE0B1F800E08C78BEF1230FE1D3032CDFD36E
:4048C00010E08C8874B1302CDAD30BE00C894CB1282CD5D306E08C8924B1233C4FF6BA7E7445CDD20028CCD1521CD2B29542C9D8C5EBC50103EB81018F42C1D3F0BD0000E2
:40490000F844020809001600034A1268002A02D0002800D010477047407B020870B5044605F06BFB01F00AFC00F026FE144D012C11D0022C0ED1002143F21200FFF7E4FFF2
:4049400000F020F8FEF7C4FDFFF7F6FEFFF76EFE0020287070BDFEF771FE4489FFF722FF38B9FFF737FF20B901202870204608F0CFF9BDE87040002143F20100FFF7C4BF06
:40498000F8440208024800210160416081607047407B020801464FF6C05007F003BD0000064910B509780448002903D00220FFF7F1FF002010BD000002001600F844020864
:4049C00030B50C46054600F00DF8002806D1044A6978126802EB0111C988218030BD0000044502080B4B024642F6137051781B7899420DD2084B1B6803EB01110B7A6FEA44
:404A000003039B0704D4127809788A4200D1002070470000FA4402080445020810B50A490A4B027809781B68491EC9B203EB01142478A24202D14170002010BD0029F3D12E
:404A40004FF6FF7010BD0000FA440208044502080249096801EB0010807B70470445020842F6117138B1006828B105490A6822B142F614707047084670470860002070472F
:404A8000084502082DE9F74F84B0154604980E4660B1152E05D01E2E0BD9D22E09D0522E07D042F6127007B0BDE8F08F42F61170F9E700200390049890F80180FF208DF811
:404AC00008000498FFF78EFF07002ED1DFF854A542F6147B1B2E0CD01D2E0AD0F0070BD0012E06D0DAF8001001EB0810007BB0421AD1F00703D00FE01E2EF3D0F9E71E2E9F
:404B000014D0DAF8001001EB0810407B20B1522E0CD0D22E08D109E01D2E07D1DAF8001001EB0810407B08B15F46D6E0012E20D0DAF8001001EB0810C088001DFEF75EFE6E
:404B4000040018D002214FF0010942F616700F2E75D013DC4FF005024FF0030729D2DFE806F0282BFB48FA54F971F880F78FF685F5000920E2E742F60577AEE0182E6FD0F2
:404B800009DCA6F11002082A13D2DFE802F0E7B5FDE81212EBEB1E2E7ED006DC192E7BD01B2E01D01D2E04D1EEE0522E75D0D22E74D042F612778DE0E878042809D0DAF898
:404BC0000030A97803EB0810007B401E81420ED105E0DAF8001001EB0810007B38B1A87860712888A071000AE071E878F7E05F4670E02988172901D207466BE0ADF8067004
:404C000028886071000AA07144E02879012817D01027ADF8061028796071EA88BDF80630BF1C201D7A4318442968FDF75EFEBDF80600E98807FB0100ADF806002AE050E01C
:404C40000227E6E7ADF80690A88829688200601DFDF74BFEBDF80600A98800EB8100EBE7D0E1ADF80610A888801C5CE0286808B1A88828B9012003900020ADF8069000906F
:404C8000434601222146284600F0EEFB070026D00398F8B1267102E061E075E076E100208DF80A008DF80960304600F09FFA04998DF808006A460988ADF80410BDF8061068
:404CC0000094091DADF806100146002002F0CAFF070002D02046FEF7B1FD3846E3E6E8889DE1ADF80690AA88601D2968FDF7FDFDBDF80600A988AFE0EA88002A3FF47CAF28
:404D0000AA88002AFAD0DAF8007007EB0813DB885B1E9A42BFF670AF2A68002AEED0ADF80610A888001DA8806071AA88E888BDF806304243201D18442968FDF7D6FDBDF83F
:404D40000600A988EA8801FB020075E7DBE0BFE0B5E083E047E033E021E003E0DEE0ADF8069097E729890029C8D0ADF80690221D288909F80200BDF80670631D010AF954A5
:404D8000BDF80600801C4EE0434601222146284600F046FB07009DD1E888C01C4CE729881729FFF429AFADF8067028886071000AA071DAF80020298802EB0810418069E79C
:404DC000298800299AD06B88002B97D099423FF613AF6171080AA0716888E071000A2072ADF8062056E72A89002A87D06989002984D08A42EBD8ADF80690221D288909F8E0
:404E00000200BDF80670631D010AF954BDF80670A11D68897854010ABDF80670E01D3954BDF80600001D81B2ADF80610A8898854BDF80610000AC854BDF806004346801C63
:404E400082B2ADF806202146284600F00DFB0700A1D1BDF80600E9880844EDE629880029B0D06A88002AADD09142B0D8ADF80690211D288809F80100BDF80670631D020A72
:404E8000FA54BDF80670A21D6888B854020ABDF80670E01D3A54BDF80600001D82B2ADF80620287D012801D050185EE0A8885054000A67E0022000E010200844BCE62988EA
:404EC000002992D06171080AA071ADF80670E1E62988002989D0ADF8069028886071000AA071BDF80600221D801C81B2ADF8061068888854010ABDF80620601D1154BDF879
:404F00000600801C98E642462146284600F062FA07009DD1E98809EB41008DE6298800299ED06A88002A9BD091429ED8ADF80690201D298809F80010BDF80670631D0A0A09
:404F4000FA54BDF80670A21D6988B9540A0ABDF80670E11D7A54BDF80610091D8AB2ADF80620297D01290AD010441022291DFDF7BCFC287DBDF8061001289DD19AE7A9881D
:404F80001154080ABDF80610C854F2E7288900283FF411AEADF806902889271D010A09F80700BDF80620601D1154BDF80600801CADF80600DAF8001001EB0810C0880F3878
:404FC00080B2E880A988884200D9E980BDF80600EA8838442968FDF788FC2868FEF72EFCBDF80600E988084480B2ADF806003844E96801602969416069698160BDF8060055
:405000000C3019E6297811B101297FF4F5ADADF80690221D287809F80200BDF80600401C0AE600000445020830B50C460546FFF7D9FC002805D1034A6978126802EB01112A
:405040008C7330BD04450208F0B40E480023122603600D48012401780A48001F17220568491E05EB011046708460C28042808280037343738473F3D1F0BC1721034A0420EB
:4050800001F0D0BE08450208FA4402080D520810704700017047000001490020086070470445020801010148FEF722BA0445020870470000044A4079126802EB0010806884
:4050C0000860002070470000044502082DE9F843324E0746457930684FF0000800EB05104FF01209846811F1090F2DD011F1050F05D00C22042914D0082949D136E04078C3
:40510000122806D008F08AF9316801EB051181F80190316824F0040401EB051181F80D8036E04178122906D10092401C3B461C4A1E2108F00FF93168787A01EB0511401CA4
:40514000487344F0040423E04078122806D008F065F9316801EB051181F80190316824F0080401EB051181F80C8011E04178122906D10092401C3B46094A1E2108F0EAF81B
:405180003168787A01EB0511401C087344F00804306800EB05108460BDE8F88304450208AD54081070B5104D04460129286800EB0410816016D140781226122805D008F0FF
:4051C0002DF9286800EB041046702868012200EB041017218260C18041808180002101734173827370BD000004450208032809D9C10704D01B2804D01D2802D003E01E28B7
:4052000001D0F1207047F220704700002DE9F04F85B00646032956D803D1002A53D0002B51D04E484FF0FF0A42F6137904784FF001008DF80A008DF804A049488DF805A09E
:4052400096F800C0006825460DF10C0BA4F1010400EB041797F80080C44508D1BF68012F05D08DF8054030788DF8040007E0002CECD1B9F1000F02D0012924D126E0012996
:4052800021D002294CD01078142801D9162805D31E2858D9D22856D0522854D08DF808A08DF809A00092ADF806309DF808106A46002002F0D7FCA0F53C51123903D1012160
:4052C00006200AF0ABF905B0BDE8F08F6D1E00EB05118968012906D0002DF7D19DF80500FF28F0D0E1E7EAB28DF8052031788DF8041000EB05103178017002211046FFF745
:4053000051FF81208DF808008DF8090003A9304600F024FC0720CDF800B0ADF80600DDE7E0B20121FFF73EFF82208DF808008DF8090003A9304600F011FC0720CDF800B0C5
:40534000ADF80600B1E78DF80900FFF74FFF521C8DF808005B1E0092A5E70000FA44020804450208F8B50546447A807A0E46012822D1287A81281FD082281DD076B91E2C81
:405380000CD0E10702D01D2C0DD005E0522C03D0D22C01D01B2C06D1FF2804D0E00704D01B2C04D108E0082103E01E2C04D16FF004012846FFF78AFE05480768002F06D018
:4053C000E888009032462146281D2B68B847F8BD08450208F0B58788012405683B0019D0DFF838E004F1020CDEF8006006EB0216F68866450AD30C4435F8026B26714FEA90
:40540000162666715B1E1FFA8CF4EBD1F91AC1800020F0BD42F61670F0BD0000044502082DE9F0410489CCB1DFF838C08788961CDCF800C037440CEB031C42F62075BCF825
:4054400006C0674507D80A441471240A5471B2B200F00AF805462846BDE8F08142F61670FAE70000044502082DE9F0410D468488016804B151B10C4EA718366806EB03137A
:40548000DB889F4206D99B1AC38004E042F61170BDE8F081C480C388A818001D1A46FDF724FA0020F4E70000044502082DE9F041184E0446407931684FF0000501EB001069
:4054C00042F6177780686FEA0000410701D4691F03E000070DD46FF008012046FFF7F6FD607A3946401C60722560E5802046FFF739FF6079316801EB00104078122807D042
:4055000007F08CFF61793268122002EB01114870BDE8F0810445020870B50446C38804C8042101F049FC05000FD1617AC8070ED01D2912D0522908D0D22906D01B2904D071
:405540006FF008012046FFF7C1FD284670BD5229FBD0D229F9D01E29F2D00421F2E7000020B10449097801700020704741F21300704700000C45020810B50E4C20780328DC
:4055800004D0022802D041F2120010BD0AF079F800F0F8FF07F020FC0AF072F8FEF72CFF07F0D2FF00F03EF909F0CCFC0020207010BD00000C45020870B5134D0446287829
:4055C000012802D041F2110070BD0220287069600AF036F809F0A8FC00F006F907F082FF0AF056F8204606F0D1FE040003D107F0A5FB040002D00120287003E000F054FFF9
:405600000AF047F8204670BD0C450208054810B50178022904D103210170406800B18047002010BD0C45020810B50C4C2078002812D160600AF00AF809F0F2FC00F002FB6B
:40564000FEF7DCFE0AF02CF807F05CFC00F0B4FF0AF027F80120207010BD00000C4502080248002181604160704700001445020838B5044600200090204600F01FF80146B7
:405680006846FDF735FF002812D10B4B009A5A60A17BCC070DD001EB810404EBC101032404EA4104C4EB4101091D11440091996038BD1A246143F8E714450208817B007A92
:4056C0004FF003030844C207C0EBC00013D003EA4002C2EB4000001D82B2C8070DD001EB810000EBC10003EA4001C1EB4001091D881880B270474000EEE71A204143F7E755
:405700002DE9FE4306460D0041F2114066D0002E64D0304600F0C0FA040023D041F2134741F21448BC4220D0A879022801D003281BD128680090A888ADF80400A879694680
:40574000801E8DF80600304600F0A6FA040009D0BC420AD002A9684608F08AF838B99DF80800307041F2124437E0444530D130781B49C0EBC003AA798868002400EB430338
:405780009A7132782B68C2EBC20200EB42021360AB88938001F10C0293793278C2EBC20200EB420253733278C2EBC20200EB4200CA6840F8072F0A8A82800878401CC0B260
:4057C000087008490988814207D109F073FF04E0BC4202D1284609F06BFF2046BDE8FE83144502080846020830B40C480C4C00220088A368401EC0EBC00103EB4101002815
:405800000A608A808A71C1F80720A1F80B204A73F0DC227030BC09F04EBF0000084602081445020809F048BF18B5002401468DF800406A46204600F029F8002822D19DF8B9
:40584000000000EB800101EBC0020F48416801EB4200427E012A15D144769DF8000000EB800202EBC00001EB4000C0F8064044819DF8000000EB800202EBC00001EB4000DC
:405880000460848018BD000014450208F0B5144C144D06464FF6FF70002364682D7811E003EB830707EBC307012E04EB470705D03F7E8F4204D113700020F0BD7F7E27B160
:4058C0005B1CDBB2AB42EBD3F0BD03EB830000EBC30004EB4000012545760176EBE7000014450208FA4402081A2100FB01F2024800214068FDF704B81445020838B50D469A
:4059000000218DF80010144601466A460020FFF7BDFF00281AD19DF8001001EB810202EBC1030B494A6802EB43012B68CB60AB880B829DF8001001EB810303EBC10102EB4F
:4059400041012268C1F81220A288CA8238BD00001445020838B50D4600218DF80010144601466A460120FFF791FF002825D19DF8001001EB810202EBC10310494A6802EBD9
:4059800043012B68C1F80630AB884B815CB19DF8001001EB810303EBC10102EB410123680B60A3888B809DF80010012301EB810404EBC10102EB41014B7638BD14450208C2
:4059C00010B538B1174A01781288914205D341F2154010BD41F2114010BD134CC1EBC102A16801EB420300221A609A800378C3EBC30301EB43039A710378C3EBC30301EB6F
:405A0000430343F8072F9A800378C3EBC30301EB43014A732178491E217009F04AFE002010BD0000084602081445020841F2114241B138B10E4B02781B889A4204D341F282
:405A40001540704710467047C2EBC203094A926802EB43035B7B8B710078C0EBC00002EB400050F8072F0A60808888800020704708460208144502082DE9FE434FF0000811
:405A800007460C008DF80080CDF8048041F21140CDF8088008D0002F06D02E4839780088814203D341F21540BDE8FE836A460020FFF7ECFE284D06004FF001091CD19DF8A5
:405AC0000000062200EB800101EBC000696801EB4001891D01A8FCF7F9FE68B19DF8000000EB800101EBC000696801EB4000D0F806102160408927E021463846FFF796FFCD
:405B00000646A079022822D30FD19DF8000000EB800101EBC000696801EB4000C1682160008AA08084F8068011E003280FD19DF8000000EB800101EBC000696801EB40005B
:405B4000D0F812102160C08AA08084F806903046AAE70000084602081445020810B5024641F2114000291DD0002A1BD010481378048841F21540A34214D2C3EBC3040D4B31
:405B80009B6803EB4404A4798C711278C2EBC20203EB420213680B6092888A8000228B5C0BB1002010BD521CD2B2062AF7D310BD0846020814450208FEB506464FF00000F7
:405BC0008DF80000019002900C0041F2114008D0002E06D0194831780088814202D341F21540FEBD6A460020FFF750FE05001ED19DF80020124F02EB820000EBC200796809
:405C0000062201EB400101A8FCF760FE78B19DF8000000EB800101EBC000796801EB4000016821608088A0800120A07104E021463046FFF793FF05462846FEBD08460208D9
:405C40001445020800B587B003A8FDF71DFDBDF81600C00617D508208DF8010001208DF800009DF81A009DF814100844C0EBC0004000ADF8020000200290064880680190CC
:405C80006846FDF7F9FE9DF81A00FFF72DFE07B000BD0000144502082DE9FC475FEA0109054641F2114134D095B3DFF880A08E1C0020BAF800402C70ADF80400DFF870801D
:405CC00000908DF80600641ED8F80800C4EBC40700EB470199F806208879824204D106224846FCF7F3FDB8B12978BAF80000814218D1D8F808009DF8062000EB4701887969
:405D000082420FD106226846FCF7E0FD38B109E0FFE70846BDE8FC8700262C7004E02C7041F21446002CCEDC3046F3E7084602081445020848B1064A0368D36080881082BA
:405D400002F10C0081710020704741F2114070471445020810B541F2114241B138B10E4B02781B889A4204D341F2154010BD104610BDC2EBC204094A8B79926802EB4404FD
:405D8000A3710078C0EBC00002EB40000A68026089888180002010BD084602081445020838B54FF6FF73012915D0022939D0032910D100788DF80100507803EA0020ADF8C5
:405DC000000011780843ADF80000694646F20200FEF79AFD38BD01781A480172D17803EA01210180947821430180517903EA01214180147921434180D17903EA0121818002
:405E0000947921438180517A03EA0121C180127A1143C180BDE8384001464FF4C040FEF773BD00788DF80200D07803EA0020ADF8000091780843ADF80000694646F201000E
:405E4000C6E700004C7B02080C4810B5006808B1FDF7F4FC0A48006808B1FDF7EFFC0948006808B1FDF7EAFC07480068002803D0BDE81040FDF7E2BC10BD00005045020843
:405E800038450208344502083C4502080349002008600349086003490860704748450208404502083C45020838B5044600200090A07BA17910FB01F000EB80008004010C95
:405EC0006846FDF715FB00281AD10E4900980860A07B00EBC000C1006846FDF709FB00280ED1094900980860A07B00EB001081006846FDF7FDFA002802D1044A009911607D
:405F000038BD00003C4502084045020848450208807B00EBC001C90000EB001001EB8000704700002DE9F843644F1E21624C7971017A01B901217970427A02B901223A70CE
:405F4000817A19B10B46C57A15B102E00123FAE701256B43BB7001B90121F970491E3971C0880025042802D9001FF88000E0FD80C2EBC2008000FDF741FCDFF8448100287E
:405F8000C8F800007ED0387800EB80008000FDF735FC4C490028086074D0787800EBC0008000FDF72BFC484E002830607DD0002400F08CF82846009537E000EBC0013068E3
:405FC00040F82150009901EBC10100EB81014D60009901EBC10100EB81018D60009901EBC10100EB8101CD60009901EBC10100EB81010D61009901EBC10100EB81014D6191
:40600000009901EBC10100EB81018D61009901EBC10100EB81018D83009901EBC10100EB8100C5830098401C009079788842C4D341462846009528E0C0EBC002086800EBCF
:4060400082029560009AC2EBC20200EB82029581009AC2EBC20200EB8202D581009AC2EBC20200EB82021561009AC2EBC20200EB82029582009AC2EBC20200EB8200C58207
:40608000009800E011E0401C00903A789042D3D32846009505E0684600F024FF0098401C009039788842F6D31CB100F00FF8FFF7CBFE2046BDE8F883030016002845020857
:4060C00050450208384502083445020810B51648164C006830B12178C1EBC1018A000021FCF70EFC1248006830B1217801EB81018A000021FCF704FC0E48006830B16178BA
:4061000001EBC1018A000021FCF7FAFB0A480068002808D0A178BDE8104001EB81018A000021FCF7EDBB10BD504502082845020838450208344502083C45020810B5FFF76F
:40614000C5FFBDE81040FFF77FBE08B569468DF800008DF8012041F20200FEF7D5FB002008BD00002DE9F347284A9DF800000E46126800EB800100F1400912F8218002EB5A
:406180008101002488784D89022806D0032806D0052804D0062805D103E0012402E0082400E00424684600F09DFE194FE00711D0184908EBC8003A68096801EBC00005EB0B
:4061C000C50102EB81012E30D1F804C0002332464946E04760070DD5A6F50C50383800D100263A6805EBC50002EB80003146C26848469047200707D5396805EBC50001EB78
:406200008000816848468847BDE8FC873845020834450208404502082DE9FE430E468046082B05D00021304601F088FCBDE8FE8350794FF6FF71147901EA00200443D07986
:40624000957901EA002005432548264F402C00780ED300F140018C420AD23A6804EB840102EB8101A1F2FE41097809B1A4F140008DF8080008F0FF02214602A800F0BCFE92
:4062800048B99DF80800396800EB800001EB80008088A84208D00023022231464046CDE9004501F093FCC1E7082307222146304601F0C6FC0C4906EB0610096801EB800179
:4062C000200A8C75C8750D76280A4876304601F031FB42F238319DF80800FFF743FFA5E728450208384502084845020870B50D46082B42D150794FF6FF71167901EA0020C7
:406300000643D07901EA0021907908431B4940280A781B490B682ED302F1400188422AD200EB800103EB8101A1F2FE41097811B3A0F14004E4B2A2421FD004EB840103EBB8
:4063400081018A88B24218D18978062915D10D4A05EB0511126802EB8101498981420CD10121284601F0EAFB2046BDE8704042F23831FFF7F7BE1446DCE770BD28450208B4
:406380003845020848450208F8B50746694600F0D1FA00287BD101220721009800F074F901220821009800F06FF9394E002456F8345025B104236A4602213846A847641C31
:4063C000032CF4D30024334D42F23737324E0CE0296804EB840011F820000099884203D1E0B23946FFF7BEFE641C30788442EFD300242A4D2A4E0FE0296804EB041001EB9C
:406400008000817B39B140680099884203D10121204601F093FB641C30788442ECD3214C0098216800EBC00001EBC000018D19B1818DC28C1144818506F038FC009901EBC0
:40644000C102216801EBC2025085009800EBC00001EBC000343009F007FE00984FF6FF7100EBC002206800EBC20291840099FF2201EBC10100EBC10181F82E200099172206
:4064800001EBC10100EBC100A0F844200020F8BD587B0208384502082845020848450208FA44020840450208F0B50021FF270C462E4E2F4D28E001EBC10233694FF6FF7C1F
:4064C00003EBC200491CA0F824C080F82E704FF0170CA0F844C04FF0030CC0F804C0DFF894C09CF800C0C0F808C0DFF88CC09CF800C043F832C04FF0FF32C260C0E9042427
:40650000C477048380F8464028788142D3D300201A4AF16805E000EB800301EB8303401C1F7413789842F6D37461747014493470002041F83040401C0328FAD300201227A3
:40654000B3690DE000EB001203EB8201401C8C7395F800C0C1F804C00C8103F822704C7429788842EED3F461F0BD000030450208FA4402082C4502082B4502082A45020842
:40658000587B020870B50024094D0A4E0BE0E96804EB840001EB8000007CFF2802D0204600F00CF9641C30788442F0D370BD0000304502082A45020808480949002200780A
:4065C0000B69401E10F0FF0000EBC00103EBC1010A854A858A85F4D170470000FA4402083045020818B1034948610020704742F216307047304502082DE9F04102461E4884
:406600004FF0FF360078814202D93046BDE8F0811A481B4C0378246801FB03F505EB850004EB8000002407E004EB840700EB87073F7CFF2F07D0641C9C42F5D30121084648
:4066400008F0ECFFE1E704EB8403002740F8237000EB83008781C78146600274094A01EBC100126852F830305B1E42F83030084600F0A0F92819C9E7FA4402082B4502086C
:406680003C450208404502082DE9F04791460D46072908D0082D06D02E4900EB0010096801EB800080882C4980B200EBC0080A6802EBC800C468621C4AD00069274F8A46EB
:4066C000844225D0396804EB840001EB800017E03A6800EB800602EB86010B7CAB420BD104EB840302EB830249685160B9F1000F03D000F063F800E00446386800EB860035
:406700004068411CE4D1DAF8001001EBC8000461DAF800003B6800EBC801C86800EB800203EB82031B7CAB4212D10023CB770B833B6803EB82025268CA600B69834200D10E
:406740000A61B9F1000F03D0BDE8F04700F036B8BDE8F08748450208404502083C450208F0B4144C024601EBC1032068124D00EBC300C668761C1AD000692E6800EB8000F6
:4067800006EB80004260206800EBC300026120684FF0FF3200EBC3002B68006900EB800003EB80004260F0BC084600F0E1BA0261C260ECE7404502083C4502082DE9F05FB4
:4067C000DFF8F48000EB80040025D8F800102F4601EB8400027C012A04D0072A0CD0082A51D115E035498068096800EB001001EB8000808885B246E051F82400454608B1CE
:40680000FDF71CF8286800EB84008068050C3AE051F824200AB141F82470DFF8A4B086688089DBF8002006EB860AC6EBC60912F82A50244A136803EB89010B8B184480B20A
:4068400008838B8A98421ED10869FCF7F7FF1D4940361FFA86FC0968002301EB89001A4607618782C7820783DBF8001001EB8A0015494089096800EBC00001EB80001946CA
:40688000066A6046B047D8F80000FF2140F8247000EB84008781C78101740C4905EBC500096851F83020521C41F830202846BDE8F05F00F07FB800003C4502084845020825
:4068C0003845020850450208344502084045020811B581B0FF24694601A800F02BF840B905490098096800EBC00001EBC00090F8464020461CBD00004045020830B50B4B1D
:406900000B4C00221B6824780AE002EBC20503EBC505AD8C854202D100200A6030BD521CA242F2D342F2113030BD000040450208FA440208F0B50E4B00224FF6FF761D6870
:406940000C4B1C780FE002EBC20305EBC3039F8CB74207D0077893F82E309F4202D100200A60F0BD521CA242EDD342F21130F0BD40450208FA4402080C4810B504689CB1AA
:406980000B4900200B780DE000EBC00104EBC101CA68521C02D10969491C01D0002010BD401C80B29842EFD3012010BD40450208FA440208154B30B4196809B1012400E01B
:4069C0000024134900EBC0000A6852F8301002EBC0004268914202D890F8462092B18268914211D390F84620012A0DD1002280F84620012C08D110F82E2F1B68007E30BC4B
:406A000089B218470122F2E730BC704744450208404502082DE9F05F3149DFF8C89080464FF0000A81F800A000EBC806D9F8000000EBC600C568681C46D0DFF8ACB005EBA0
:406A400085014F46DBF8000000EB8104D9F8000000EBC600C17F008B08440004000C03D14146284600F044F838681FFA88F200EBC601B9461431284600F088F820BB277C95
:406A8000012F0ED11949A068096800EB001301EB830181F811A0097C012902D1002101F04DF8D9F8000000EBC600C168A94201D16168C160D4E90150691C05D0082FBED1FB
:406AC000C0B200F04DFDBAE7D9F8000000EBC600C168491C01D1491E0161BDE8F09F000030450208404502083C45020848450208224A10B5126800EB800002EB8000002295
:406B0000C4890368234401EBC1041D49096801EBC4014B618389C4891B1B9CB20C83037C012B04D0072B10D0082B18D10FE0154A8068126800EB001002EB8000807B08B16C
:406B400005220CE00020088310BD027A07E00E4A8068126800EB800002EB8000828811F81F0F001DC0B208702044001F4870000A8870CA70100A087110BD00003C450208EB
:406B80004045020848450208384502082DE9F74F0C46C87A898882B0084486B2002001900498464900EBC0074FF0000B086800EBC700B0F82480A8F57F43FF3B04D184F841
:406BC0000BB0A4F804B077E0808D8A4660B371E0DAF8000000EBC700028D0AB1828D1AB3458DB54200D33546721BC07F96B2F8B1002081464FEA182141EA091001998DF8B8
:406C0000008040EA81108DF801008DF80250280A8DF803000123042269460220FDF7F6FBB9F1000F06D011E0012005B0BDE8F08F0120DEE70223E27A04F10C011846FDF7CD
:406C4000E5FBE07A84F80BB0281A85B2A08828B3A84200D80546A84213D3401B0004000CA08010D01648FF21018000232A4602202168FDF7CBFB70B10220049906F058FBBF
:406C8000D2E7A4F804B0DAF800000D4900EBC70080890880E9E7206828442060DAF8000000EBC700C18C491CC184018D11B1818D491E8185002E8BD10020B6E74045020800
:406CC0005445020810B50F4A0F4B12781C6860B159B1521E12F0FF0202EBC20304EBC303198558859985F4D110BD0021521E12F0FF0202EBC20004EBC00001854185818507
:406D0000F4D110BDFA4402084045020838B50C466946FFF7F3FD002826D1009800EBC0011248006800EBC101CA8CA24201D2002200E0121BCA84009901EBC10100EBC101C6
:406D40000A8D62B18A8D224492B28A85009901EBC10100EBC100018D8A4200D98185002C02D0009800F004F838BD0000404502080A4A1178002910D1094900EBC00309680F
:406D800001EBC3018B8D002B07D0C968491C04D0012111700021FFF73DBE7047304502084045020818B1034908600020704742F2123070474C450208F8B51C0015460E4691
:406DC00004D01DB110B1311F032902D342F21230F8BD6946FFF7AEFD10B142F25430F8BD009881B20720FFF707FC411C14D0009900EB800246EA014609490B6803EB820157
:406E00008E6043F822508C810422CA81009989B2FFF7A6FC0020F8BD42F21330F8BD00003C45020812B1031F032B02D342F212307047044B03EBC000203881800260002054
:406E400070470000587B020838B5144608B1042902D042F2123038BD6946FFF76BFD10B142F2543038BD05490098096800EBC00001EBC000A0F84440002038BD404502082B
:406E800030B505460C480D4C0178226842F22B30491E01EB810302EB83039B7813B10029F6D130BD2970236801EB8101002003EB810101228A7030BD28450208384502083B
:406EC00030B4074C0D4604EBC00050F8204C002C04D02846A44630BC0321604730BC7047587B02082DE9F041404E04463268002A79D03F4F3968002975D02078002500EBA5
:406F0000800302EB83029288402A1DD3C0EBC00001EB80008168B9B18089A8B10846FCF78DFC2078C0EBC001386800EB81018D602178C1EBC10100EB81018D812178C1EBCD
:406F4000C10100EB8100C58120783968C0EBC00001EB80000069D0B1FCF770FC2078C0EBC001386800EB81010D612178C1EBC10100EB81018D822178C1EBC10100EB8101CE
:406F8000CD822178C1EBC10100EB8100058319480178207800EB8002306800F82210217801EB810100EB81018D80217801EB810100EB8101CD80217801EB810100EB810130
:406FC0000D81217801EB810100EB81010D61217801EB810100EB8101CD60217801EB810100EB810085700020BDE8F0813845020850450208FA44020870B505461048114C4F
:4070000040290378246842F2703017D303F14006B14213D201EB810604EB8606A6F2FE4636785EB140398B4206D001EB810314F82330934200D10020297070BD1946F2E7DA
:4070400028450208384502082DE9F04786B04FF0000AADF80AA014460E460546ADF808A0ADF80CA002AF0E2B03D002230022009743E060794FF6FF71227901EA0020024329
:40708000E079A37901EA002043EA0008501EFF2802D3022300972EE0607A237A01EA00201843ADF80800E37A894601EA0321ADF80A10A37A1943ADF80A10172803D31729D6
:4070C00001D3814202D90B23009714E004A9104600F01CFB0028DCD1607B09EA0020ADF80C00217B0843ADF80C0001A8FFF7C8FE48B10423009700223146284600F020FB21
:4071000006B0BDE8F0879DF804004A4C00EB80010E23206800F821509DF80410BDF8102001EB810100EB81014A819DF8041001EB810100EB8101A1F804809DF80410BDF88D
:40714000082001EB810100EB81010A819DF80410394A01EB810100EB81010A619DF80410364A01EB810100EB8100C2609DF80400BDF80C10C0EBC0023148006800EB8202C3
:4071800091809DF80410BDF80A20C1EBC10100EB81014A809DF80410BDF80C20C1EBC10100EB81018A809DF804101522C1EBC10100EB8101C1F808A09DF80410C1EBC101EF
:4071C00000EB8101A1F80CA09DF80410C1EBC10100EB8100A0F80EA09DF8047030464037394600F02DFD9DF80400032200EB80012068154C00EB81014E709DF8041001EBB2
:40720000810100EB81008270BDF81000246800EBC0010C48036803EB8100828B05EBC50004EBC00053F821402E3002AB3946A04766E7000038450208497408105D75081022
